{
  "_format": "hh-sol-artifact-1",
  "contractName": "MyNFT",
  "sourceName": "contracts/myNFT.sol",
  "abi": [
    {
      "inputs": [
        {
          "internalType": "address",
          "name": "_accessControlAddress",
          "type": "address"
        },
        {
          "internalType": "string",
          "name": "_uri",
          "type": "string"
        }
      ],
      "stateMutability": "nonpayable",
      "type": "constructor"
    },
    {
      "inputs": [
        {
          "internalType": "address",
          "name": "sender",
          "type": "address"
        },
        {
          "internalType": "uint256",
          "name": "balance",
          "type": "uint256"
        },
        {
          "internalType": "uint256",
          "name": "needed",
          "type": "uint256"
        },
        {
          "internalType": "uint256",
          "name": "tokenId",
          "type": "uint256"
        }
      ],
      "name": "ERC1155InsufficientBalance",
      "type": "error"
    },
    {
      "inputs": [
        {
          "internalType": "address",
          "name": "approver",
          "type": "address"
        }
      ],
      "name": "ERC1155InvalidApprover",
      "type": "error"
    },
    {
      "inputs": [
        {
          "internalType": "uint256",
          "name": "idsLength",
          "type": "uint256"
        },
        {
          "internalType": "uint256",
          "name": "valuesLength",
          "type": "uint256"
        }
      ],
      "name": "ERC1155InvalidArrayLength",
      "type": "error"
    },
    {
      "inputs": [
        {
          "internalType": "address",
          "name": "operator",
          "type": "address"
        }
      ],
      "name": "ERC1155InvalidOperator",
      "type": "error"
    },
    {
      "inputs": [
        {
          "internalType": "address",
          "name": "receiver",
          "type": "address"
        }
      ],
      "name": "ERC1155InvalidReceiver",
      "type": "error"
    },
    {
      "inputs": [
        {
          "internalType": "address",
          "name": "sender",
          "type": "address"
        }
      ],
      "name": "ERC1155InvalidSender",
      "type": "error"
    },
    {
      "inputs": [
        {
          "internalType": "address",
          "name": "operator",
          "type": "address"
        },
        {
          "internalType": "address",
          "name": "owner",
          "type": "address"
        }
      ],
      "name": "ERC1155MissingApprovalForAll",
      "type": "error"
    },
    {
      "anonymous": false,
      "inputs": [
        {
          "indexed": true,
          "internalType": "address",
          "name": "account",
          "type": "address"
        },
        {
          "indexed": true,
          "internalType": "address",
          "name": "operator",
          "type": "address"
        },
        {
          "indexed": false,
          "internalType": "bool",
          "name": "approved",
          "type": "bool"
        }
      ],
      "name": "ApprovalForAll",
      "type": "event"
    },
    {
      "anonymous": false,
      "inputs": [
        {
          "indexed": true,
          "internalType": "address",
          "name": "distributorAddress",
          "type": "address"
        },
        {
          "indexed": true,
          "internalType": "address",
          "name": "pharmacyAddress",
          "type": "address"
        },
        {
          "indexed": false,
          "internalType": "uint256[]",
          "name": "tokenIds",
          "type": "uint256[]"
        },
        {
          "indexed": false,
          "internalType": "uint256",
          "name": "receivedTimestamp",
          "type": "uint256"
        }
      ],
      "name": "DistributorToPharmacy",
      "type": "event"
    },
    {
      "anonymous": false,
      "inputs": [
        {
          "indexed": true,
          "internalType": "address",
          "name": "manufacturerAddress",
          "type": "address"
        },
        {
          "indexed": true,
          "internalType": "address",
          "name": "distributorAddress",
          "type": "address"
        },
        {
          "indexed": false,
          "internalType": "uint256[]",
          "name": "tokenIds",
          "type": "uint256[]"
        },
        {
          "indexed": false,
          "internalType": "uint256",
          "name": "receivedTimestamp",
          "type": "uint256"
        }
      ],
      "name": "ManufacturerToDistributor",
      "type": "event"
    },
    {
      "anonymous": false,
      "inputs": [
        {
          "indexed": true,
          "internalType": "address",
          "name": "operator",
          "type": "address"
        },
        {
          "indexed": true,
          "internalType": "address",
          "name": "from",
          "type": "address"
        },
        {
          "indexed": true,
          "internalType": "address",
          "name": "to",
          "type": "address"
        },
        {
          "indexed": false,
          "internalType": "uint256[]",
          "name": "ids",
          "type": "uint256[]"
        },
        {
          "indexed": false,
          "internalType": "uint256[]",
          "name": "values",
          "type": "uint256[]"
        }
      ],
      "name": "TransferBatch",
      "type": "event"
    },
    {
      "anonymous": false,
      "inputs": [
        {
          "indexed": true,
          "internalType": "address",
          "name": "operator",
          "type": "address"
        },
        {
          "indexed": true,
          "internalType": "address",
          "name": "from",
          "type": "address"
        },
        {
          "indexed": true,
          "internalType": "address",
          "name": "to",
          "type": "address"
        },
        {
          "indexed": false,
          "internalType": "uint256",
          "name": "id",
          "type": "uint256"
        },
        {
          "indexed": false,
          "internalType": "uint256",
          "name": "value",
          "type": "uint256"
        }
      ],
      "name": "TransferSingle",
      "type": "event"
    },
    {
      "anonymous": false,
      "inputs": [
        {
          "indexed": false,
          "internalType": "string",
          "name": "value",
          "type": "string"
        },
        {
          "indexed": true,
          "internalType": "uint256",
          "name": "id",
          "type": "uint256"
        }
      ],
      "name": "URI",
      "type": "event"
    },
    {
      "anonymous": false,
      "inputs": [
        {
          "indexed": true,
          "internalType": "address",
          "name": "distributorAddress",
          "type": "address"
        },
        {
          "indexed": false,
          "internalType": "uint256",
          "name": "tokenId",
          "type": "uint256"
        },
        {
          "indexed": false,
          "internalType": "uint256",
          "name": "timespan",
          "type": "uint256"
        }
      ],
      "name": "distributorMintNFTEvent",
      "type": "event"
    },
    {
      "anonymous": false,
      "inputs": [
        {
          "indexed": true,
          "internalType": "address",
          "name": "distributorAddress",
          "type": "address"
        },
        {
          "indexed": true,
          "internalType": "address",
          "name": "pharmacyAddress",
          "type": "address"
        },
        {
          "indexed": false,
          "internalType": "uint256",
          "name": "timespan",
          "type": "uint256"
        }
      ],
      "name": "distributorSignTheContractEvent",
      "type": "event"
    },
    {
      "anonymous": false,
      "inputs": [
        {
          "indexed": true,
          "internalType": "address",
          "name": "manufactureAddress",
          "type": "address"
        },
        {
          "indexed": false,
          "internalType": "uint256[]",
          "name": "tokenIds",
          "type": "uint256[]"
        }
      ],
      "name": "mintNFTEvent",
      "type": "event"
    },
    {
      "anonymous": false,
      "inputs": [
        {
          "indexed": true,
          "internalType": "address",
          "name": "pharmacyAddress",
          "type": "address"
        },
        {
          "indexed": true,
          "internalType": "address",
          "name": "distributorAddress",
          "type": "address"
        },
        {
          "indexed": false,
          "internalType": "uint256",
          "name": "timespan",
          "type": "uint256"
        }
      ],
      "name": "pharmacySignTheContractEvent",
      "type": "event"
    },
    {
      "inputs": [],
      "name": "accessControlServiceObj",
      "outputs": [
        {
          "internalType": "contract accessControlService",
          "name": "",
          "type": "address"
        }
      ],
      "stateMutability": "view",
      "type": "function"
    },
    {
      "inputs": [
        {
          "internalType": "address",
          "name": "account",
          "type": "address"
        },
        {
          "internalType": "uint256",
          "name": "id",
          "type": "uint256"
        }
      ],
      "name": "balanceOf",
      "outputs": [
        {
          "internalType": "uint256",
          "name": "",
          "type": "uint256"
        }
      ],
      "stateMutability": "view",
      "type": "function"
    },
    {
      "inputs": [
        {
          "internalType": "address[]",
          "name": "accounts",
          "type": "address[]"
        },
        {
          "internalType": "uint256[]",
          "name": "ids",
          "type": "uint256[]"
        }
      ],
      "name": "balanceOfBatch",
      "outputs": [
        {
          "internalType": "uint256[]",
          "name": "",
          "type": "uint256[]"
        }
      ],
      "stateMutability": "view",
      "type": "function"
    },
    {
      "inputs": [
        {
          "internalType": "address",
          "name": "pharmacyAddress",
          "type": "address"
        }
      ],
      "name": "distributorCreateAContract",
      "outputs": [],
      "stateMutability": "nonpayable",
      "type": "function"
    },
    {
      "inputs": [
        {
          "internalType": "address",
          "name": "pharmacyAddress",
          "type": "address"
        }
      ],
      "name": "distributorGetContractByPharmacyAddress",
      "outputs": [
        {
          "components": [
            {
              "internalType": "address",
              "name": "distributorAddress",
              "type": "address"
            },
            {
              "internalType": "address",
              "name": "pharmacyAddress",
              "type": "address"
            },
            {
              "internalType": "string",
              "name": "contractStatus",
              "type": "string"
            }
          ],
          "internalType": "struct getContractInfoStruct",
          "name": "",
          "type": "tuple"
        }
      ],
      "stateMutability": "view",
      "type": "function"
    },
    {
      "inputs": [
        {
          "internalType": "address",
          "name": "pharmacyAddress",
          "type": "address"
        }
      ],
      "name": "distributorMintTheNFT",
      "outputs": [],
      "stateMutability": "nonpayable",
      "type": "function"
    },
    {
      "inputs": [
        {
          "internalType": "address",
          "name": "pharmaAddress",
          "type": "address"
        },
        {
          "internalType": "uint256[]",
          "name": "tokenIds",
          "type": "uint256[]"
        },
        {
          "internalType": "uint256[]",
          "name": "amount",
          "type": "uint256[]"
        }
      ],
      "name": "distributorTransferToPharmacy",
      "outputs": [],
      "stateMutability": "nonpayable",
      "type": "function"
    },
    {
      "inputs": [
        {
          "internalType": "uint256",
          "name": "tokenId",
          "type": "uint256"
        }
      ],
      "name": "getTrackingHistory",
      "outputs": [
        {
          "components": [
            {
              "internalType": "bytes32",
              "name": "fromUserType",
              "type": "bytes32"
            },
            {
              "internalType": "bytes32",
              "name": "toUserType",
              "type": "bytes32"
            },
            {
              "internalType": "address",
              "name": "fromUserAddress",
              "type": "address"
            },
            {
              "internalType": "address",
              "name": "toUserAddress",
              "type": "address"
            },
            {
              "internalType": "uint256",
              "name": "recivedtimeSpan",
              "type": "uint256"
            }
          ],
          "internalType": "struct AddressTracking[]",
          "name": "",
          "type": "tuple[]"
        }
      ],
      "stateMutability": "view",
      "type": "function"
    },
    {
      "inputs": [
        {
          "internalType": "address",
          "name": "account",
          "type": "address"
        },
        {
          "internalType": "address",
          "name": "operator",
          "type": "address"
        }
      ],
      "name": "isApprovedForAll",
      "outputs": [
        {
          "internalType": "bool",
          "name": "",
          "type": "bool"
        }
      ],
      "stateMutability": "view",
      "type": "function"
    },
    {
      "inputs": [
        {
          "internalType": "uint256[]",
          "name": "tokenIds",
          "type": "uint256[]"
        },
        {
          "internalType": "uint256[]",
          "name": "amount",
          "type": "uint256[]"
        },
        {
          "internalType": "address",
          "name": "distributorAddress",
          "type": "address"
        }
      ],
      "name": "manufacturerTransferToDistributor",
      "outputs": [],
      "stateMutability": "nonpayable",
      "type": "function"
    },
    {
      "inputs": [
        {
          "internalType": "uint256[]",
          "name": "amounts",
          "type": "uint256[]"
        }
      ],
      "name": "mintNFT",
      "outputs": [],
      "stateMutability": "nonpayable",
      "type": "function"
    },
    {
      "inputs": [
        {
          "internalType": "address",
          "name": "distributorAddress",
          "type": "address"
        }
      ],
      "name": "pharmacyConfirmTheContract",
      "outputs": [],
      "stateMutability": "nonpayable",
      "type": "function"
    },
    {
      "inputs": [
        {
          "internalType": "address",
          "name": "distributorAddress",
          "type": "address"
        }
      ],
      "name": "pharmacyGetContractInfoByDistributorAddress",
      "outputs": [
        {
          "components": [
            {
              "internalType": "address",
              "name": "distributorAddress",
              "type": "address"
            },
            {
              "internalType": "address",
              "name": "pharmacyAddress",
              "type": "address"
            },
            {
              "internalType": "string",
              "name": "contractStatus",
              "type": "string"
            }
          ],
          "internalType": "struct getContractInfoStruct",
          "name": "",
          "type": "tuple"
        }
      ],
      "stateMutability": "view",
      "type": "function"
    },
    {
      "inputs": [
        {
          "internalType": "address",
          "name": "from",
          "type": "address"
        },
        {
          "internalType": "address",
          "name": "to",
          "type": "address"
        },
        {
          "internalType": "uint256[]",
          "name": "ids",
          "type": "uint256[]"
        },
        {
          "internalType": "uint256[]",
          "name": "values",
          "type": "uint256[]"
        },
        {
          "internalType": "bytes",
          "name": "data",
          "type": "bytes"
        }
      ],
      "name": "safeBatchTransferFrom",
      "outputs": [],
      "stateMutability": "nonpayable",
      "type": "function"
    },
    {
      "inputs": [
        {
          "internalType": "address",
          "name": "from",
          "type": "address"
        },
        {
          "internalType": "address",
          "name": "to",
          "type": "address"
        },
        {
          "internalType": "uint256",
          "name": "id",
          "type": "uint256"
        },
        {
          "internalType": "uint256",
          "name": "value",
          "type": "uint256"
        },
        {
          "internalType": "bytes",
          "name": "data",
          "type": "bytes"
        }
      ],
      "name": "safeTransferFrom",
      "outputs": [],
      "stateMutability": "nonpayable",
      "type": "function"
    },
    {
      "inputs": [
        {
          "internalType": "address",
          "name": "operator",
          "type": "address"
        },
        {
          "internalType": "bool",
          "name": "approved",
          "type": "bool"
        }
      ],
      "name": "setApprovalForAll",
      "outputs": [],
      "stateMutability": "nonpayable",
      "type": "function"
    },
    {
      "inputs": [
        {
          "internalType": "string",
          "name": "_uri",
          "type": "string"
        }
      ],
      "name": "setURI",
      "outputs": [],
      "stateMutability": "nonpayable",
      "type": "function"
    },
    {
      "inputs": [
        {
          "internalType": "bytes4",
          "name": "interfaceId",
          "type": "bytes4"
        }
      ],
      "name": "supportsInterface",
      "outputs": [
        {
          "internalType": "bool",
          "name": "",
          "type": "bool"
        }
      ],
      "stateMutability": "view",
      "type": "function"
    },
    {
      "inputs": [
        {
          "internalType": "uint256",
          "name": "",
          "type": "uint256"
        },
        {
          "internalType": "uint256",
          "name": "",
          "type": "uint256"
        }
      ],
      "name": "tokenIdTravelInfos",
      "outputs": [
        {
          "internalType": "bytes32",
          "name": "fromUserType",
          "type": "bytes32"
        },
        {
          "internalType": "bytes32",
          "name": "toUserType",
          "type": "bytes32"
        },
        {
          "internalType": "address",
          "name": "fromUserAddress",
          "type": "address"
        },
        {
          "internalType": "address",
          "name": "toUserAddress",
          "type": "address"
        },
        {
          "internalType": "uint256",
          "name": "recivedtimeSpan",
          "type": "uint256"
        }
      ],
      "stateMutability": "view",
      "type": "function"
    },
    {
      "inputs": [
        {
          "internalType": "uint256",
          "name": "",
          "type": "uint256"
        }
      ],
      "name": "uri",
      "outputs": [
        {
          "internalType": "string",
          "name": "",
          "type": "string"
        }
      ],
      "stateMutability": "view",
      "type": "function"
    }
  ],
  "bytecode": "0x6080604052600160045534801561001557600080fd5b50604051612fd6380380612fd6833981016040819052610034916100e5565b8061003e816100bf565b506001600160a01b0382166100995760405162461bcd60e51b815260206004820152601e60248201527f496e76616c69642061636365737320636f6e74726f6c20616464726573730000604482015260640160405180910390fd5b50600380546001600160a01b0319166001600160a01b0392909216919091179055610318565b60026100cb828261025a565b5050565b634e487b7160e01b600052604160045260246000fd5b600080604083850312156100f857600080fd5b82516001600160a01b038116811461010f57600080fd5b60208401519092506001600160401b0381111561012b57600080fd5b8301601f8101851361013c57600080fd5b80516001600160401b03811115610155576101556100cf565b604051601f8201601f19908116603f011681016001600160401b0381118282101715610183576101836100cf565b60405281815282820160200187101561019b57600080fd5b60005b828110156101ba5760208185018101518383018201520161019e565b506000602083830101528093505050509250929050565b600181811c908216806101e557607f821691505b60208210810361020557634e487b7160e01b600052602260045260246000fd5b50919050565b601f82111561025557806000526020600020601f840160051c810160208510156102325750805b601f840160051c820191505b81811015610252576000815560010161023e565b50505b505050565b81516001600160401b03811115610273576102736100cf565b6102878161028184546101d1565b8461020b565b6020601f8211600181146102bb57600083156102a35750848201515b600019600385901b1c1916600184901b178455610252565b600084815260208120601f198516915b828110156102eb57878501518255602094850194600190920191016102cb565b50848210156103095786840151600019600387901b60f8161c191681555b50505050600190811b01905550565b612caf806103276000396000f3fe608060405234801561001057600080fd5b506004361061012b5760003560e01c8063684facce116100ad578063c36034e211610071578063c36034e2146102b1578063d7fbd9ca146102d1578063e0c83867146102e4578063e985e9c51461032b578063f242432a1461033e57600080fd5b8063684facce1461023a57806399cd9a3e146102655780639b907eea14610278578063a22cb4651461028b578063bc4c64de1461029e57600080fd5b806340b3124f116100f457806340b3124f146101c157806342e074d1146101d45780634303fad8146101e757806349acd6c4146101fa5780634e1273f41461021a57600080fd5b8062fdd58e1461013057806301ffc9a71461015657806302fe5305146101795780630e89341c1461018e5780632eb2c2d6146101ae575b600080fd5b61014361013e3660046121fa565b610351565b6040519081526020015b60405180910390f35b61016961016436600461223a565b610379565b604051901515815260200161014d565b61018c6101873660046122ff565b6103c9565b005b6101a161019c36600461234f565b6104a0565b60405161014d91906123ae565b61018c6101bc366004612471565b610534565b61018c6101cf366004612524565b61059b565b61018c6101e236600461259b565b610a9f565b61018c6101f53660046125cf565b610ca3565b61020d6102083660046125cf565b610e9e565b60405161014d91906125ea565b61022d610228366004612627565b610f50565b60405161014d919061272a565b60035461024d906001600160a01b031681565b6040516001600160a01b03909116815260200161014d565b61018c61027336600461273d565b61101c565b61018c6102863660046125cf565b61150f565b61018c6102993660046127c2565b611710565b61018c6102ac3660046125cf565b61171f565b6102c46102bf36600461234f565b61191c565b60405161014d91906127f9565b61020d6102df3660046125cf565b6119c8565b6102f76102f236600461287c565b611a51565b6040805195865260208601949094526001600160a01b0392831693850193909352166060830152608082015260a00161014d565b61016961033936600461289e565b611aab565b61018c61034c3660046128d1565b611ad9565b6000818152602081815260408083206001600160a01b03861684529091529020545b92915050565b60006001600160e01b03198216636cdb3d1360e11b14806103aa57506001600160e01b031982166303a24d0760e21b145b8061037357506301ffc9a760e01b6001600160e01b0319831614610373565b600354604051630935e01b60e21b81523360048201526001600160a01b03909116906324d7806c90602401602060405180830381865afa158015610411573d6000803e3d6000fd5b505050506040513d601f19601f820116820180604052508101906104359190612929565b6104945760405162461bcd60e51b815260206004820152602560248201527f596f75204d7573742062652041646d696e20746f20646f20746869732066756e60448201526431ba34b7b760d91b60648201526084015b60405180910390fd5b61049d81611b38565b50565b6060600280546104af90612946565b80601f01602080910402602001604051908101604052809291908181526020018280546104db90612946565b80156105285780601f106104fd57610100808354040283529160200191610528565b820191906000526020600020905b81548152906001019060200180831161050b57829003601f168201915b50505050509050919050565b336001600160a01b038616811480159061055557506105538682611aab565b155b156105865760405163711bec9160e11b81526001600160a01b0380831660048301528716602482015260440161048b565b6105938686868686611b44565b505050505050565b60035460405163346c56c560e11b81523360048201526001600160a01b03909116906368d8ad8a90602401602060405180830381865afa1580156105e3573d6000803e3d6000fd5b505050506040513d601f19601f820116820180604052508101906106079190612929565b6106535760405162461bcd60e51b815260206004820152601b60248201527f43616c6c6572206973206e6f742061204469737472696275746f720000000000604482015260640161048b565b600354604051636f499a0560e01b81526001600160a01b03858116600483015290911690636f499a0590602401602060405180830381865afa15801561069d573d6000803e3d6000fd5b505050506040513d601f19601f820116820180604052508101906106c19190612929565b61070d5760405162461bcd60e51b815260206004820152601a60248201527f5265636569766572206973206e6f74206120506861726d616379000000000000604482015260640161048b565b600082516001600160401b038111156107285761072861225e565b604051908082528060200260200182016040528015610751578160200160208202803683370190505b50905060005b8351811015610793573382828151811061077357610773612980565b6001600160a01b0390921660209283029190910190910152600101610757565b5060006107a08285610f50565b905060005b8151811015610842578381815181106107c0576107c0612980565b60200260200101518282815181106107da576107da612980565b6020026020010151101561083a5760405162461bcd60e51b815260206004820152602160248201527f4469737472696275746f723a20696e73756666696369656e742062616c616e636044820152606560f81b606482015260840161048b565b6001016107a5565b5061085f3386868660405180602001604052806000815250610534565b60035460408051633c2f61f360e21b8152905142926000926001600160a01b039091169163f0bd87cc916004808201926020929091908290030181865afa1580156108ae573d6000803e3d6000fd5b505050506040513d601f19601f820116820180604052508101906108d29190612996565b90506000600360009054906101000a90046001600160a01b03166001600160a01b031663f0c58ea76040518163ffffffff1660e01b8152600401602060405180830381865afa158015610929573d6000803e3d6000fd5b505050506040513d601f19601f8201168201806040525081019061094d9190612996565b905060005b8751811015610a4757600087828151811061096f5761096f612980565b60200260200101511115610a3f576005600089838151811061099357610993612980565b60209081029190910181015182528181019290925260409081016000908120825160a081018452878152808501878152339482019485526001600160a01b038f811660608401908152608084018c8152855460018082018855968852989096209351600590980290930196875590519286019290925592516002850180546001600160a01b03199081169284169290921790559251600385018054909416911617909155516004909101555b600101610952565b50876001600160a01b0316336001600160a01b03167f97d746d8ab141647d64f23b9b7cc4704b14d8c71c9b60aae8c278586fee86afb8986604051610a8d9291906129af565b60405180910390a35050505050505050565b60035460405163e160404160e01b81523360048201526001600160a01b039091169063e160404190602401602060405180830381865afa158015610ae7573d6000803e3d6000fd5b505050506040513d601f19601f82011682018060405250810190610b0b9190612929565b610b685760405162461bcd60e51b815260206004820152602860248201527f496e76616c696420526f6c653a204f6e6c79204d616e7566616374757265722060448201526718d85b881b5a5b9d60c21b606482015260840161048b565b805180610bb75760405162461bcd60e51b815260206004820152601c60248201527f416d6f756e742061727261792063616e6e6f7420626520656d70747900000000604482015260640161048b565b6004546000826001600160401b03811115610bd457610bd461225e565b604051908082528060200260200182016040528015610bfd578160200160208202803683370190505b50905060005b83811015610c3a57610c1581846129e7565b828281518110610c2757610c27612980565b6020908102919091010152600101610c03565b50610c5633828660405180602001604052806000815250611bab565b610c6083836129e7565b60045560405133907ff5d0852ff0649d85f1a5d805a5eab62adfc687f2902d76d5d3f9945885bb36b590610c9590849061272a565b60405180910390a250505050565b60035460405163346c56c560e11b81523360048201526001600160a01b03909116906368d8ad8a90602401602060405180830381865afa158015610ceb573d6000803e3d6000fd5b505050506040513d601f19601f82011682018060405250810190610d0f9190612929565b610d2b5760405162461bcd60e51b815260040161048b906129fa565b600354604051636f499a0560e01b81526001600160a01b03838116600483015290911690636f499a0590602401602060405180830381865afa158015610d75573d6000803e3d6000fd5b505050506040513d601f19601f82011682018060405250810190610d999190612929565b610db55760405162461bcd60e51b815260040161048b90612a31565b3360009081526006602090815260408083206001600160a01b038516845290915290205460ff16610e285760405162461bcd60e51b815260206004820181905260248201527f54686520436f6e7472616374206973206e6f74207369676e6564207965742021604482015260640161048b565b60006004549050610e4b3382600160405180602001604052806000815250611be9565b60048054906000610e5b83612a68565b90915550506040805182815242602082015233917f477a04dadd393334f6f68345b5d9bc150d97296cfa1978080cdb06332b9b7d16910160405180910390a25050565b604080516060808201835260008083526020830152918101919091523360008181526006602090815260408083206001600160a01b038716808552908352928190205481516060810183529485529184019290925260ff169190810182610f27576040518060400160405280600a815260200169139bdd0814da59db995960b21b815250610f47565b6040518060400160405280600681526020016514da59db995960d21b8152505b90529392505050565b60608151835114610f815781518351604051635b05999160e01b81526004810192909252602482015260440161048b565b600083516001600160401b03811115610f9c57610f9c61225e565b604051908082528060200260200182016040528015610fc5578160200160208202803683370190505b50905060005b845181101561101457602080820286010151610fef90602080840287010151610351565b82828151811061100157611001612980565b6020908102919091010152600101610fcb565b509392505050565b60035460405163e160404160e01b81523360048201526001600160a01b039091169063e160404190602401602060405180830381865afa158015611064573d6000803e3d6000fd5b505050506040513d601f19601f820116820180604052508101906110889190612929565b6110d45760405162461bcd60e51b815260206004820152601c60248201527f43616c6c6572206973206e6f742061204d616e75666163747572657200000000604482015260640161048b565b60035460405163346c56c560e11b81526001600160a01b038381166004830152909116906368d8ad8a90602401602060405180830381865afa15801561111e573d6000803e3d6000fd5b505050506040513d601f19601f820116820180604052508101906111429190612929565b61118e5760405162461bcd60e51b815260206004820152601d60248201527f5265636569766572206973206e6f742061204469737472696275746f72000000604482015260640161048b565b600083516001600160401b038111156111a9576111a961225e565b6040519080825280602002602001820160405280156111d2578160200160208202803683370190505b50905060005b845181101561121457338282815181106111f4576111f4612980565b6001600160a01b03909216602092830291909101909101526001016111d8565b5060006112218286610f50565b905060005b81518110156112c45784818151811061124157611241612980565b602002602001015182828151811061125b5761125b612980565b602002602001015110156112bc5760405162461bcd60e51b815260206004820152602260248201527f4d616e7566616374757265723a20696e73756666696369656e742062616c616e604482015261636560f01b606482015260840161048b565b600101611226565b506112e13384878760405180602001604052806000815250610534565b60035460408051630965288b60e41b8152905142926000926001600160a01b039091169163965288b0916004808201926020929091908290030181865afa158015611330573d6000803e3d6000fd5b505050506040513d601f19601f820116820180604052508101906113549190612996565b90506000600360009054906101000a90046001600160a01b03166001600160a01b031663f0bd87cc6040518163ffffffff1660e01b8152600401602060405180830381865afa1580156113ab573d6000803e3d6000fd5b505050506040513d601f19601f820116820180604052508101906113cf9190612996565b905060005b88518110156114c95760008882815181106113f1576113f1612980565b602002602001015111156114c157600560008a838151811061141557611415612980565b60209081029190910181015182528181019290925260409081016000908120825160a081018452878152808501878152339482019485526001600160a01b038d811660608401908152608084018c8152855460018082018855968852989096209351600590980290930196875590519286019290925592516002850180546001600160a01b03199081169284169290921790559251600385018054909416911617909155516004909101555b6001016113d4565b50856001600160a01b0316336001600160a01b03167fd62dac799945d16976cbf4cb0f96270d60dcb458eb78a7a42280bbaacbfd3d208a86604051610a8d9291906129af565b60035460405163346c56c560e11b81526001600160a01b038381166004830152909116906368d8ad8a90602401602060405180830381865afa158015611559573d6000803e3d6000fd5b505050506040513d601f19601f8201168201806040525081019061157d9190612929565b6115995760405162461bcd60e51b815260040161048b906129fa565b600354604051636f499a0560e01b81523360048201526001600160a01b0390911690636f499a0590602401602060405180830381865afa1580156115e1573d6000803e3d6000fd5b505050506040513d601f19601f820116820180604052508101906116059190612929565b6116215760405162461bcd60e51b815260040161048b90612a31565b6001600160a01b038116600090815260066020908152604080832033845290915290205460ff16156116ac5760405162461bcd60e51b815260206004820152602e60248201527f54686520436f6e747261637420497320416c7265616479205369676e6564202860448201526d506861726d6163792046756e632960901b606482015260840161048b565b6001600160a01b03811660008181526006602090815260408083203380855290835292819020805460ff19166001179055514281527f3300720aa372e0c4182392c95de997ea568acf7ad30b0dc6834e797ca1ab2df591015b60405180910390a350565b61171b338383611c46565b5050565b60035460405163346c56c560e11b81523360048201526001600160a01b03909116906368d8ad8a90602401602060405180830381865afa158015611767573d6000803e3d6000fd5b505050506040513d601f19601f8201168201806040525081019061178b9190612929565b6117a75760405162461bcd60e51b815260040161048b906129fa565b600354604051636f499a0560e01b81526001600160a01b03838116600483015290911690636f499a0590602401602060405180830381865afa1580156117f1573d6000803e3d6000fd5b505050506040513d601f19601f820116820180604052508101906118159190612929565b6118315760405162461bcd60e51b815260040161048b90612a31565b3360009081526006602090815260408083206001600160a01b038516845290915290205460ff16156118bf5760405162461bcd60e51b815260206004820152603160248201527f54686520436f6e747261637420497320416c7265616479205369676e656420286044820152704469737472696275746f722046756e632960781b606482015260840161048b565b3360008181526006602090815260408083206001600160a01b03861680855290835292819020805460ff19169055514281529192917fba28a869d4fd0a8a0729a38e9ba270e01a52f27bbafe9c7627b8a557467d69689101611705565b606060056000838152602001908152602001600020805480602002602001604051908101604052809291908181526020016000905b828210156119bd5760008481526020908190206040805160a08101825260058602909201805483526001808201548486015260028201546001600160a01b0390811693850193909352600382015490921660608401526004015460808301529083529092019101611951565b505050509050919050565b604080516060808201835260008083526020830152918101919091526001600160a01b038216600081815260066020908152604080832033808552908352928190205481516060810183529485529184019290925260ff169190810182610f27576040518060400160405280600a815260200169139bdd0814da59db995960b21b815250610f47565b60056020528160005260406000208181548110611a6d57600080fd5b6000918252602090912060059091020180546001820154600283015460038401546004909401549295509093506001600160a01b0390811692169085565b6001600160a01b03918216600090815260016020908152604080832093909416825291909152205460ff1690565b336001600160a01b0386168114801590611afa5750611af88682611aab565b155b15611b2b5760405163711bec9160e11b81526001600160a01b0380831660048301528716602482015260440161048b565b6105938686868686611cdc565b600261171b8282612acd565b6001600160a01b038416611b6e57604051632bfa23e760e11b81526000600482015260240161048b565b6001600160a01b038516611b9757604051626a0d4560e21b81526000600482015260240161048b565b611ba48585858585611d6a565b5050505050565b6001600160a01b038416611bd557604051632bfa23e760e11b81526000600482015260240161048b565b611be3600085858585611d6a565b50505050565b6001600160a01b038416611c1357604051632bfa23e760e11b81526000600482015260240161048b565b60408051600180825260208201869052818301908152606082018590526080820190925290610593600087848487611d6a565b6001600160a01b038216611c6f5760405162ced3e160e81b81526000600482015260240161048b565b6001600160a01b03838116600081815260016020908152604080832094871680845294825291829020805460ff191686151590811790915591519182527f17307eab39ab6107e8899845ad3d59bd9653f200f220920489ca2b5937696c31910160405180910390a3505050565b6001600160a01b038416611d0657604051632bfa23e760e11b81526000600482015260240161048b565b6001600160a01b038516611d2f57604051626a0d4560e21b81526000600482015260240161048b565b60408051600180825260208201869052818301908152606082018590526080820190925290611d618787848487611d6a565b50505050505050565b611d7685858585611dbd565b6001600160a01b03841615611ba45782513390600103611daf5760208481015190840151611da8838989858589611fd1565b5050610593565b6105938187878787876120f5565b8051825114611dec5781518151604051635b05999160e01b81526004810192909252602482015260440161048b565b3360005b8351811015611ef2576020818102858101820151908501909101516001600160a01b03881615611ea3576000828152602081815260408083206001600160a01b038c16845290915290205481811015611e7c576040516303dee4c560e01b81526001600160a01b038a16600482015260248101829052604481018390526064810184905260840161048b565b6000838152602081815260408083206001600160a01b038d16845290915290209082900390555b6001600160a01b03871615611ee8576000828152602081815260408083206001600160a01b038b16845290915281208054839290611ee29084906129e7565b90915550505b5050600101611df0565b508251600103611f735760208301516000906020840151909150856001600160a01b0316876001600160a01b0316846001600160a01b03167fc3d58168c5ae7397731d063d5bbf3d657854427343f4c083240f7aacaa2d0f628585604051611f64929190918252602082015260400190565b60405180910390a45050611ba4565b836001600160a01b0316856001600160a01b0316826001600160a01b03167f4a39dc06d4c0dbc64b70af90fd698a233a518aa5d07e595d983b8c0526c8f7fb8686604051611fc2929190612b8b565b60405180910390a45050505050565b6001600160a01b0384163b156105935760405163f23a6e6160e01b81526001600160a01b0385169063f23a6e61906120159089908990889088908890600401612bb9565b6020604051808303816000875af1925050508015612050575060408051601f3d908101601f1916820190925261204d91810190612bfe565b60015b6120b9573d80801561207e576040519150601f19603f3d011682016040523d82523d6000602084013e612083565b606091505b5080516000036120b157604051632bfa23e760e11b81526001600160a01b038616600482015260240161048b565b805160208201fd5b6001600160e01b0319811663f23a6e6160e01b14611d6157604051632bfa23e760e11b81526001600160a01b038616600482015260240161048b565b6001600160a01b0384163b156105935760405163bc197c8160e01b81526001600160a01b0385169063bc197c81906121399089908990889088908890600401612c1b565b6020604051808303816000875af1925050508015612174575060408051601f3d908101601f1916820190925261217191810190612bfe565b60015b6121a2573d80801561207e576040519150601f19603f3d011682016040523d82523d6000602084013e612083565b6001600160e01b0319811663bc197c8160e01b14611d6157604051632bfa23e760e11b81526001600160a01b038616600482015260240161048b565b80356001600160a01b03811681146121f557600080fd5b919050565b6000806040838503121561220d57600080fd5b612216836121de565b946020939093013593505050565b6001600160e01b03198116811461049d57600080fd5b60006020828403121561224c57600080fd5b813561225781612224565b9392505050565b634e487b7160e01b600052604160045260246000fd5b604051601f8201601f191681016001600160401b038111828210171561229c5761229c61225e565b604052919050565b6000806001600160401b038411156122be576122be61225e565b50601f8301601f19166020016122d381612274565b9150508281528383830111156122e857600080fd5b828260208301376000602084830101529392505050565b60006020828403121561231157600080fd5b81356001600160401b0381111561232757600080fd5b8201601f8101841361233857600080fd5b612347848235602084016122a4565b949350505050565b60006020828403121561236157600080fd5b5035919050565b6000815180845260005b8181101561238e57602081850181015186830182015201612372565b506000602082860101526020601f19601f83011685010191505092915050565b6020815260006122576020830184612368565b60006001600160401b038211156123da576123da61225e565b5060051b60200190565b600082601f8301126123f557600080fd5b8135612408612403826123c1565b612274565b8082825260208201915060208360051b86010192508583111561242a57600080fd5b602085015b8381101561244757803583526020928301920161242f565b5095945050505050565b600082601f83011261246257600080fd5b612257838335602085016122a4565b600080600080600060a0868803121561248957600080fd5b612492866121de565b94506124a0602087016121de565b935060408601356001600160401b038111156124bb57600080fd5b6124c7888289016123e4565b93505060608601356001600160401b038111156124e357600080fd5b6124ef888289016123e4565b92505060808601356001600160401b0381111561250b57600080fd5b61251788828901612451565b9150509295509295909350565b60008060006060848603121561253957600080fd5b612542846121de565b925060208401356001600160401b0381111561255d57600080fd5b612569868287016123e4565b92505060408401356001600160401b0381111561258557600080fd5b612591868287016123e4565b9150509250925092565b6000602082840312156125ad57600080fd5b81356001600160401b038111156125c357600080fd5b612347848285016123e4565b6000602082840312156125e157600080fd5b612257826121de565b602080825282516001600160a01b039081168383015290830151166040808301919091528201516060808301526000906123476080840182612368565b6000806040838503121561263a57600080fd5b82356001600160401b0381111561265057600080fd5b8301601f8101851361266157600080fd5b803561266f612403826123c1565b8082825260208201915060208360051b85010192508783111561269157600080fd5b6020840193505b828410156126ba576126a9846121de565b825260209384019390910190612698565b945050505060208301356001600160401b038111156126d857600080fd5b6126e4858286016123e4565b9150509250929050565b600081518084526020840193506020830160005b82811015612720578151865260209586019590910190600101612702565b5093949350505050565b60208152600061225760208301846126ee565b60008060006060848603121561275257600080fd5b83356001600160401b0381111561276857600080fd5b612774868287016123e4565b93505060208401356001600160401b0381111561279057600080fd5b61279c868287016123e4565b9250506127ab604085016121de565b90509250925092565b801515811461049d57600080fd5b600080604083850312156127d557600080fd5b6127de836121de565b915060208301356127ee816127b4565b809150509250929050565b602080825282518282018190526000918401906040840190835b81811015612871578351805184526020810151602085015260018060a01b03604082015116604085015260018060a01b036060820151166060850152608081015160808501525060a083019250602084019350600181019050612813565b509095945050505050565b6000806040838503121561288f57600080fd5b50508035926020909101359150565b600080604083850312156128b157600080fd5b6128ba836121de565b91506128c8602084016121de565b90509250929050565b600080600080600060a086880312156128e957600080fd5b6128f2866121de565b9450612900602087016121de565b9350604086013592506060860135915060808601356001600160401b0381111561250b57600080fd5b60006020828403121561293b57600080fd5b8151612257816127b4565b600181811c9082168061295a57607f821691505b60208210810361297a57634e487b7160e01b600052602260045260246000fd5b50919050565b634e487b7160e01b600052603260045260246000fd5b6000602082840312156129a857600080fd5b5051919050565b6040815260006129c260408301856126ee565b90508260208301529392505050565b634e487b7160e01b600052601160045260246000fd5b80820180821115610373576103736129d1565b6020808252601c908201527f41646472657373206973206e6f742061206469737472696275746f7200000000604082015260600190565b60208082526019908201527f41646472657373206973206e6f74206120506861726d61637900000000000000604082015260600190565b600060018201612a7a57612a7a6129d1565b5060010190565b601f821115612ac857806000526020600020601f840160051c81016020851015612aa85750805b601f840160051c820191505b81811015611ba45760008155600101612ab4565b505050565b81516001600160401b03811115612ae657612ae661225e565b612afa81612af48454612946565b84612a81565b6020601f821160018114612b2e5760008315612b165750848201515b600019600385901b1c1916600184901b178455611ba4565b600084815260208120601f198516915b82811015612b5e5787850151825560209485019460019092019101612b3e565b5084821015612b7c5786840151600019600387901b60f8161c191681555b50505050600190811b01905550565b604081526000612b9e60408301856126ee565b8281036020840152612bb081856126ee565b95945050505050565b6001600160a01b03868116825285166020820152604081018490526060810183905260a060808201819052600090612bf390830184612368565b979650505050505050565b600060208284031215612c1057600080fd5b815161225781612224565b6001600160a01b0386811682528516602082015260a060408201819052600090612c47908301866126ee565b8281036060840152612c5981866126ee565b90508281036080840152612c6d8185612368565b9897505050505050505056fea26469706673582212202fdf3b73b27c19a1e3d3926ee42c5d586e654a131d59a9270d974b9de63ea83064736f6c634300081c0033",
  "linkReferences": {},
  "deployedLinkReferences": {}
}