{
  "_format": "hh-sol-artifact-1",
  "contractName": "MyNFT",
  "sourceName": "contracts/myNFT.sol",
  "abi": [
    {
      "inputs": [
        {
          "internalType": "address",
          "name": "_accessControlAddress",
          "type": "address"
        },
        {
          "internalType": "string",
          "name": "_uri",
          "type": "string"
        }
      ],
      "stateMutability": "nonpayable",
      "type": "constructor"
    },
    {
      "inputs": [
        {
          "internalType": "address",
          "name": "sender",
          "type": "address"
        },
        {
          "internalType": "uint256",
          "name": "balance",
          "type": "uint256"
        },
        {
          "internalType": "uint256",
          "name": "needed",
          "type": "uint256"
        },
        {
          "internalType": "uint256",
          "name": "tokenId",
          "type": "uint256"
        }
      ],
      "name": "ERC1155InsufficientBalance",
      "type": "error"
    },
    {
      "inputs": [
        {
          "internalType": "address",
          "name": "approver",
          "type": "address"
        }
      ],
      "name": "ERC1155InvalidApprover",
      "type": "error"
    },
    {
      "inputs": [
        {
          "internalType": "uint256",
          "name": "idsLength",
          "type": "uint256"
        },
        {
          "internalType": "uint256",
          "name": "valuesLength",
          "type": "uint256"
        }
      ],
      "name": "ERC1155InvalidArrayLength",
      "type": "error"
    },
    {
      "inputs": [
        {
          "internalType": "address",
          "name": "operator",
          "type": "address"
        }
      ],
      "name": "ERC1155InvalidOperator",
      "type": "error"
    },
    {
      "inputs": [
        {
          "internalType": "address",
          "name": "receiver",
          "type": "address"
        }
      ],
      "name": "ERC1155InvalidReceiver",
      "type": "error"
    },
    {
      "inputs": [
        {
          "internalType": "address",
          "name": "sender",
          "type": "address"
        }
      ],
      "name": "ERC1155InvalidSender",
      "type": "error"
    },
    {
      "inputs": [
        {
          "internalType": "address",
          "name": "operator",
          "type": "address"
        },
        {
          "internalType": "address",
          "name": "owner",
          "type": "address"
        }
      ],
      "name": "ERC1155MissingApprovalForAll",
      "type": "error"
    },
    {
      "anonymous": false,
      "inputs": [
        {
          "indexed": true,
          "internalType": "address",
          "name": "account",
          "type": "address"
        },
        {
          "indexed": true,
          "internalType": "address",
          "name": "operator",
          "type": "address"
        },
        {
          "indexed": false,
          "internalType": "bool",
          "name": "approved",
          "type": "bool"
        }
      ],
      "name": "ApprovalForAll",
      "type": "event"
    },
    {
      "anonymous": false,
      "inputs": [
        {
          "indexed": true,
          "internalType": "address",
          "name": "distributorAddress",
          "type": "address"
        },
        {
          "indexed": true,
          "internalType": "address",
          "name": "pharmacyAddress",
          "type": "address"
        },
        {
          "indexed": false,
          "internalType": "uint256[]",
          "name": "tokenIds",
          "type": "uint256[]"
        },
        {
          "indexed": false,
          "internalType": "uint256",
          "name": "receivedTimestamp",
          "type": "uint256"
        }
      ],
      "name": "DistributorToPharmacy",
      "type": "event"
    },
    {
      "anonymous": false,
      "inputs": [
        {
          "indexed": true,
          "internalType": "address",
          "name": "manufacturerAddress",
          "type": "address"
        },
        {
          "indexed": true,
          "internalType": "address",
          "name": "distributorAddress",
          "type": "address"
        },
        {
          "indexed": false,
          "internalType": "uint256[]",
          "name": "tokenIds",
          "type": "uint256[]"
        },
        {
          "indexed": false,
          "internalType": "uint256",
          "name": "receivedTimestamp",
          "type": "uint256"
        }
      ],
      "name": "ManufacturerToDistributor",
      "type": "event"
    },
    {
      "anonymous": false,
      "inputs": [
        {
          "indexed": true,
          "internalType": "address",
          "name": "operator",
          "type": "address"
        },
        {
          "indexed": true,
          "internalType": "address",
          "name": "from",
          "type": "address"
        },
        {
          "indexed": true,
          "internalType": "address",
          "name": "to",
          "type": "address"
        },
        {
          "indexed": false,
          "internalType": "uint256[]",
          "name": "ids",
          "type": "uint256[]"
        },
        {
          "indexed": false,
          "internalType": "uint256[]",
          "name": "values",
          "type": "uint256[]"
        }
      ],
      "name": "TransferBatch",
      "type": "event"
    },
    {
      "anonymous": false,
      "inputs": [
        {
          "indexed": true,
          "internalType": "address",
          "name": "operator",
          "type": "address"
        },
        {
          "indexed": true,
          "internalType": "address",
          "name": "from",
          "type": "address"
        },
        {
          "indexed": true,
          "internalType": "address",
          "name": "to",
          "type": "address"
        },
        {
          "indexed": false,
          "internalType": "uint256",
          "name": "id",
          "type": "uint256"
        },
        {
          "indexed": false,
          "internalType": "uint256",
          "name": "value",
          "type": "uint256"
        }
      ],
      "name": "TransferSingle",
      "type": "event"
    },
    {
      "anonymous": false,
      "inputs": [
        {
          "indexed": false,
          "internalType": "string",
          "name": "value",
          "type": "string"
        },
        {
          "indexed": true,
          "internalType": "uint256",
          "name": "id",
          "type": "uint256"
        }
      ],
      "name": "URI",
      "type": "event"
    },
    {
      "anonymous": false,
      "inputs": [
        {
          "indexed": true,
          "internalType": "address",
          "name": "distributorAddress",
          "type": "address"
        },
        {
          "indexed": false,
          "internalType": "uint256",
          "name": "tokenId",
          "type": "uint256"
        },
        {
          "indexed": false,
          "internalType": "uint256",
          "name": "timespan",
          "type": "uint256"
        }
      ],
      "name": "distributorFinalizeAndMintEvent",
      "type": "event"
    },
    {
      "anonymous": false,
      "inputs": [
        {
          "indexed": true,
          "internalType": "address",
          "name": "distributorAddress",
          "type": "address"
        },
        {
          "indexed": true,
          "internalType": "address",
          "name": "pharmacyAddress",
          "type": "address"
        },
        {
          "indexed": false,
          "internalType": "uint256",
          "name": "timespan",
          "type": "uint256"
        }
      ],
      "name": "distributorSignTheContractEvent",
      "type": "event"
    },
    {
      "anonymous": false,
      "inputs": [
        {
          "indexed": true,
          "internalType": "address",
          "name": "manufactureAddress",
          "type": "address"
        },
        {
          "indexed": false,
          "internalType": "uint256[]",
          "name": "tokenIds",
          "type": "uint256[]"
        }
      ],
      "name": "mintNFTEvent",
      "type": "event"
    },
    {
      "anonymous": false,
      "inputs": [
        {
          "indexed": true,
          "internalType": "address",
          "name": "pharmacyAddress",
          "type": "address"
        },
        {
          "indexed": true,
          "internalType": "address",
          "name": "distributorAddress",
          "type": "address"
        },
        {
          "indexed": false,
          "internalType": "uint256",
          "name": "timespan",
          "type": "uint256"
        }
      ],
      "name": "pharmacySignTheContractEvent",
      "type": "event"
    },
    {
      "inputs": [],
      "name": "accessControlServiceObj",
      "outputs": [
        {
          "internalType": "contract accessControlService",
          "name": "",
          "type": "address"
        }
      ],
      "stateMutability": "view",
      "type": "function"
    },
    {
      "inputs": [
        {
          "internalType": "address",
          "name": "account",
          "type": "address"
        },
        {
          "internalType": "uint256",
          "name": "id",
          "type": "uint256"
        }
      ],
      "name": "balanceOf",
      "outputs": [
        {
          "internalType": "uint256",
          "name": "",
          "type": "uint256"
        }
      ],
      "stateMutability": "view",
      "type": "function"
    },
    {
      "inputs": [
        {
          "internalType": "address[]",
          "name": "accounts",
          "type": "address[]"
        },
        {
          "internalType": "uint256[]",
          "name": "ids",
          "type": "uint256[]"
        }
      ],
      "name": "balanceOfBatch",
      "outputs": [
        {
          "internalType": "uint256[]",
          "name": "",
          "type": "uint256[]"
        }
      ],
      "stateMutability": "view",
      "type": "function"
    },
    {
      "inputs": [
        {
          "internalType": "address",
          "name": "pharmacyAddress",
          "type": "address"
        }
      ],
      "name": "distributorCreateAContract",
      "outputs": [],
      "stateMutability": "nonpayable",
      "type": "function"
    },
    {
      "inputs": [
        {
          "internalType": "address",
          "name": "pharmacyAddress",
          "type": "address"
        }
      ],
      "name": "distributorFinalizeAndMint",
      "outputs": [],
      "stateMutability": "nonpayable",
      "type": "function"
    },
    {
      "inputs": [
        {
          "internalType": "address",
          "name": "pharmacyAddress",
          "type": "address"
        }
      ],
      "name": "distributorGetContractByPharmacyAddress",
      "outputs": [
        {
          "components": [
            {
              "internalType": "address",
              "name": "distributorAddress",
              "type": "address"
            },
            {
              "internalType": "address",
              "name": "pharmacyAddress",
              "type": "address"
            },
            {
              "internalType": "string",
              "name": "contractStatus",
              "type": "string"
            }
          ],
          "internalType": "struct getContractInfoStruct",
          "name": "",
          "type": "tuple"
        }
      ],
      "stateMutability": "view",
      "type": "function"
    },
    {
      "inputs": [
        {
          "internalType": "address",
          "name": "",
          "type": "address"
        },
        {
          "internalType": "address",
          "name": "",
          "type": "address"
        }
      ],
      "name": "distributorPharmacyContract",
      "outputs": [
        {
          "internalType": "enum MyNFT.contractStatus",
          "name": "",
          "type": "uint8"
        }
      ],
      "stateMutability": "view",
      "type": "function"
    },
    {
      "inputs": [
        {
          "internalType": "address",
          "name": "pharmaAddress",
          "type": "address"
        },
        {
          "internalType": "uint256[]",
          "name": "tokenIds",
          "type": "uint256[]"
        },
        {
          "internalType": "uint256[]",
          "name": "amount",
          "type": "uint256[]"
        }
      ],
      "name": "distributorTransferToPharmacy",
      "outputs": [],
      "stateMutability": "nonpayable",
      "type": "function"
    },
    {
      "inputs": [
        {
          "internalType": "uint256",
          "name": "tokenId",
          "type": "uint256"
        }
      ],
      "name": "getTrackingHistory",
      "outputs": [
        {
          "components": [
            {
              "internalType": "bytes32",
              "name": "fromUserType",
              "type": "bytes32"
            },
            {
              "internalType": "bytes32",
              "name": "toUserType",
              "type": "bytes32"
            },
            {
              "internalType": "address",
              "name": "fromUserAddress",
              "type": "address"
            },
            {
              "internalType": "address",
              "name": "toUserAddress",
              "type": "address"
            },
            {
              "internalType": "uint256",
              "name": "recivedtimeSpan",
              "type": "uint256"
            }
          ],
          "internalType": "struct AddressTracking[]",
          "name": "",
          "type": "tuple[]"
        }
      ],
      "stateMutability": "view",
      "type": "function"
    },
    {
      "inputs": [
        {
          "internalType": "address",
          "name": "account",
          "type": "address"
        },
        {
          "internalType": "address",
          "name": "operator",
          "type": "address"
        }
      ],
      "name": "isApprovedForAll",
      "outputs": [
        {
          "internalType": "bool",
          "name": "",
          "type": "bool"
        }
      ],
      "stateMutability": "view",
      "type": "function"
    },
    {
      "inputs": [
        {
          "internalType": "uint256[]",
          "name": "tokenIds",
          "type": "uint256[]"
        },
        {
          "internalType": "uint256[]",
          "name": "amount",
          "type": "uint256[]"
        },
        {
          "internalType": "address",
          "name": "distributorAddress",
          "type": "address"
        }
      ],
      "name": "manufacturerTransferToDistributor",
      "outputs": [],
      "stateMutability": "nonpayable",
      "type": "function"
    },
    {
      "inputs": [
        {
          "internalType": "uint256[]",
          "name": "amounts",
          "type": "uint256[]"
        }
      ],
      "name": "mintNFT",
      "outputs": [],
      "stateMutability": "nonpayable",
      "type": "function"
    },
    {
      "inputs": [
        {
          "internalType": "address",
          "name": "distributorAddress",
          "type": "address"
        }
      ],
      "name": "pharmacyConfirmTheContract",
      "outputs": [],
      "stateMutability": "nonpayable",
      "type": "function"
    },
    {
      "inputs": [
        {
          "internalType": "address",
          "name": "distributorAddress",
          "type": "address"
        }
      ],
      "name": "pharmacyGetContractInfoByDistributorAddress",
      "outputs": [
        {
          "components": [
            {
              "internalType": "address",
              "name": "distributorAddress",
              "type": "address"
            },
            {
              "internalType": "address",
              "name": "pharmacyAddress",
              "type": "address"
            },
            {
              "internalType": "string",
              "name": "contractStatus",
              "type": "string"
            }
          ],
          "internalType": "struct getContractInfoStruct",
          "name": "",
          "type": "tuple"
        }
      ],
      "stateMutability": "view",
      "type": "function"
    },
    {
      "inputs": [
        {
          "internalType": "address",
          "name": "from",
          "type": "address"
        },
        {
          "internalType": "address",
          "name": "to",
          "type": "address"
        },
        {
          "internalType": "uint256[]",
          "name": "ids",
          "type": "uint256[]"
        },
        {
          "internalType": "uint256[]",
          "name": "values",
          "type": "uint256[]"
        },
        {
          "internalType": "bytes",
          "name": "data",
          "type": "bytes"
        }
      ],
      "name": "safeBatchTransferFrom",
      "outputs": [],
      "stateMutability": "nonpayable",
      "type": "function"
    },
    {
      "inputs": [
        {
          "internalType": "address",
          "name": "from",
          "type": "address"
        },
        {
          "internalType": "address",
          "name": "to",
          "type": "address"
        },
        {
          "internalType": "uint256",
          "name": "id",
          "type": "uint256"
        },
        {
          "internalType": "uint256",
          "name": "value",
          "type": "uint256"
        },
        {
          "internalType": "bytes",
          "name": "data",
          "type": "bytes"
        }
      ],
      "name": "safeTransferFrom",
      "outputs": [],
      "stateMutability": "nonpayable",
      "type": "function"
    },
    {
      "inputs": [
        {
          "internalType": "address",
          "name": "operator",
          "type": "address"
        },
        {
          "internalType": "bool",
          "name": "approved",
          "type": "bool"
        }
      ],
      "name": "setApprovalForAll",
      "outputs": [],
      "stateMutability": "nonpayable",
      "type": "function"
    },
    {
      "inputs": [
        {
          "internalType": "string",
          "name": "_uri",
          "type": "string"
        }
      ],
      "name": "setURI",
      "outputs": [],
      "stateMutability": "nonpayable",
      "type": "function"
    },
    {
      "inputs": [
        {
          "internalType": "bytes4",
          "name": "interfaceId",
          "type": "bytes4"
        }
      ],
      "name": "supportsInterface",
      "outputs": [
        {
          "internalType": "bool",
          "name": "",
          "type": "bool"
        }
      ],
      "stateMutability": "view",
      "type": "function"
    },
    {
      "inputs": [
        {
          "internalType": "uint256",
          "name": "",
          "type": "uint256"
        },
        {
          "internalType": "uint256",
          "name": "",
          "type": "uint256"
        }
      ],
      "name": "tokenIdTravelInfos",
      "outputs": [
        {
          "internalType": "bytes32",
          "name": "fromUserType",
          "type": "bytes32"
        },
        {
          "internalType": "bytes32",
          "name": "toUserType",
          "type": "bytes32"
        },
        {
          "internalType": "address",
          "name": "fromUserAddress",
          "type": "address"
        },
        {
          "internalType": "address",
          "name": "toUserAddress",
          "type": "address"
        },
        {
          "internalType": "uint256",
          "name": "recivedtimeSpan",
          "type": "uint256"
        }
      ],
      "stateMutability": "view",
      "type": "function"
    },
    {
      "inputs": [
        {
          "internalType": "uint256",
          "name": "",
          "type": "uint256"
        }
      ],
      "name": "uri",
      "outputs": [
        {
          "internalType": "string",
          "name": "",
          "type": "string"
        }
      ],
      "stateMutability": "view",
      "type": "function"
    }
  ],
  "bytecode": "0x6080604052600160045534801561001557600080fd5b506040516133bb3803806133bb833981016040819052610034916100e5565b8061003e816100bf565b506001600160a01b0382166100995760405162461bcd60e51b815260206004820152601e60248201527f496e76616c69642061636365737320636f6e74726f6c20616464726573730000604482015260640160405180910390fd5b50600380546001600160a01b0319166001600160a01b0392909216919091179055610318565b60026100cb828261025a565b5050565b634e487b7160e01b600052604160045260246000fd5b600080604083850312156100f857600080fd5b82516001600160a01b038116811461010f57600080fd5b60208401519092506001600160401b0381111561012b57600080fd5b8301601f8101851361013c57600080fd5b80516001600160401b03811115610155576101556100cf565b604051601f8201601f19908116603f011681016001600160401b0381118282101715610183576101836100cf565b60405281815282820160200187101561019b57600080fd5b60005b828110156101ba5760208185018101518383018201520161019e565b506000602083830101528093505050509250929050565b600181811c908216806101e557607f821691505b60208210810361020557634e487b7160e01b600052602260045260246000fd5b50919050565b601f82111561025557806000526020600020601f840160051c810160208510156102325750805b601f840160051c820191505b81811015610252576000815560010161023e565b50505b505050565b81516001600160401b03811115610273576102736100cf565b6102878161028184546101d1565b8461020b565b6020601f8211600181146102bb57600083156102a35750848201515b600019600385901b1c1916600184901b178455610252565b600084815260208120601f198516915b828110156102eb57878501518255602094850194600190920191016102cb565b50848210156103095786840151600019600387901b60f8161c191681555b50505050600190811b01905550565b613094806103276000396000f3fe608060405234801561001057600080fd5b50600436106101365760003560e01c8063684facce116100b8578063bc4c64de1161007c578063bc4c64de146102e4578063c36034e2146102f7578063d7fbd9ca14610317578063e0c838671461032a578063e985e9c514610371578063f242432a1461038457600080fd5b8063684facce1461026d578063743b448b1461029857806399cd9a3e146102ab5780639b907eea146102be578063a22cb465146102d157600080fd5b806330541502116100ff57806330541502146101cc57806340b3124f1461020757806342e074d11461021a57806349acd6c41461022d5780634e1273f41461024d57600080fd5b8062fdd58e1461013b57806301ffc9a71461016157806302fe5305146101845780630e89341c146101995780632eb2c2d6146101b9575b600080fd5b61014e6101493660046125a1565b610397565b6040519081526020015b60405180910390f35b61017461016f3660046125e1565b6103bf565b6040519015158152602001610158565b6101976101923660046126a6565b61040f565b005b6101ac6101a73660046126f6565b6104e6565b6040516101589190612755565b6101976101c7366004612818565b61057a565b6101fa6101da3660046128cb565b600660209081526000928352604080842090915290825290205460ff1681565b6040516101589190612914565b61019761021536600461293c565b6105e1565b6101976102283660046129b3565b610b7e565b61024061023b3660046129e7565b610d82565b6040516101589190612a02565b61026061025b366004612a3f565b610ea8565b6040516101589190612b42565b600354610280906001600160a01b031681565b6040516001600160a01b039091168152602001610158565b6101976102a63660046129e7565b610f74565b6101976102b9366004612b55565b6112cb565b6101976102cc3660046129e7565b6117be565b6101976102df366004612bda565b6119e1565b6101976102f23660046129e7565b6119f0565b61030a6103053660046126f6565b611bf5565b6040516101589190612c11565b6102406103253660046129e7565b611ca1565b61033d610338366004612c94565b611d06565b6040805195865260208601949094526001600160a01b0392831693850193909352166060830152608082015260a001610158565b61017461037f3660046128cb565b611d60565b610197610392366004612cb6565b611d8e565b6000818152602081815260408083206001600160a01b03861684529091529020545b92915050565b60006001600160e01b03198216636cdb3d1360e11b14806103f057506001600160e01b031982166303a24d0760e21b145b806103b957506301ffc9a760e01b6001600160e01b03198316146103b9565b600354604051630935e01b60e21b81523360048201526001600160a01b03909116906324d7806c90602401602060405180830381865afa158015610457573d6000803e3d6000fd5b505050506040513d601f19601f8201168201806040525081019061047b9190612d0e565b6104da5760405162461bcd60e51b815260206004820152602560248201527f596f75204d7573742062652041646d696e20746f20646f20746869732066756e60448201526431ba34b7b760d91b60648201526084015b60405180910390fd5b6104e381611ded565b50565b6060600280546104f590612d2b565b80601f016020809104026020016040519081016040528092919081815260200182805461052190612d2b565b801561056e5780601f106105435761010080835404028352916020019161056e565b820191906000526020600020905b81548152906001019060200180831161055157829003601f168201915b50505050509050919050565b336001600160a01b038616811480159061059b57506105998682611d60565b155b156105cc5760405163711bec9160e11b81526001600160a01b038083166004830152871660248201526044016104d1565b6105d98686868686611df9565b505050505050565b60035460405163346c56c560e11b81523360048201526001600160a01b03909116906368d8ad8a90602401602060405180830381865afa158015610629573d6000803e3d6000fd5b505050506040513d601f19601f8201168201806040525081019061064d9190612d0e565b6106995760405162461bcd60e51b815260206004820152601b60248201527f43616c6c6572206973206e6f742061204469737472696275746f72000000000060448201526064016104d1565b600354604051636f499a0560e01b81526001600160a01b03858116600483015290911690636f499a0590602401602060405180830381865afa1580156106e3573d6000803e3d6000fd5b505050506040513d601f19601f820116820180604052508101906107079190612d0e565b6107535760405162461bcd60e51b815260206004820152601a60248201527f5265636569766572206973206e6f74206120506861726d61637900000000000060448201526064016104d1565b60033360009081526006602090815260408083206001600160a01b038816845290915290205460ff16600381111561078d5761078d6128fe565b146107ec5760405162461bcd60e51b815260206004820152602960248201527f54686520436f6e7472616374206973206e6f742066696e616c697a65642f7369604482015268676e6564207965742160b81b60648201526084016104d1565b600082516001600160401b0381111561080757610807612605565b604051908082528060200260200182016040528015610830578160200160208202803683370190505b50905060005b8351811015610872573382828151811061085257610852612d65565b6001600160a01b0390921660209283029190910190910152600101610836565b50600061087f8285610ea8565b905060005b81518110156109215783818151811061089f5761089f612d65565b60200260200101518282815181106108b9576108b9612d65565b602002602001015110156109195760405162461bcd60e51b815260206004820152602160248201527f4469737472696275746f723a20696e73756666696369656e742062616c616e636044820152606560f81b60648201526084016104d1565b600101610884565b5061093e338686866040518060200160405280600081525061057a565b60035460408051633c2f61f360e21b8152905142926000926001600160a01b039091169163f0bd87cc916004808201926020929091908290030181865afa15801561098d573d6000803e3d6000fd5b505050506040513d601f19601f820116820180604052508101906109b19190612d7b565b90506000600360009054906101000a90046001600160a01b03166001600160a01b031663f0c58ea76040518163ffffffff1660e01b8152600401602060405180830381865afa158015610a08573d6000803e3d6000fd5b505050506040513d601f19601f82011682018060405250810190610a2c9190612d7b565b905060005b8751811015610b26576000878281518110610a4e57610a4e612d65565b60200260200101511115610b1e5760056000898381518110610a7257610a72612d65565b60209081029190910181015182528181019290925260409081016000908120825160a081018452878152808501878152339482019485526001600160a01b038f811660608401908152608084018c8152855460018082018855968852989096209351600590980290930196875590519286019290925592516002850180546001600160a01b03199081169284169290921790559251600385018054909416911617909155516004909101555b600101610a31565b50876001600160a01b0316336001600160a01b03167f97d746d8ab141647d64f23b9b7cc4704b14d8c71c9b60aae8c278586fee86afb8986604051610b6c929190612d94565b60405180910390a35050505050505050565b60035460405163e160404160e01b81523360048201526001600160a01b039091169063e160404190602401602060405180830381865afa158015610bc6573d6000803e3d6000fd5b505050506040513d601f19601f82011682018060405250810190610bea9190612d0e565b610c475760405162461bcd60e51b815260206004820152602860248201527f496e76616c696420526f6c653a204f6e6c79204d616e7566616374757265722060448201526718d85b881b5a5b9d60c21b60648201526084016104d1565b805180610c965760405162461bcd60e51b815260206004820152601c60248201527f416d6f756e742061727261792063616e6e6f7420626520656d7074790000000060448201526064016104d1565b6004546000826001600160401b03811115610cb357610cb3612605565b604051908082528060200260200182016040528015610cdc578160200160208202803683370190505b50905060005b83811015610d1957610cf48184612dcc565b828281518110610d0657610d06612d65565b6020908102919091010152600101610ce2565b50610d3533828660405180602001604052806000815250611e60565b610d3f8383612dcc565b60045560405133907ff5d0852ff0649d85f1a5d805a5eab62adfc687f2902d76d5d3f9945885bb36b590610d74908490612b42565b60405180910390a250505050565b6040805160608082018352600080835260208301529181019190915260035460405163346c56c560e11b81523360048201526001600160a01b03909116906368d8ad8a90602401602060405180830381865afa158015610de6573d6000803e3d6000fd5b505050506040513d601f19601f82011682018060405250810190610e0a9190612d0e565b610e565760405162461bcd60e51b815260206004820152601960248201527f596f7520617265206e6f742061204469737472696275746f720000000000000060448201526064016104d1565b3360008181526006602090815260408083206001600160a01b038716808552908352928190205481516060810183529485529184019290925260ff1691908101610e9f83611e9e565b90529392505050565b60608151835114610ed95781518351604051635b05999160e01b8152600481019290925260248201526044016104d1565b600083516001600160401b03811115610ef457610ef4612605565b604051908082528060200260200182016040528015610f1d578160200160208202803683370190505b50905060005b8451811015610f6c57602080820286010151610f4790602080840287010151610397565b828281518110610f5957610f59612d65565b6020908102919091010152600101610f23565b509392505050565b60035460405163346c56c560e11b81523360048201526001600160a01b03909116906368d8ad8a90602401602060405180830381865afa158015610fbc573d6000803e3d6000fd5b505050506040513d601f19601f82011682018060405250810190610fe09190612d0e565b610ffc5760405162461bcd60e51b81526004016104d190612ddf565b600354604051636f499a0560e01b81526001600160a01b03838116600483015290911690636f499a0590602401602060405180830381865afa158015611046573d6000803e3d6000fd5b505050506040513d601f19601f8201168201806040525081019061106a9190612d0e565b6110865760405162461bcd60e51b81526004016104d190612e16565b60023360009081526006602090815260408083206001600160a01b038616845290915290205460ff1660038111156110c0576110c06128fe565b146111215760405162461bcd60e51b815260206004820152602b60248201527f506861726d61637920686173206e6f7420617070726f7665642074686520636f60448201526a6e7472616374207965742160a81b60648201526084016104d1565b3360008181526006602090815260408083206001600160a01b03861684528252808320805460ff191660031790556004548151928301909152918152909161116d918390600190611f90565b6004805490600061117d83612e4d565b909155505060035460408051633c2f61f360e21b815290516000926001600160a01b03169163f0bd87cc9160048083019260209291908290030181865afa1580156111cc573d6000803e3d6000fd5b505050506040513d601f19601f820116820180604052508101906111f09190612d7b565b6000838152600560208181526040808420815160a08101835285815280840187815281840187815233606084018181524260808601818152875460018082018a55988d529b8a902096519b909a02909501998a55925194890194909455516002880180546001600160a01b03199081166001600160a01b039384161790915591516003890180549093169116179055935160049095019490945580518781529182019290925292935090917fdf60e372b279d6f3be07b7b4497856da570a9559d241227be9545dd605261360910160405180910390a2505050565b60035460405163e160404160e01b81523360048201526001600160a01b039091169063e160404190602401602060405180830381865afa158015611313573d6000803e3d6000fd5b505050506040513d601f19601f820116820180604052508101906113379190612d0e565b6113835760405162461bcd60e51b815260206004820152601c60248201527f43616c6c6572206973206e6f742061204d616e7566616374757265720000000060448201526064016104d1565b60035460405163346c56c560e11b81526001600160a01b038381166004830152909116906368d8ad8a90602401602060405180830381865afa1580156113cd573d6000803e3d6000fd5b505050506040513d601f19601f820116820180604052508101906113f19190612d0e565b61143d5760405162461bcd60e51b815260206004820152601d60248201527f5265636569766572206973206e6f742061204469737472696275746f7200000060448201526064016104d1565b600083516001600160401b0381111561145857611458612605565b604051908082528060200260200182016040528015611481578160200160208202803683370190505b50905060005b84518110156114c357338282815181106114a3576114a3612d65565b6001600160a01b0390921660209283029190910190910152600101611487565b5060006114d08286610ea8565b905060005b8151811015611573578481815181106114f0576114f0612d65565b602002602001015182828151811061150a5761150a612d65565b6020026020010151101561156b5760405162461bcd60e51b815260206004820152602260248201527f4d616e7566616374757265723a20696e73756666696369656e742062616c616e604482015261636560f01b60648201526084016104d1565b6001016114d5565b50611590338487876040518060200160405280600081525061057a565b60035460408051630965288b60e41b8152905142926000926001600160a01b039091169163965288b0916004808201926020929091908290030181865afa1580156115df573d6000803e3d6000fd5b505050506040513d601f19601f820116820180604052508101906116039190612d7b565b90506000600360009054906101000a90046001600160a01b03166001600160a01b031663f0bd87cc6040518163ffffffff1660e01b8152600401602060405180830381865afa15801561165a573d6000803e3d6000fd5b505050506040513d601f19601f8201168201806040525081019061167e9190612d7b565b905060005b88518110156117785760008882815181106116a0576116a0612d65565b6020026020010151111561177057600560008a83815181106116c4576116c4612d65565b60209081029190910181015182528181019290925260409081016000908120825160a081018452878152808501878152339482019485526001600160a01b038d811660608401908152608084018c8152855460018082018855968852989096209351600590980290930196875590519286019290925592516002850180546001600160a01b03199081169284169290921790559251600385018054909416911617909155516004909101555b600101611683565b50856001600160a01b0316336001600160a01b03167fd62dac799945d16976cbf4cb0f96270d60dcb458eb78a7a42280bbaacbfd3d208a86604051610b6c929190612d94565b60035460405163346c56c560e11b81526001600160a01b038381166004830152909116906368d8ad8a90602401602060405180830381865afa158015611808573d6000803e3d6000fd5b505050506040513d601f19601f8201168201806040525081019061182c9190612d0e565b6118485760405162461bcd60e51b81526004016104d190612ddf565b600354604051636f499a0560e01b81523360048201526001600160a01b0390911690636f499a0590602401602060405180830381865afa158015611890573d6000803e3d6000fd5b505050506040513d601f19601f820116820180604052508101906118b49190612d0e565b6118d05760405162461bcd60e51b81526004016104d190612e16565b60016001600160a01b038216600090815260066020908152604080832033845290915290205460ff16600381111561190a5761190a6128fe565b1461197d5760405162461bcd60e51b815260206004820152603760248201527f4e6f2070656e64696e6720636f6e7472616374207265717565737420666f756e60448201527f642066726f6d2074686973204469737472696275746f7200000000000000000060648201526084016104d1565b6001600160a01b03811660008181526006602090815260408083203380855290835292819020805460ff19166002179055514281527f3300720aa372e0c4182392c95de997ea568acf7ad30b0dc6834e797ca1ab2df591015b60405180910390a350565b6119ec338383611fed565b5050565b60035460405163346c56c560e11b81523360048201526001600160a01b03909116906368d8ad8a90602401602060405180830381865afa158015611a38573d6000803e3d6000fd5b505050506040513d601f19601f82011682018060405250810190611a5c9190612d0e565b611a785760405162461bcd60e51b81526004016104d190612ddf565b600354604051636f499a0560e01b81526001600160a01b03838116600483015290911690636f499a0590602401602060405180830381865afa158015611ac2573d6000803e3d6000fd5b505050506040513d601f19601f82011682018060405250810190611ae69190612d0e565b611b025760405162461bcd60e51b81526004016104d190612e16565b3360009081526006602090815260408083206001600160a01b038516845290915281205460ff166003811115611b3a57611b3a6128fe565b14611b955760405162461bcd60e51b815260206004820152602560248201527f436f6e747261637420616c726561647920657869737473206f722069732070656044820152646e64696e6760d81b60648201526084016104d1565b3360008181526006602090815260408083206001600160a01b03861680855290835292819020805460ff19166001179055514281529192917fba28a869d4fd0a8a0729a38e9ba270e01a52f27bbafe9c7627b8a557467d696891016119d6565b606060056000838152602001908152602001600020805480602002602001604051908101604052809291908181526020016000905b82821015611c965760008481526020908190206040805160a08101825260058602909201805483526001808201548486015260028201546001600160a01b0390811693850193909352600382015490921660608401526004015460808301529083529092019101611c2a565b505050509050919050565b604080516060808201835260008083526020830152918101919091526001600160a01b038216600081815260066020908152604080832033808552908352928190205481516060810183529485529184019290925260ff1691908101610e9f83611e9e565b60056020528160005260406000208181548110611d2257600080fd5b6000918252602090912060059091020180546001820154600283015460038401546004909401549295509093506001600160a01b0390811692169085565b6001600160a01b03918216600090815260016020908152604080832093909416825291909152205460ff1690565b336001600160a01b0386168114801590611daf5750611dad8682611d60565b155b15611de05760405163711bec9160e11b81526001600160a01b038083166004830152871660248201526044016104d1565b6105d98686868686612083565b60026119ec8282612eb2565b6001600160a01b038416611e2357604051632bfa23e760e11b8152600060048201526024016104d1565b6001600160a01b038516611e4c57604051626a0d4560e21b8152600060048201526024016104d1565b611e598585858585612111565b5050505050565b6001600160a01b038416611e8a57604051632bfa23e760e11b8152600060048201526024016104d1565b611e98600085858585612111565b50505050565b60606003826003811115611eb457611eb46128fe565b03611edb57505060408051808201909152600681526514da59db995960d21b602082015290565b6002826003811115611eef57611eef6128fe565b03611f2d57505060408051808201909152601b81527f417070726f766564202857616974696e672046696e616c697a65290000000000602082015290565b6001826003811115611f4157611f416128fe565b03611f6957505060408051808201909152600781526650656e64696e6760c81b602082015290565b505060408051808201909152600b81526a139bdd0810dc99585d195960aa1b602082015290565b6001600160a01b038416611fba57604051632bfa23e760e11b8152600060048201526024016104d1565b604080516001808252602082018690528183019081526060820185905260808201909252906105d9600087848487612111565b6001600160a01b0382166120165760405162ced3e160e81b8152600060048201526024016104d1565b6001600160a01b03838116600081815260016020908152604080832094871680845294825291829020805460ff191686151590811790915591519182527f17307eab39ab6107e8899845ad3d59bd9653f200f220920489ca2b5937696c31910160405180910390a3505050565b6001600160a01b0384166120ad57604051632bfa23e760e11b8152600060048201526024016104d1565b6001600160a01b0385166120d657604051626a0d4560e21b8152600060048201526024016104d1565b604080516001808252602082018690528183019081526060820185905260808201909252906121088787848487612111565b50505050505050565b61211d85858585612164565b6001600160a01b03841615611e595782513390600103612156576020848101519084015161214f838989858589612378565b50506105d9565b6105d981878787878761249c565b80518251146121935781518151604051635b05999160e01b8152600481019290925260248201526044016104d1565b3360005b8351811015612299576020818102858101820151908501909101516001600160a01b0388161561224a576000828152602081815260408083206001600160a01b038c16845290915290205481811015612223576040516303dee4c560e01b81526001600160a01b038a1660048201526024810182905260448101839052606481018490526084016104d1565b6000838152602081815260408083206001600160a01b038d16845290915290209082900390555b6001600160a01b0387161561228f576000828152602081815260408083206001600160a01b038b16845290915281208054839290612289908490612dcc565b90915550505b5050600101612197565b50825160010361231a5760208301516000906020840151909150856001600160a01b0316876001600160a01b0316846001600160a01b03167fc3d58168c5ae7397731d063d5bbf3d657854427343f4c083240f7aacaa2d0f62858560405161230b929190918252602082015260400190565b60405180910390a45050611e59565b836001600160a01b0316856001600160a01b0316826001600160a01b03167f4a39dc06d4c0dbc64b70af90fd698a233a518aa5d07e595d983b8c0526c8f7fb8686604051612369929190612f70565b60405180910390a45050505050565b6001600160a01b0384163b156105d95760405163f23a6e6160e01b81526001600160a01b0385169063f23a6e61906123bc9089908990889088908890600401612f9e565b6020604051808303816000875af19250505080156123f7575060408051601f3d908101601f191682019092526123f491810190612fe3565b60015b612460573d808015612425576040519150601f19603f3d011682016040523d82523d6000602084013e61242a565b606091505b50805160000361245857604051632bfa23e760e11b81526001600160a01b03861660048201526024016104d1565b805160208201fd5b6001600160e01b0319811663f23a6e6160e01b1461210857604051632bfa23e760e11b81526001600160a01b03861660048201526024016104d1565b6001600160a01b0384163b156105d95760405163bc197c8160e01b81526001600160a01b0385169063bc197c81906124e09089908990889088908890600401613000565b6020604051808303816000875af192505050801561251b575060408051601f3d908101601f1916820190925261251891810190612fe3565b60015b612549573d808015612425576040519150601f19603f3d011682016040523d82523d6000602084013e61242a565b6001600160e01b0319811663bc197c8160e01b1461210857604051632bfa23e760e11b81526001600160a01b03861660048201526024016104d1565b80356001600160a01b038116811461259c57600080fd5b919050565b600080604083850312156125b457600080fd5b6125bd83612585565b946020939093013593505050565b6001600160e01b0319811681146104e357600080fd5b6000602082840312156125f357600080fd5b81356125fe816125cb565b9392505050565b634e487b7160e01b600052604160045260246000fd5b604051601f8201601f191681016001600160401b038111828210171561264357612643612605565b604052919050565b6000806001600160401b0384111561266557612665612605565b50601f8301601f191660200161267a8161261b565b91505082815283838301111561268f57600080fd5b828260208301376000602084830101529392505050565b6000602082840312156126b857600080fd5b81356001600160401b038111156126ce57600080fd5b8201601f810184136126df57600080fd5b6126ee8482356020840161264b565b949350505050565b60006020828403121561270857600080fd5b5035919050565b6000815180845260005b8181101561273557602081850181015186830182015201612719565b506000602082860101526020601f19601f83011685010191505092915050565b6020815260006125fe602083018461270f565b60006001600160401b0382111561278157612781612605565b5060051b60200190565b600082601f83011261279c57600080fd5b81356127af6127aa82612768565b61261b565b8082825260208201915060208360051b8601019250858311156127d157600080fd5b602085015b838110156127ee5780358352602092830192016127d6565b5095945050505050565b600082601f83011261280957600080fd5b6125fe8383356020850161264b565b600080600080600060a0868803121561283057600080fd5b61283986612585565b945061284760208701612585565b935060408601356001600160401b0381111561286257600080fd5b61286e8882890161278b565b93505060608601356001600160401b0381111561288a57600080fd5b6128968882890161278b565b92505060808601356001600160401b038111156128b257600080fd5b6128be888289016127f8565b9150509295509295909350565b600080604083850312156128de57600080fd5b6128e783612585565b91506128f560208401612585565b90509250929050565b634e487b7160e01b600052602160045260246000fd5b602081016004831061293657634e487b7160e01b600052602160045260246000fd5b91905290565b60008060006060848603121561295157600080fd5b61295a84612585565b925060208401356001600160401b0381111561297557600080fd5b6129818682870161278b565b92505060408401356001600160401b0381111561299d57600080fd5b6129a98682870161278b565b9150509250925092565b6000602082840312156129c557600080fd5b81356001600160401b038111156129db57600080fd5b6126ee8482850161278b565b6000602082840312156129f957600080fd5b6125fe82612585565b602080825282516001600160a01b039081168383015290830151166040808301919091528201516060808301526000906126ee608084018261270f565b60008060408385031215612a5257600080fd5b82356001600160401b03811115612a6857600080fd5b8301601f81018513612a7957600080fd5b8035612a876127aa82612768565b8082825260208201915060208360051b850101925087831115612aa957600080fd5b6020840193505b82841015612ad257612ac184612585565b825260209384019390910190612ab0565b945050505060208301356001600160401b03811115612af057600080fd5b612afc8582860161278b565b9150509250929050565b600081518084526020840193506020830160005b82811015612b38578151865260209586019590910190600101612b1a565b5093949350505050565b6020815260006125fe6020830184612b06565b600080600060608486031215612b6a57600080fd5b83356001600160401b03811115612b8057600080fd5b612b8c8682870161278b565b93505060208401356001600160401b03811115612ba857600080fd5b612bb48682870161278b565b925050612bc360408501612585565b90509250925092565b80151581146104e357600080fd5b60008060408385031215612bed57600080fd5b612bf683612585565b91506020830135612c0681612bcc565b809150509250929050565b602080825282518282018190526000918401906040840190835b81811015612c89578351805184526020810151602085015260018060a01b03604082015116604085015260018060a01b036060820151166060850152608081015160808501525060a083019250602084019350600181019050612c2b565b509095945050505050565b60008060408385031215612ca757600080fd5b50508035926020909101359150565b600080600080600060a08688031215612cce57600080fd5b612cd786612585565b9450612ce560208701612585565b9350604086013592506060860135915060808601356001600160401b038111156128b257600080fd5b600060208284031215612d2057600080fd5b81516125fe81612bcc565b600181811c90821680612d3f57607f821691505b602082108103612d5f57634e487b7160e01b600052602260045260246000fd5b50919050565b634e487b7160e01b600052603260045260246000fd5b600060208284031215612d8d57600080fd5b5051919050565b604081526000612da76040830185612b06565b90508260208301529392505050565b634e487b7160e01b600052601160045260246000fd5b808201808211156103b9576103b9612db6565b6020808252601c908201527f41646472657373206973206e6f742061206469737472696275746f7200000000604082015260600190565b60208082526019908201527f41646472657373206973206e6f74206120506861726d61637900000000000000604082015260600190565b600060018201612e5f57612e5f612db6565b5060010190565b601f821115612ead57806000526020600020601f840160051c81016020851015612e8d5750805b601f840160051c820191505b81811015611e595760008155600101612e99565b505050565b81516001600160401b03811115612ecb57612ecb612605565b612edf81612ed98454612d2b565b84612e66565b6020601f821160018114612f135760008315612efb5750848201515b600019600385901b1c1916600184901b178455611e59565b600084815260208120601f198516915b82811015612f435787850151825560209485019460019092019101612f23565b5084821015612f615786840151600019600387901b60f8161c191681555b50505050600190811b01905550565b604081526000612f836040830185612b06565b8281036020840152612f958185612b06565b95945050505050565b6001600160a01b03868116825285166020820152604081018490526060810183905260a060808201819052600090612fd89083018461270f565b979650505050505050565b600060208284031215612ff557600080fd5b81516125fe816125cb565b6001600160a01b0386811682528516602082015260a06040820181905260009061302c90830186612b06565b828103606084015261303e8186612b06565b90508281036080840152613052818561270f565b9897505050505050505056fea26469706673582212209fdfb31609c8e8ddbffd3f5749a8be0c323e276e3a094c689276cd47e42c73bd64736f6c634300081c0033",
  "linkReferences": {},
  "deployedLinkReferences": {}
}