{
  "_format": "hh-sol-artifact-1",
  "contractName": "MyNFT",
  "sourceName": "contracts/myNFT.sol",
  "abi": [
    {
      "inputs": [
        {
          "internalType": "address",
          "name": "_accessControlAddress",
          "type": "address"
        },
        {
          "internalType": "string",
          "name": "_uri",
          "type": "string"
        }
      ],
      "stateMutability": "nonpayable",
      "type": "constructor"
    },
    {
      "inputs": [
        {
          "internalType": "address",
          "name": "sender",
          "type": "address"
        },
        {
          "internalType": "uint256",
          "name": "balance",
          "type": "uint256"
        },
        {
          "internalType": "uint256",
          "name": "needed",
          "type": "uint256"
        },
        {
          "internalType": "uint256",
          "name": "tokenId",
          "type": "uint256"
        }
      ],
      "name": "ERC1155InsufficientBalance",
      "type": "error"
    },
    {
      "inputs": [
        {
          "internalType": "address",
          "name": "approver",
          "type": "address"
        }
      ],
      "name": "ERC1155InvalidApprover",
      "type": "error"
    },
    {
      "inputs": [
        {
          "internalType": "uint256",
          "name": "idsLength",
          "type": "uint256"
        },
        {
          "internalType": "uint256",
          "name": "valuesLength",
          "type": "uint256"
        }
      ],
      "name": "ERC1155InvalidArrayLength",
      "type": "error"
    },
    {
      "inputs": [
        {
          "internalType": "address",
          "name": "operator",
          "type": "address"
        }
      ],
      "name": "ERC1155InvalidOperator",
      "type": "error"
    },
    {
      "inputs": [
        {
          "internalType": "address",
          "name": "receiver",
          "type": "address"
        }
      ],
      "name": "ERC1155InvalidReceiver",
      "type": "error"
    },
    {
      "inputs": [
        {
          "internalType": "address",
          "name": "sender",
          "type": "address"
        }
      ],
      "name": "ERC1155InvalidSender",
      "type": "error"
    },
    {
      "inputs": [
        {
          "internalType": "address",
          "name": "operator",
          "type": "address"
        },
        {
          "internalType": "address",
          "name": "owner",
          "type": "address"
        }
      ],
      "name": "ERC1155MissingApprovalForAll",
      "type": "error"
    },
    {
      "anonymous": false,
      "inputs": [
        {
          "indexed": true,
          "internalType": "address",
          "name": "account",
          "type": "address"
        },
        {
          "indexed": true,
          "internalType": "address",
          "name": "operator",
          "type": "address"
        },
        {
          "indexed": false,
          "internalType": "bool",
          "name": "approved",
          "type": "bool"
        }
      ],
      "name": "ApprovalForAll",
      "type": "event"
    },
    {
      "anonymous": false,
      "inputs": [
        {
          "indexed": true,
          "internalType": "address",
          "name": "distributorAddress",
          "type": "address"
        },
        {
          "indexed": true,
          "internalType": "address",
          "name": "pharmacyAddress",
          "type": "address"
        },
        {
          "indexed": false,
          "internalType": "uint256[]",
          "name": "tokenIds",
          "type": "uint256[]"
        },
        {
          "indexed": false,
          "internalType": "uint256",
          "name": "receivedTimestamp",
          "type": "uint256"
        }
      ],
      "name": "DistributorToPharmacy",
      "type": "event"
    },
    {
      "anonymous": false,
      "inputs": [
        {
          "indexed": true,
          "internalType": "address",
          "name": "manufacturerAddress",
          "type": "address"
        },
        {
          "indexed": true,
          "internalType": "address",
          "name": "distributorAddress",
          "type": "address"
        },
        {
          "indexed": false,
          "internalType": "uint256[]",
          "name": "tokenIds",
          "type": "uint256[]"
        },
        {
          "indexed": false,
          "internalType": "uint256",
          "name": "receivedTimestamp",
          "type": "uint256"
        }
      ],
      "name": "ManufacturerToDistributor",
      "type": "event"
    },
    {
      "anonymous": false,
      "inputs": [
        {
          "indexed": true,
          "internalType": "address",
          "name": "operator",
          "type": "address"
        },
        {
          "indexed": true,
          "internalType": "address",
          "name": "from",
          "type": "address"
        },
        {
          "indexed": true,
          "internalType": "address",
          "name": "to",
          "type": "address"
        },
        {
          "indexed": false,
          "internalType": "uint256[]",
          "name": "ids",
          "type": "uint256[]"
        },
        {
          "indexed": false,
          "internalType": "uint256[]",
          "name": "values",
          "type": "uint256[]"
        }
      ],
      "name": "TransferBatch",
      "type": "event"
    },
    {
      "anonymous": false,
      "inputs": [
        {
          "indexed": true,
          "internalType": "address",
          "name": "operator",
          "type": "address"
        },
        {
          "indexed": true,
          "internalType": "address",
          "name": "from",
          "type": "address"
        },
        {
          "indexed": true,
          "internalType": "address",
          "name": "to",
          "type": "address"
        },
        {
          "indexed": false,
          "internalType": "uint256",
          "name": "id",
          "type": "uint256"
        },
        {
          "indexed": false,
          "internalType": "uint256",
          "name": "value",
          "type": "uint256"
        }
      ],
      "name": "TransferSingle",
      "type": "event"
    },
    {
      "anonymous": false,
      "inputs": [
        {
          "indexed": false,
          "internalType": "string",
          "name": "value",
          "type": "string"
        },
        {
          "indexed": true,
          "internalType": "uint256",
          "name": "id",
          "type": "uint256"
        }
      ],
      "name": "URI",
      "type": "event"
    },
    {
      "anonymous": false,
      "inputs": [
        {
          "indexed": true,
          "internalType": "address",
          "name": "manufactureAddress",
          "type": "address"
        },
        {
          "indexed": false,
          "internalType": "uint256[]",
          "name": "tokenIds",
          "type": "uint256[]"
        }
      ],
      "name": "mintNFTEvent",
      "type": "event"
    },
    {
      "inputs": [],
      "name": "accessControlServiceObj",
      "outputs": [
        {
          "internalType": "contract accessControlService",
          "name": "",
          "type": "address"
        }
      ],
      "stateMutability": "view",
      "type": "function"
    },
    {
      "inputs": [
        {
          "internalType": "address",
          "name": "account",
          "type": "address"
        },
        {
          "internalType": "uint256",
          "name": "id",
          "type": "uint256"
        }
      ],
      "name": "balanceOf",
      "outputs": [
        {
          "internalType": "uint256",
          "name": "",
          "type": "uint256"
        }
      ],
      "stateMutability": "view",
      "type": "function"
    },
    {
      "inputs": [
        {
          "internalType": "address[]",
          "name": "accounts",
          "type": "address[]"
        },
        {
          "internalType": "uint256[]",
          "name": "ids",
          "type": "uint256[]"
        }
      ],
      "name": "balanceOfBatch",
      "outputs": [
        {
          "internalType": "uint256[]",
          "name": "",
          "type": "uint256[]"
        }
      ],
      "stateMutability": "view",
      "type": "function"
    },
    {
      "inputs": [
        {
          "internalType": "address",
          "name": "pharmaAddress",
          "type": "address"
        },
        {
          "internalType": "uint256[]",
          "name": "tokenIds",
          "type": "uint256[]"
        },
        {
          "internalType": "uint256[]",
          "name": "amount",
          "type": "uint256[]"
        }
      ],
      "name": "distributorTransferToPharmacy",
      "outputs": [],
      "stateMutability": "nonpayable",
      "type": "function"
    },
    {
      "inputs": [
        {
          "internalType": "uint256",
          "name": "tokenId",
          "type": "uint256"
        }
      ],
      "name": "getTrackingHistory",
      "outputs": [
        {
          "components": [
            {
              "internalType": "bytes32",
              "name": "fromUserType",
              "type": "bytes32"
            },
            {
              "internalType": "bytes32",
              "name": "toUserType",
              "type": "bytes32"
            },
            {
              "internalType": "address",
              "name": "fromUserAddress",
              "type": "address"
            },
            {
              "internalType": "address",
              "name": "toUserAddress",
              "type": "address"
            },
            {
              "internalType": "uint256",
              "name": "recivedtimeSpan",
              "type": "uint256"
            }
          ],
          "internalType": "struct AddressTracking[]",
          "name": "",
          "type": "tuple[]"
        }
      ],
      "stateMutability": "view",
      "type": "function"
    },
    {
      "inputs": [
        {
          "internalType": "address",
          "name": "account",
          "type": "address"
        },
        {
          "internalType": "address",
          "name": "operator",
          "type": "address"
        }
      ],
      "name": "isApprovedForAll",
      "outputs": [
        {
          "internalType": "bool",
          "name": "",
          "type": "bool"
        }
      ],
      "stateMutability": "view",
      "type": "function"
    },
    {
      "inputs": [
        {
          "internalType": "uint256[]",
          "name": "tokenIds",
          "type": "uint256[]"
        },
        {
          "internalType": "uint256[]",
          "name": "amount",
          "type": "uint256[]"
        },
        {
          "internalType": "address",
          "name": "distributorAddress",
          "type": "address"
        }
      ],
      "name": "manufacturerTransferToDistributor",
      "outputs": [],
      "stateMutability": "nonpayable",
      "type": "function"
    },
    {
      "inputs": [
        {
          "internalType": "uint256[]",
          "name": "amounts",
          "type": "uint256[]"
        }
      ],
      "name": "mintNFT",
      "outputs": [],
      "stateMutability": "nonpayable",
      "type": "function"
    },
    {
      "inputs": [
        {
          "internalType": "address",
          "name": "from",
          "type": "address"
        },
        {
          "internalType": "address",
          "name": "to",
          "type": "address"
        },
        {
          "internalType": "uint256[]",
          "name": "ids",
          "type": "uint256[]"
        },
        {
          "internalType": "uint256[]",
          "name": "values",
          "type": "uint256[]"
        },
        {
          "internalType": "bytes",
          "name": "data",
          "type": "bytes"
        }
      ],
      "name": "safeBatchTransferFrom",
      "outputs": [],
      "stateMutability": "nonpayable",
      "type": "function"
    },
    {
      "inputs": [
        {
          "internalType": "address",
          "name": "from",
          "type": "address"
        },
        {
          "internalType": "address",
          "name": "to",
          "type": "address"
        },
        {
          "internalType": "uint256",
          "name": "id",
          "type": "uint256"
        },
        {
          "internalType": "uint256",
          "name": "value",
          "type": "uint256"
        },
        {
          "internalType": "bytes",
          "name": "data",
          "type": "bytes"
        }
      ],
      "name": "safeTransferFrom",
      "outputs": [],
      "stateMutability": "nonpayable",
      "type": "function"
    },
    {
      "inputs": [
        {
          "internalType": "address",
          "name": "operator",
          "type": "address"
        },
        {
          "internalType": "bool",
          "name": "approved",
          "type": "bool"
        }
      ],
      "name": "setApprovalForAll",
      "outputs": [],
      "stateMutability": "nonpayable",
      "type": "function"
    },
    {
      "inputs": [
        {
          "internalType": "string",
          "name": "_uri",
          "type": "string"
        }
      ],
      "name": "setURI",
      "outputs": [],
      "stateMutability": "nonpayable",
      "type": "function"
    },
    {
      "inputs": [
        {
          "internalType": "bytes4",
          "name": "interfaceId",
          "type": "bytes4"
        }
      ],
      "name": "supportsInterface",
      "outputs": [
        {
          "internalType": "bool",
          "name": "",
          "type": "bool"
        }
      ],
      "stateMutability": "view",
      "type": "function"
    },
    {
      "inputs": [
        {
          "internalType": "uint256",
          "name": "",
          "type": "uint256"
        },
        {
          "internalType": "uint256",
          "name": "",
          "type": "uint256"
        }
      ],
      "name": "tokenIdTravelInfos",
      "outputs": [
        {
          "internalType": "bytes32",
          "name": "fromUserType",
          "type": "bytes32"
        },
        {
          "internalType": "bytes32",
          "name": "toUserType",
          "type": "bytes32"
        },
        {
          "internalType": "address",
          "name": "fromUserAddress",
          "type": "address"
        },
        {
          "internalType": "address",
          "name": "toUserAddress",
          "type": "address"
        },
        {
          "internalType": "uint256",
          "name": "recivedtimeSpan",
          "type": "uint256"
        }
      ],
      "stateMutability": "view",
      "type": "function"
    },
    {
      "inputs": [
        {
          "internalType": "uint256",
          "name": "",
          "type": "uint256"
        }
      ],
      "name": "uri",
      "outputs": [
        {
          "internalType": "string",
          "name": "",
          "type": "string"
        }
      ],
      "stateMutability": "view",
      "type": "function"
    }
  ],
  "bytecode": "0x6080604052600160045534801561001557600080fd5b506040516125a53803806125a5833981016040819052610034916100e5565b8061003e816100bf565b506001600160a01b0382166100995760405162461bcd60e51b815260206004820152601e60248201527f496e76616c69642061636365737320636f6e74726f6c20616464726573730000604482015260640160405180910390fd5b50600380546001600160a01b0319166001600160a01b0392909216919091179055610318565b60026100cb828261025a565b5050565b634e487b7160e01b600052604160045260246000fd5b600080604083850312156100f857600080fd5b82516001600160a01b038116811461010f57600080fd5b60208401519092506001600160401b0381111561012b57600080fd5b8301601f8101851361013c57600080fd5b80516001600160401b03811115610155576101556100cf565b604051601f8201601f19908116603f011681016001600160401b0381118282101715610183576101836100cf565b60405281815282820160200187101561019b57600080fd5b60005b828110156101ba5760208185018101518383018201520161019e565b506000602083830101528093505050509250929050565b600181811c908216806101e557607f821691505b60208210810361020557634e487b7160e01b600052602260045260246000fd5b50919050565b601f82111561025557806000526020600020601f840160051c810160208510156102325750805b601f840160051c820191505b81811015610252576000815560010161023e565b50505b505050565b81516001600160401b03811115610273576102736100cf565b6102878161028184546101d1565b8461020b565b6020601f8211600181146102bb57600083156102a35750848201515b600019600385901b1c1916600184901b178455610252565b600084815260208120601f198516915b828110156102eb57878501518255602094850194600190920191016102cb565b50848210156103095786840151600019600387901b60f8161c191681555b50505050600190811b01905550565b61227e806103276000396000f3fe608060405234801561001057600080fd5b50600436106100f45760003560e01c80634e1273f411610097578063c36034e211610066578063c36034e214610221578063e0c8386714610241578063e985e9c514610288578063f242432a1461029b57600080fd5b80634e1273f4146101b0578063684facce146101d057806399cd9a3e146101fb578063a22cb4651461020e57600080fd5b80630e89341c116100d35780630e89341c146101575780632eb2c2d61461017757806340b3124f1461018a57806342e074d11461019d57600080fd5b8062fdd58e146100f957806301ffc9a71461011f57806302fe530514610142575b600080fd5b61010c6101073660046119ba565b6102ae565b6040519081526020015b60405180910390f35b61013261012d3660046119fa565b6102d6565b6040519015158152602001610116565b610155610150366004611abf565b610326565b005b61016a610165366004611b0f565b6103fd565b6040516101169190611b6e565b610155610185366004611c31565b610491565b610155610198366004611ce4565b6104f8565b6101556101ab366004611d5b565b6109fc565b6101c36101be366004611d8f565b610c00565b6040516101169190611e92565b6003546101e3906001600160a01b031681565b6040516001600160a01b039091168152602001610116565b610155610209366004611ea5565b610ccc565b61015561021c366004611f2a565b6111bf565b61023461022f366004611b0f565b6111ce565b6040516101169190611f61565b61025461024f366004611fe4565b61127a565b6040805195865260208601949094526001600160a01b0392831693850193909352166060830152608082015260a001610116565b610132610296366004612006565b6112d4565b6101556102a9366004612039565b611302565b6000818152602081815260408083206001600160a01b03861684529091529020545b92915050565b60006001600160e01b03198216636cdb3d1360e11b148061030757506001600160e01b031982166303a24d0760e21b145b806102d057506301ffc9a760e01b6001600160e01b03198316146102d0565b600354604051630935e01b60e21b81523360048201526001600160a01b03909116906324d7806c90602401602060405180830381865afa15801561036e573d6000803e3d6000fd5b505050506040513d601f19601f820116820180604052508101906103929190612091565b6103f15760405162461bcd60e51b815260206004820152602560248201527f596f75204d7573742062652041646d696e20746f20646f20746869732066756e60448201526431ba34b7b760d91b60648201526084015b60405180910390fd5b6103fa81610326565b50565b60606002805461040c906120ae565b80601f0160208091040260200160405190810160405280929190818152602001828054610438906120ae565b80156104855780601f1061045a57610100808354040283529160200191610485565b820191906000526020600020905b81548152906001019060200180831161046857829003601f168201915b50505050509050919050565b336001600160a01b03861681148015906104b257506104b086826112d4565b155b156104e35760405163711bec9160e11b81526001600160a01b038083166004830152871660248201526044016103e8565b6104f08686868686611361565b505050505050565b60035460405163346c56c560e11b81523360048201526001600160a01b03909116906368d8ad8a90602401602060405180830381865afa158015610540573d6000803e3d6000fd5b505050506040513d601f19601f820116820180604052508101906105649190612091565b6105b05760405162461bcd60e51b815260206004820152601b60248201527f43616c6c6572206973206e6f742061204469737472696275746f72000000000060448201526064016103e8565b600354604051636f499a0560e01b81526001600160a01b03858116600483015290911690636f499a0590602401602060405180830381865afa1580156105fa573d6000803e3d6000fd5b505050506040513d601f19601f8201168201806040525081019061061e9190612091565b61066a5760405162461bcd60e51b815260206004820152601a60248201527f5265636569766572206973206e6f74206120506861726d61637900000000000060448201526064016103e8565b600082516001600160401b0381111561068557610685611a1e565b6040519080825280602002602001820160405280156106ae578160200160208202803683370190505b50905060005b83518110156106f057338282815181106106d0576106d06120e8565b6001600160a01b03909216602092830291909101909101526001016106b4565b5060006106fd8285610c00565b905060005b815181101561079f5783818151811061071d5761071d6120e8565b6020026020010151828281518110610737576107376120e8565b602002602001015110156107975760405162461bcd60e51b815260206004820152602160248201527f4469737472696275746f723a20696e73756666696369656e742062616c616e636044820152606560f81b60648201526084016103e8565b600101610702565b506107bc3386868660405180602001604052806000815250610491565b60035460408051633c2f61f360e21b8152905142926000926001600160a01b039091169163f0bd87cc916004808201926020929091908290030181865afa15801561080b573d6000803e3d6000fd5b505050506040513d601f19601f8201168201806040525081019061082f91906120fe565b90506000600360009054906101000a90046001600160a01b03166001600160a01b031663f0c58ea76040518163ffffffff1660e01b8152600401602060405180830381865afa158015610886573d6000803e3d6000fd5b505050506040513d601f19601f820116820180604052508101906108aa91906120fe565b905060005b87518110156109a45760008782815181106108cc576108cc6120e8565b6020026020010151111561099c57600560008983815181106108f0576108f06120e8565b60209081029190910181015182528181019290925260409081016000908120825160a081018452878152808501878152339482019485526001600160a01b038f811660608401908152608084018c8152855460018082018855968852989096209351600590980290930196875590519286019290925592516002850180546001600160a01b03199081169284169290921790559251600385018054909416911617909155516004909101555b6001016108af565b50876001600160a01b0316336001600160a01b03167f97d746d8ab141647d64f23b9b7cc4704b14d8c71c9b60aae8c278586fee86afb89866040516109ea929190612117565b60405180910390a35050505050505050565b60035460405163e160404160e01b81523360048201526001600160a01b039091169063e160404190602401602060405180830381865afa158015610a44573d6000803e3d6000fd5b505050506040513d601f19601f82011682018060405250810190610a689190612091565b610ac55760405162461bcd60e51b815260206004820152602860248201527f496e76616c696420526f6c653a204f6e6c79204d616e7566616374757265722060448201526718d85b881b5a5b9d60c21b60648201526084016103e8565b805180610b145760405162461bcd60e51b815260206004820152601c60248201527f416d6f756e742061727261792063616e6e6f7420626520656d7074790000000060448201526064016103e8565b6004546000826001600160401b03811115610b3157610b31611a1e565b604051908082528060200260200182016040528015610b5a578160200160208202803683370190505b50905060005b83811015610b9757610b728184612139565b828281518110610b8457610b846120e8565b6020908102919091010152600101610b60565b50610bb3338286604051806020016040528060008152506113c8565b610bbd8383612139565b60045560405133907ff5d0852ff0649d85f1a5d805a5eab62adfc687f2902d76d5d3f9945885bb36b590610bf2908490611e92565b60405180910390a250505050565b60608151835114610c315781518351604051635b05999160e01b8152600481019290925260248201526044016103e8565b600083516001600160401b03811115610c4c57610c4c611a1e565b604051908082528060200260200182016040528015610c75578160200160208202803683370190505b50905060005b8451811015610cc457602080820286010151610c9f906020808402870101516102ae565b828281518110610cb157610cb16120e8565b6020908102919091010152600101610c7b565b509392505050565b60035460405163e160404160e01b81523360048201526001600160a01b039091169063e160404190602401602060405180830381865afa158015610d14573d6000803e3d6000fd5b505050506040513d601f19601f82011682018060405250810190610d389190612091565b610d845760405162461bcd60e51b815260206004820152601c60248201527f43616c6c6572206973206e6f742061204d616e7566616374757265720000000060448201526064016103e8565b60035460405163346c56c560e11b81526001600160a01b038381166004830152909116906368d8ad8a90602401602060405180830381865afa158015610dce573d6000803e3d6000fd5b505050506040513d601f19601f82011682018060405250810190610df29190612091565b610e3e5760405162461bcd60e51b815260206004820152601d60248201527f5265636569766572206973206e6f742061204469737472696275746f7200000060448201526064016103e8565b600083516001600160401b03811115610e5957610e59611a1e565b604051908082528060200260200182016040528015610e82578160200160208202803683370190505b50905060005b8451811015610ec45733828281518110610ea457610ea46120e8565b6001600160a01b0390921660209283029190910190910152600101610e88565b506000610ed18286610c00565b905060005b8151811015610f7457848181518110610ef157610ef16120e8565b6020026020010151828281518110610f0b57610f0b6120e8565b60200260200101511015610f6c5760405162461bcd60e51b815260206004820152602260248201527f4d616e7566616374757265723a20696e73756666696369656e742062616c616e604482015261636560f01b60648201526084016103e8565b600101610ed6565b50610f913384878760405180602001604052806000815250610491565b60035460408051630965288b60e41b8152905142926000926001600160a01b039091169163965288b0916004808201926020929091908290030181865afa158015610fe0573d6000803e3d6000fd5b505050506040513d601f19601f8201168201806040525081019061100491906120fe565b90506000600360009054906101000a90046001600160a01b03166001600160a01b031663f0bd87cc6040518163ffffffff1660e01b8152600401602060405180830381865afa15801561105b573d6000803e3d6000fd5b505050506040513d601f19601f8201168201806040525081019061107f91906120fe565b905060005b88518110156111795760008882815181106110a1576110a16120e8565b6020026020010151111561117157600560008a83815181106110c5576110c56120e8565b60209081029190910181015182528181019290925260409081016000908120825160a081018452878152808501878152339482019485526001600160a01b038d811660608401908152608084018c8152855460018082018855968852989096209351600590980290930196875590519286019290925592516002850180546001600160a01b03199081169284169290921790559251600385018054909416911617909155516004909101555b600101611084565b50856001600160a01b0316336001600160a01b03167fd62dac799945d16976cbf4cb0f96270d60dcb458eb78a7a42280bbaacbfd3d208a866040516109ea929190612117565b6111ca338383611406565b5050565b606060056000838152602001908152602001600020805480602002602001604051908101604052809291908181526020016000905b8282101561126f5760008481526020908190206040805160a08101825260058602909201805483526001808201548486015260028201546001600160a01b0390811693850193909352600382015490921660608401526004015460808301529083529092019101611203565b505050509050919050565b6005602052816000526040600020818154811061129657600080fd5b6000918252602090912060059091020180546001820154600283015460038401546004909401549295509093506001600160a01b0390811692169085565b6001600160a01b03918216600090815260016020908152604080832093909416825291909152205460ff1690565b336001600160a01b0386168114801590611323575061132186826112d4565b155b156113545760405163711bec9160e11b81526001600160a01b038083166004830152871660248201526044016103e8565b6104f0868686868661149c565b6001600160a01b03841661138b57604051632bfa23e760e11b8152600060048201526024016103e8565b6001600160a01b0385166113b457604051626a0d4560e21b8152600060048201526024016103e8565b6113c1858585858561152a565b5050505050565b6001600160a01b0384166113f257604051632bfa23e760e11b8152600060048201526024016103e8565b61140060008585858561152a565b50505050565b6001600160a01b03821661142f5760405162ced3e160e81b8152600060048201526024016103e8565b6001600160a01b03838116600081815260016020908152604080832094871680845294825291829020805460ff191686151590811790915591519182527f17307eab39ab6107e8899845ad3d59bd9653f200f220920489ca2b5937696c31910160405180910390a3505050565b6001600160a01b0384166114c657604051632bfa23e760e11b8152600060048201526024016103e8565b6001600160a01b0385166114ef57604051626a0d4560e21b8152600060048201526024016103e8565b60408051600180825260208201869052818301908152606082018590526080820190925290611521878784848761152a565b50505050505050565b6115368585858561157d565b6001600160a01b038416156113c1578251339060010361156f5760208481015190840151611568838989858589611791565b50506104f0565b6104f08187878787876118b5565b80518251146115ac5781518151604051635b05999160e01b8152600481019290925260248201526044016103e8565b3360005b83518110156116b2576020818102858101820151908501909101516001600160a01b03881615611663576000828152602081815260408083206001600160a01b038c1684529091529020548181101561163c576040516303dee4c560e01b81526001600160a01b038a1660048201526024810182905260448101839052606481018490526084016103e8565b6000838152602081815260408083206001600160a01b038d16845290915290209082900390555b6001600160a01b038716156116a8576000828152602081815260408083206001600160a01b038b168452909152812080548392906116a2908490612139565b90915550505b50506001016115b0565b5082516001036117335760208301516000906020840151909150856001600160a01b0316876001600160a01b0316846001600160a01b03167fc3d58168c5ae7397731d063d5bbf3d657854427343f4c083240f7aacaa2d0f628585604051611724929190918252602082015260400190565b60405180910390a450506113c1565b836001600160a01b0316856001600160a01b0316826001600160a01b03167f4a39dc06d4c0dbc64b70af90fd698a233a518aa5d07e595d983b8c0526c8f7fb868660405161178292919061215a565b60405180910390a45050505050565b6001600160a01b0384163b156104f05760405163f23a6e6160e01b81526001600160a01b0385169063f23a6e61906117d59089908990889088908890600401612188565b6020604051808303816000875af1925050508015611810575060408051601f3d908101601f1916820190925261180d918101906121cd565b60015b611879573d80801561183e576040519150601f19603f3d011682016040523d82523d6000602084013e611843565b606091505b50805160000361187157604051632bfa23e760e11b81526001600160a01b03861660048201526024016103e8565b805160208201fd5b6001600160e01b0319811663f23a6e6160e01b1461152157604051632bfa23e760e11b81526001600160a01b03861660048201526024016103e8565b6001600160a01b0384163b156104f05760405163bc197c8160e01b81526001600160a01b0385169063bc197c81906118f990899089908890889088906004016121ea565b6020604051808303816000875af1925050508015611934575060408051601f3d908101601f19168201909252611931918101906121cd565b60015b611962573d80801561183e576040519150601f19603f3d011682016040523d82523d6000602084013e611843565b6001600160e01b0319811663bc197c8160e01b1461152157604051632bfa23e760e11b81526001600160a01b03861660048201526024016103e8565b80356001600160a01b03811681146119b557600080fd5b919050565b600080604083850312156119cd57600080fd5b6119d68361199e565b946020939093013593505050565b6001600160e01b0319811681146103fa57600080fd5b600060208284031215611a0c57600080fd5b8135611a17816119e4565b9392505050565b634e487b7160e01b600052604160045260246000fd5b604051601f8201601f191681016001600160401b0381118282101715611a5c57611a5c611a1e565b604052919050565b6000806001600160401b03841115611a7e57611a7e611a1e565b50601f8301601f1916602001611a9381611a34565b915050828152838383011115611aa857600080fd5b828260208301376000602084830101529392505050565b600060208284031215611ad157600080fd5b81356001600160401b03811115611ae757600080fd5b8201601f81018413611af857600080fd5b611b0784823560208401611a64565b949350505050565b600060208284031215611b2157600080fd5b5035919050565b6000815180845260005b81811015611b4e57602081850181015186830182015201611b32565b506000602082860101526020601f19601f83011685010191505092915050565b602081526000611a176020830184611b28565b60006001600160401b03821115611b9a57611b9a611a1e565b5060051b60200190565b600082601f830112611bb557600080fd5b8135611bc8611bc382611b81565b611a34565b8082825260208201915060208360051b860101925085831115611bea57600080fd5b602085015b83811015611c07578035835260209283019201611bef565b5095945050505050565b600082601f830112611c2257600080fd5b611a1783833560208501611a64565b600080600080600060a08688031215611c4957600080fd5b611c528661199e565b9450611c606020870161199e565b935060408601356001600160401b03811115611c7b57600080fd5b611c8788828901611ba4565b93505060608601356001600160401b03811115611ca357600080fd5b611caf88828901611ba4565b92505060808601356001600160401b03811115611ccb57600080fd5b611cd788828901611c11565b9150509295509295909350565b600080600060608486031215611cf957600080fd5b611d028461199e565b925060208401356001600160401b03811115611d1d57600080fd5b611d2986828701611ba4565b92505060408401356001600160401b03811115611d4557600080fd5b611d5186828701611ba4565b9150509250925092565b600060208284031215611d6d57600080fd5b81356001600160401b03811115611d8357600080fd5b611b0784828501611ba4565b60008060408385031215611da257600080fd5b82356001600160401b03811115611db857600080fd5b8301601f81018513611dc957600080fd5b8035611dd7611bc382611b81565b8082825260208201915060208360051b850101925087831115611df957600080fd5b6020840193505b82841015611e2257611e118461199e565b825260209384019390910190611e00565b945050505060208301356001600160401b03811115611e4057600080fd5b611e4c85828601611ba4565b9150509250929050565b600081518084526020840193506020830160005b82811015611e88578151865260209586019590910190600101611e6a565b5093949350505050565b602081526000611a176020830184611e56565b600080600060608486031215611eba57600080fd5b83356001600160401b03811115611ed057600080fd5b611edc86828701611ba4565b93505060208401356001600160401b03811115611ef857600080fd5b611f0486828701611ba4565b925050611f136040850161199e565b90509250925092565b80151581146103fa57600080fd5b60008060408385031215611f3d57600080fd5b611f468361199e565b91506020830135611f5681611f1c565b809150509250929050565b602080825282518282018190526000918401906040840190835b81811015611fd9578351805184526020810151602085015260018060a01b03604082015116604085015260018060a01b036060820151166060850152608081015160808501525060a083019250602084019350600181019050611f7b565b509095945050505050565b60008060408385031215611ff757600080fd5b50508035926020909101359150565b6000806040838503121561201957600080fd5b6120228361199e565b91506120306020840161199e565b90509250929050565b600080600080600060a0868803121561205157600080fd5b61205a8661199e565b94506120686020870161199e565b9350604086013592506060860135915060808601356001600160401b03811115611ccb57600080fd5b6000602082840312156120a357600080fd5b8151611a1781611f1c565b600181811c908216806120c257607f821691505b6020821081036120e257634e487b7160e01b600052602260045260246000fd5b50919050565b634e487b7160e01b600052603260045260246000fd5b60006020828403121561211057600080fd5b5051919050565b60408152600061212a6040830185611e56565b90508260208301529392505050565b808201808211156102d057634e487b7160e01b600052601160045260246000fd5b60408152600061216d6040830185611e56565b828103602084015261217f8185611e56565b95945050505050565b6001600160a01b03868116825285166020820152604081018490526060810183905260a0608082018190526000906121c290830184611b28565b979650505050505050565b6000602082840312156121df57600080fd5b8151611a17816119e4565b6001600160a01b0386811682528516602082015260a06040820181905260009061221690830186611e56565b82810360608401526122288186611e56565b9050828103608084015261223c8185611b28565b9897505050505050505056fea264697066735822122051cbadd572efcf0666ddb746ab8348f0fdafdbd04c309c1555505a37a044389464736f6c634300081c0033",
  "linkReferences": {},
  "deployedLinkReferences": {}
}