{
  "_format": "hh-sol-artifact-1",
  "contractName": "MyNFT",
  "sourceName": "contracts/myNFT.sol",
  "abi": [
    {
      "inputs": [
        {
          "internalType": "address",
          "name": "_accessControlAddress",
          "type": "address"
        },
        {
          "internalType": "string",
          "name": "_uri",
          "type": "string"
        }
      ],
      "stateMutability": "nonpayable",
      "type": "constructor"
    },
    {
      "inputs": [
        {
          "internalType": "address",
          "name": "sender",
          "type": "address"
        },
        {
          "internalType": "uint256",
          "name": "balance",
          "type": "uint256"
        },
        {
          "internalType": "uint256",
          "name": "needed",
          "type": "uint256"
        },
        {
          "internalType": "uint256",
          "name": "tokenId",
          "type": "uint256"
        }
      ],
      "name": "ERC1155InsufficientBalance",
      "type": "error"
    },
    {
      "inputs": [
        {
          "internalType": "address",
          "name": "approver",
          "type": "address"
        }
      ],
      "name": "ERC1155InvalidApprover",
      "type": "error"
    },
    {
      "inputs": [
        {
          "internalType": "uint256",
          "name": "idsLength",
          "type": "uint256"
        },
        {
          "internalType": "uint256",
          "name": "valuesLength",
          "type": "uint256"
        }
      ],
      "name": "ERC1155InvalidArrayLength",
      "type": "error"
    },
    {
      "inputs": [
        {
          "internalType": "address",
          "name": "operator",
          "type": "address"
        }
      ],
      "name": "ERC1155InvalidOperator",
      "type": "error"
    },
    {
      "inputs": [
        {
          "internalType": "address",
          "name": "receiver",
          "type": "address"
        }
      ],
      "name": "ERC1155InvalidReceiver",
      "type": "error"
    },
    {
      "inputs": [
        {
          "internalType": "address",
          "name": "sender",
          "type": "address"
        }
      ],
      "name": "ERC1155InvalidSender",
      "type": "error"
    },
    {
      "inputs": [
        {
          "internalType": "address",
          "name": "operator",
          "type": "address"
        },
        {
          "internalType": "address",
          "name": "owner",
          "type": "address"
        }
      ],
      "name": "ERC1155MissingApprovalForAll",
      "type": "error"
    },
    {
      "anonymous": false,
      "inputs": [
        {
          "indexed": true,
          "internalType": "address",
          "name": "account",
          "type": "address"
        },
        {
          "indexed": true,
          "internalType": "address",
          "name": "operator",
          "type": "address"
        },
        {
          "indexed": false,
          "internalType": "bool",
          "name": "approved",
          "type": "bool"
        }
      ],
      "name": "ApprovalForAll",
      "type": "event"
    },
    {
      "anonymous": false,
      "inputs": [
        {
          "indexed": true,
          "internalType": "address",
          "name": "distributorAddress",
          "type": "address"
        },
        {
          "indexed": true,
          "internalType": "address",
          "name": "pharmacyAddress",
          "type": "address"
        },
        {
          "indexed": false,
          "internalType": "uint256[]",
          "name": "tokenIds",
          "type": "uint256[]"
        },
        {
          "indexed": false,
          "internalType": "uint256",
          "name": "receivedTimestamp",
          "type": "uint256"
        }
      ],
      "name": "DistributorToPharmacy",
      "type": "event"
    },
    {
      "anonymous": false,
      "inputs": [
        {
          "indexed": true,
          "internalType": "address",
          "name": "manufacturerAddress",
          "type": "address"
        },
        {
          "indexed": true,
          "internalType": "address",
          "name": "distributorAddress",
          "type": "address"
        },
        {
          "indexed": false,
          "internalType": "uint256[]",
          "name": "tokenIds",
          "type": "uint256[]"
        },
        {
          "indexed": false,
          "internalType": "uint256",
          "name": "receivedTimestamp",
          "type": "uint256"
        }
      ],
      "name": "ManufacturerToDistributor",
      "type": "event"
    },
    {
      "anonymous": false,
      "inputs": [
        {
          "indexed": true,
          "internalType": "address",
          "name": "operator",
          "type": "address"
        },
        {
          "indexed": true,
          "internalType": "address",
          "name": "from",
          "type": "address"
        },
        {
          "indexed": true,
          "internalType": "address",
          "name": "to",
          "type": "address"
        },
        {
          "indexed": false,
          "internalType": "uint256[]",
          "name": "ids",
          "type": "uint256[]"
        },
        {
          "indexed": false,
          "internalType": "uint256[]",
          "name": "values",
          "type": "uint256[]"
        }
      ],
      "name": "TransferBatch",
      "type": "event"
    },
    {
      "anonymous": false,
      "inputs": [
        {
          "indexed": true,
          "internalType": "address",
          "name": "operator",
          "type": "address"
        },
        {
          "indexed": true,
          "internalType": "address",
          "name": "from",
          "type": "address"
        },
        {
          "indexed": true,
          "internalType": "address",
          "name": "to",
          "type": "address"
        },
        {
          "indexed": false,
          "internalType": "uint256",
          "name": "id",
          "type": "uint256"
        },
        {
          "indexed": false,
          "internalType": "uint256",
          "name": "value",
          "type": "uint256"
        }
      ],
      "name": "TransferSingle",
      "type": "event"
    },
    {
      "anonymous": false,
      "inputs": [
        {
          "indexed": false,
          "internalType": "string",
          "name": "value",
          "type": "string"
        },
        {
          "indexed": true,
          "internalType": "uint256",
          "name": "id",
          "type": "uint256"
        }
      ],
      "name": "URI",
      "type": "event"
    },
    {
      "anonymous": false,
      "inputs": [
        {
          "indexed": true,
          "internalType": "address",
          "name": "distributorAddress",
          "type": "address"
        },
        {
          "indexed": false,
          "internalType": "uint256",
          "name": "tokenId",
          "type": "uint256"
        },
        {
          "indexed": false,
          "internalType": "uint256",
          "name": "timespan",
          "type": "uint256"
        }
      ],
      "name": "distributorMintNFTEvent",
      "type": "event"
    },
    {
      "anonymous": false,
      "inputs": [
        {
          "indexed": true,
          "internalType": "address",
          "name": "distributorAddress",
          "type": "address"
        },
        {
          "indexed": true,
          "internalType": "address",
          "name": "pharmacyAddress",
          "type": "address"
        },
        {
          "indexed": false,
          "internalType": "uint256",
          "name": "timespan",
          "type": "uint256"
        }
      ],
      "name": "distributorSignTheContractEvent",
      "type": "event"
    },
    {
      "anonymous": false,
      "inputs": [
        {
          "indexed": true,
          "internalType": "address",
          "name": "manufactureAddress",
          "type": "address"
        },
        {
          "indexed": false,
          "internalType": "uint256[]",
          "name": "tokenIds",
          "type": "uint256[]"
        }
      ],
      "name": "mintNFTEvent",
      "type": "event"
    },
    {
      "anonymous": false,
      "inputs": [
        {
          "indexed": true,
          "internalType": "address",
          "name": "pharmacyAddress",
          "type": "address"
        },
        {
          "indexed": true,
          "internalType": "address",
          "name": "distributorAddress",
          "type": "address"
        },
        {
          "indexed": false,
          "internalType": "uint256",
          "name": "timespan",
          "type": "uint256"
        }
      ],
      "name": "pharmacySignTheContractEvent",
      "type": "event"
    },
    {
      "inputs": [],
      "name": "accessControlServiceObj",
      "outputs": [
        {
          "internalType": "contract accessControlService",
          "name": "",
          "type": "address"
        }
      ],
      "stateMutability": "view",
      "type": "function"
    },
    {
      "inputs": [
        {
          "internalType": "address",
          "name": "account",
          "type": "address"
        },
        {
          "internalType": "uint256",
          "name": "id",
          "type": "uint256"
        }
      ],
      "name": "balanceOf",
      "outputs": [
        {
          "internalType": "uint256",
          "name": "",
          "type": "uint256"
        }
      ],
      "stateMutability": "view",
      "type": "function"
    },
    {
      "inputs": [
        {
          "internalType": "address[]",
          "name": "accounts",
          "type": "address[]"
        },
        {
          "internalType": "uint256[]",
          "name": "ids",
          "type": "uint256[]"
        }
      ],
      "name": "balanceOfBatch",
      "outputs": [
        {
          "internalType": "uint256[]",
          "name": "",
          "type": "uint256[]"
        }
      ],
      "stateMutability": "view",
      "type": "function"
    },
    {
      "inputs": [
        {
          "internalType": "address",
          "name": "pharmacyAddress",
          "type": "address"
        }
      ],
      "name": "distributorCreateAContract",
      "outputs": [],
      "stateMutability": "nonpayable",
      "type": "function"
    },
    {
      "inputs": [
        {
          "internalType": "address",
          "name": "pharmacyAddress",
          "type": "address"
        }
      ],
      "name": "distributorGetContractByPharmacyAddress",
      "outputs": [
        {
          "components": [
            {
              "internalType": "address",
              "name": "distributorAddress",
              "type": "address"
            },
            {
              "internalType": "address",
              "name": "pharmacyAddress",
              "type": "address"
            },
            {
              "internalType": "string",
              "name": "contractStatus",
              "type": "string"
            }
          ],
          "internalType": "struct getContractInfoStruct",
          "name": "",
          "type": "tuple"
        }
      ],
      "stateMutability": "view",
      "type": "function"
    },
    {
      "inputs": [
        {
          "internalType": "address",
          "name": "pharmacyAddress",
          "type": "address"
        }
      ],
      "name": "distributorMintTheNFT",
      "outputs": [],
      "stateMutability": "nonpayable",
      "type": "function"
    },
    {
      "inputs": [
        {
          "internalType": "address",
          "name": "pharmaAddress",
          "type": "address"
        },
        {
          "internalType": "uint256[]",
          "name": "tokenIds",
          "type": "uint256[]"
        },
        {
          "internalType": "uint256[]",
          "name": "amount",
          "type": "uint256[]"
        }
      ],
      "name": "distributorTransferToPharmacy",
      "outputs": [],
      "stateMutability": "nonpayable",
      "type": "function"
    },
    {
      "inputs": [
        {
          "internalType": "uint256",
          "name": "tokenId",
          "type": "uint256"
        }
      ],
      "name": "getTrackingHistory",
      "outputs": [
        {
          "components": [
            {
              "internalType": "bytes32",
              "name": "fromUserType",
              "type": "bytes32"
            },
            {
              "internalType": "bytes32",
              "name": "toUserType",
              "type": "bytes32"
            },
            {
              "internalType": "address",
              "name": "fromUserAddress",
              "type": "address"
            },
            {
              "internalType": "address",
              "name": "toUserAddress",
              "type": "address"
            },
            {
              "internalType": "uint256",
              "name": "recivedtimeSpan",
              "type": "uint256"
            }
          ],
          "internalType": "struct AddressTracking[]",
          "name": "",
          "type": "tuple[]"
        }
      ],
      "stateMutability": "view",
      "type": "function"
    },
    {
      "inputs": [
        {
          "internalType": "address",
          "name": "account",
          "type": "address"
        },
        {
          "internalType": "address",
          "name": "operator",
          "type": "address"
        }
      ],
      "name": "isApprovedForAll",
      "outputs": [
        {
          "internalType": "bool",
          "name": "",
          "type": "bool"
        }
      ],
      "stateMutability": "view",
      "type": "function"
    },
    {
      "inputs": [
        {
          "internalType": "uint256[]",
          "name": "tokenIds",
          "type": "uint256[]"
        },
        {
          "internalType": "uint256[]",
          "name": "amount",
          "type": "uint256[]"
        },
        {
          "internalType": "address",
          "name": "distributorAddress",
          "type": "address"
        }
      ],
      "name": "manufacturerTransferToDistributor",
      "outputs": [],
      "stateMutability": "nonpayable",
      "type": "function"
    },
    {
      "inputs": [
        {
          "internalType": "uint256[]",
          "name": "amounts",
          "type": "uint256[]"
        }
      ],
      "name": "mintNFT",
      "outputs": [],
      "stateMutability": "nonpayable",
      "type": "function"
    },
    {
      "inputs": [
        {
          "internalType": "address",
          "name": "distributorAddress",
          "type": "address"
        }
      ],
      "name": "pharmacyConfirmTheContract",
      "outputs": [],
      "stateMutability": "nonpayable",
      "type": "function"
    },
    {
      "inputs": [
        {
          "internalType": "address",
          "name": "distributorAddress",
          "type": "address"
        }
      ],
      "name": "pharmacyGetContractInfoByDistributorAddress",
      "outputs": [
        {
          "components": [
            {
              "internalType": "address",
              "name": "distributorAddress",
              "type": "address"
            },
            {
              "internalType": "address",
              "name": "pharmacyAddress",
              "type": "address"
            },
            {
              "internalType": "string",
              "name": "contractStatus",
              "type": "string"
            }
          ],
          "internalType": "struct getContractInfoStruct",
          "name": "",
          "type": "tuple"
        }
      ],
      "stateMutability": "view",
      "type": "function"
    },
    {
      "inputs": [
        {
          "internalType": "address",
          "name": "from",
          "type": "address"
        },
        {
          "internalType": "address",
          "name": "to",
          "type": "address"
        },
        {
          "internalType": "uint256[]",
          "name": "ids",
          "type": "uint256[]"
        },
        {
          "internalType": "uint256[]",
          "name": "values",
          "type": "uint256[]"
        },
        {
          "internalType": "bytes",
          "name": "data",
          "type": "bytes"
        }
      ],
      "name": "safeBatchTransferFrom",
      "outputs": [],
      "stateMutability": "nonpayable",
      "type": "function"
    },
    {
      "inputs": [
        {
          "internalType": "address",
          "name": "from",
          "type": "address"
        },
        {
          "internalType": "address",
          "name": "to",
          "type": "address"
        },
        {
          "internalType": "uint256",
          "name": "id",
          "type": "uint256"
        },
        {
          "internalType": "uint256",
          "name": "value",
          "type": "uint256"
        },
        {
          "internalType": "bytes",
          "name": "data",
          "type": "bytes"
        }
      ],
      "name": "safeTransferFrom",
      "outputs": [],
      "stateMutability": "nonpayable",
      "type": "function"
    },
    {
      "inputs": [
        {
          "internalType": "address",
          "name": "operator",
          "type": "address"
        },
        {
          "internalType": "bool",
          "name": "approved",
          "type": "bool"
        }
      ],
      "name": "setApprovalForAll",
      "outputs": [],
      "stateMutability": "nonpayable",
      "type": "function"
    },
    {
      "inputs": [
        {
          "internalType": "string",
          "name": "_uri",
          "type": "string"
        }
      ],
      "name": "setURI",
      "outputs": [],
      "stateMutability": "nonpayable",
      "type": "function"
    },
    {
      "inputs": [
        {
          "internalType": "bytes4",
          "name": "interfaceId",
          "type": "bytes4"
        }
      ],
      "name": "supportsInterface",
      "outputs": [
        {
          "internalType": "bool",
          "name": "",
          "type": "bool"
        }
      ],
      "stateMutability": "view",
      "type": "function"
    },
    {
      "inputs": [
        {
          "internalType": "uint256",
          "name": "",
          "type": "uint256"
        },
        {
          "internalType": "uint256",
          "name": "",
          "type": "uint256"
        }
      ],
      "name": "tokenIdTravelInfos",
      "outputs": [
        {
          "internalType": "bytes32",
          "name": "fromUserType",
          "type": "bytes32"
        },
        {
          "internalType": "bytes32",
          "name": "toUserType",
          "type": "bytes32"
        },
        {
          "internalType": "address",
          "name": "fromUserAddress",
          "type": "address"
        },
        {
          "internalType": "address",
          "name": "toUserAddress",
          "type": "address"
        },
        {
          "internalType": "uint256",
          "name": "recivedtimeSpan",
          "type": "uint256"
        }
      ],
      "stateMutability": "view",
      "type": "function"
    },
    {
      "inputs": [
        {
          "internalType": "uint256",
          "name": "",
          "type": "uint256"
        }
      ],
      "name": "uri",
      "outputs": [
        {
          "internalType": "string",
          "name": "",
          "type": "string"
        }
      ],
      "stateMutability": "view",
      "type": "function"
    }
  ],
  "bytecode": "0x6080604052600160045534801561001557600080fd5b5060405161306f38038061306f833981016040819052610034916100e5565b8061003e816100bf565b506001600160a01b0382166100995760405162461bcd60e51b815260206004820152601e60248201527f496e76616c69642061636365737320636f6e74726f6c20616464726573730000604482015260640160405180910390fd5b50600380546001600160a01b0319166001600160a01b0392909216919091179055610318565b60026100cb828261025a565b5050565b634e487b7160e01b600052604160045260246000fd5b600080604083850312156100f857600080fd5b82516001600160a01b038116811461010f57600080fd5b60208401519092506001600160401b0381111561012b57600080fd5b8301601f8101851361013c57600080fd5b80516001600160401b03811115610155576101556100cf565b604051601f8201601f19908116603f011681016001600160401b0381118282101715610183576101836100cf565b60405281815282820160200187101561019b57600080fd5b60005b828110156101ba5760208185018101518383018201520161019e565b506000602083830101528093505050509250929050565b600181811c908216806101e557607f821691505b60208210810361020557634e487b7160e01b600052602260045260246000fd5b50919050565b601f82111561025557806000526020600020601f840160051c810160208510156102325750805b601f840160051c820191505b81811015610252576000815560010161023e565b50505b505050565b81516001600160401b03811115610273576102736100cf565b6102878161028184546101d1565b8461020b565b6020601f8211600181146102bb57600083156102a35750848201515b600019600385901b1c1916600184901b178455610252565b600084815260208120601f198516915b828110156102eb57878501518255602094850194600190920191016102cb565b50848210156103095786840151600019600387901b60f8161c191681555b50505050600190811b01905550565b612d48806103276000396000f3fe608060405234801561001057600080fd5b506004361061012b5760003560e01c8063684facce116100ad578063c36034e211610071578063c36034e2146102b1578063d7fbd9ca146102d1578063e0c83867146102e4578063e985e9c51461032b578063f242432a1461033e57600080fd5b8063684facce1461023a57806399cd9a3e146102655780639b907eea14610278578063a22cb4651461028b578063bc4c64de1461029e57600080fd5b806340b3124f116100f457806340b3124f146101c157806342e074d1146101d45780634303fad8146101e757806349acd6c4146101fa5780634e1273f41461021a57600080fd5b8062fdd58e1461013057806301ffc9a71461015657806302fe5305146101795780630e89341c1461018e5780632eb2c2d6146101ae575b600080fd5b61014361013e366004612293565b610351565b6040519081526020015b60405180910390f35b6101696101643660046122d3565b610379565b604051901515815260200161014d565b61018c610187366004612398565b6103c9565b005b6101a161019c3660046123e8565b6104a0565b60405161014d9190612447565b61018c6101bc36600461250a565b610534565b61018c6101cf3660046125bd565b61059b565b61018c6101e2366004612634565b610b38565b61018c6101f5366004612668565b610d3c565b61020d610208366004612668565b610f37565b60405161014d9190612683565b61022d6102283660046126c0565b610fe9565b60405161014d91906127c3565b60035461024d906001600160a01b031681565b6040516001600160a01b03909116815260200161014d565b61018c6102733660046127d6565b6110b5565b61018c610286366004612668565b6115a8565b61018c61029936600461285b565b6117a9565b61018c6102ac366004612668565b6117b8565b6102c46102bf3660046123e8565b6119b5565b60405161014d9190612892565b61020d6102df366004612668565b611a61565b6102f76102f2366004612915565b611aea565b6040805195865260208601949094526001600160a01b0392831693850193909352166060830152608082015260a00161014d565b610169610339366004612937565b611b44565b61018c61034c36600461296a565b611b72565b6000818152602081815260408083206001600160a01b03861684529091529020545b92915050565b60006001600160e01b03198216636cdb3d1360e11b14806103aa57506001600160e01b031982166303a24d0760e21b145b8061037357506301ffc9a760e01b6001600160e01b0319831614610373565b600354604051630935e01b60e21b81523360048201526001600160a01b03909116906324d7806c90602401602060405180830381865afa158015610411573d6000803e3d6000fd5b505050506040513d601f19601f8201168201806040525081019061043591906129c2565b6104945760405162461bcd60e51b815260206004820152602560248201527f596f75204d7573742062652041646d696e20746f20646f20746869732066756e60448201526431ba34b7b760d91b60648201526084015b60405180910390fd5b61049d81611bd1565b50565b6060600280546104af906129df565b80601f01602080910402602001604051908101604052809291908181526020018280546104db906129df565b80156105285780601f106104fd57610100808354040283529160200191610528565b820191906000526020600020905b81548152906001019060200180831161050b57829003601f168201915b50505050509050919050565b336001600160a01b038616811480159061055557506105538682611b44565b155b156105865760405163711bec9160e11b81526001600160a01b0380831660048301528716602482015260440161048b565b6105938686868686611bdd565b505050505050565b60035460405163346c56c560e11b81523360048201526001600160a01b03909116906368d8ad8a90602401602060405180830381865afa1580156105e3573d6000803e3d6000fd5b505050506040513d601f19601f8201168201806040525081019061060791906129c2565b6106535760405162461bcd60e51b815260206004820152601b60248201527f43616c6c6572206973206e6f742061204469737472696275746f720000000000604482015260640161048b565b600354604051636f499a0560e01b81526001600160a01b03858116600483015290911690636f499a0590602401602060405180830381865afa15801561069d573d6000803e3d6000fd5b505050506040513d601f19601f820116820180604052508101906106c191906129c2565b61070d5760405162461bcd60e51b815260206004820152601a60248201527f5265636569766572206973206e6f74206120506861726d616379000000000000604482015260640161048b565b3360009081526006602090815260408083206001600160a01b038716845290915290205460ff166107a65760405162461bcd60e51b815260206004820152603760248201527f54686520436f6e7472616374206973206e6f74206578697374206f72206e6f7460448201527f207369676e656420627920322073696465207965742021000000000000000000606482015260840161048b565b600082516001600160401b038111156107c1576107c16122f7565b6040519080825280602002602001820160405280156107ea578160200160208202803683370190505b50905060005b835181101561082c573382828151811061080c5761080c612a19565b6001600160a01b03909216602092830291909101909101526001016107f0565b5060006108398285610fe9565b905060005b81518110156108db5783818151811061085957610859612a19565b602002602001015182828151811061087357610873612a19565b602002602001015110156108d35760405162461bcd60e51b815260206004820152602160248201527f4469737472696275746f723a20696e73756666696369656e742062616c616e636044820152606560f81b606482015260840161048b565b60010161083e565b506108f83386868660405180602001604052806000815250610534565b60035460408051633c2f61f360e21b8152905142926000926001600160a01b039091169163f0bd87cc916004808201926020929091908290030181865afa158015610947573d6000803e3d6000fd5b505050506040513d601f19601f8201168201806040525081019061096b9190612a2f565b90506000600360009054906101000a90046001600160a01b03166001600160a01b031663f0c58ea76040518163ffffffff1660e01b8152600401602060405180830381865afa1580156109c2573d6000803e3d6000fd5b505050506040513d601f19601f820116820180604052508101906109e69190612a2f565b905060005b8751811015610ae0576000878281518110610a0857610a08612a19565b60200260200101511115610ad85760056000898381518110610a2c57610a2c612a19565b60209081029190910181015182528181019290925260409081016000908120825160a081018452878152808501878152339482019485526001600160a01b038f811660608401908152608084018c8152855460018082018855968852989096209351600590980290930196875590519286019290925592516002850180546001600160a01b03199081169284169290921790559251600385018054909416911617909155516004909101555b6001016109eb565b50876001600160a01b0316336001600160a01b03167f97d746d8ab141647d64f23b9b7cc4704b14d8c71c9b60aae8c278586fee86afb8986604051610b26929190612a48565b60405180910390a35050505050505050565b60035460405163e160404160e01b81523360048201526001600160a01b039091169063e160404190602401602060405180830381865afa158015610b80573d6000803e3d6000fd5b505050506040513d601f19601f82011682018060405250810190610ba491906129c2565b610c015760405162461bcd60e51b815260206004820152602860248201527f496e76616c696420526f6c653a204f6e6c79204d616e7566616374757265722060448201526718d85b881b5a5b9d60c21b606482015260840161048b565b805180610c505760405162461bcd60e51b815260206004820152601c60248201527f416d6f756e742061727261792063616e6e6f7420626520656d70747900000000604482015260640161048b565b6004546000826001600160401b03811115610c6d57610c6d6122f7565b604051908082528060200260200182016040528015610c96578160200160208202803683370190505b50905060005b83811015610cd357610cae8184612a80565b828281518110610cc057610cc0612a19565b6020908102919091010152600101610c9c565b50610cef33828660405180602001604052806000815250611c44565b610cf98383612a80565b60045560405133907ff5d0852ff0649d85f1a5d805a5eab62adfc687f2902d76d5d3f9945885bb36b590610d2e9084906127c3565b60405180910390a250505050565b60035460405163346c56c560e11b81523360048201526001600160a01b03909116906368d8ad8a90602401602060405180830381865afa158015610d84573d6000803e3d6000fd5b505050506040513d601f19601f82011682018060405250810190610da891906129c2565b610dc45760405162461bcd60e51b815260040161048b90612a93565b600354604051636f499a0560e01b81526001600160a01b03838116600483015290911690636f499a0590602401602060405180830381865afa158015610e0e573d6000803e3d6000fd5b505050506040513d601f19601f82011682018060405250810190610e3291906129c2565b610e4e5760405162461bcd60e51b815260040161048b90612aca565b3360009081526006602090815260408083206001600160a01b038516845290915290205460ff16610ec15760405162461bcd60e51b815260206004820181905260248201527f54686520436f6e7472616374206973206e6f74207369676e6564207965742021604482015260640161048b565b60006004549050610ee43382600160405180602001604052806000815250611c82565b60048054906000610ef483612b01565b90915550506040805182815242602082015233917f477a04dadd393334f6f68345b5d9bc150d97296cfa1978080cdb06332b9b7d16910160405180910390a25050565b604080516060808201835260008083526020830152918101919091523360008181526006602090815260408083206001600160a01b038716808552908352928190205481516060810183529485529184019290925260ff169190810182610fc0576040518060400160405280600a815260200169139bdd0814da59db995960b21b815250610fe0565b6040518060400160405280600681526020016514da59db995960d21b8152505b90529392505050565b6060815183511461101a5781518351604051635b05999160e01b81526004810192909252602482015260440161048b565b600083516001600160401b03811115611035576110356122f7565b60405190808252806020026020018201604052801561105e578160200160208202803683370190505b50905060005b84518110156110ad5760208082028601015161108890602080840287010151610351565b82828151811061109a5761109a612a19565b6020908102919091010152600101611064565b509392505050565b60035460405163e160404160e01b81523360048201526001600160a01b039091169063e160404190602401602060405180830381865afa1580156110fd573d6000803e3d6000fd5b505050506040513d601f19601f8201168201806040525081019061112191906129c2565b61116d5760405162461bcd60e51b815260206004820152601c60248201527f43616c6c6572206973206e6f742061204d616e75666163747572657200000000604482015260640161048b565b60035460405163346c56c560e11b81526001600160a01b038381166004830152909116906368d8ad8a90602401602060405180830381865afa1580156111b7573d6000803e3d6000fd5b505050506040513d601f19601f820116820180604052508101906111db91906129c2565b6112275760405162461bcd60e51b815260206004820152601d60248201527f5265636569766572206973206e6f742061204469737472696275746f72000000604482015260640161048b565b600083516001600160401b03811115611242576112426122f7565b60405190808252806020026020018201604052801561126b578160200160208202803683370190505b50905060005b84518110156112ad573382828151811061128d5761128d612a19565b6001600160a01b0390921660209283029190910190910152600101611271565b5060006112ba8286610fe9565b905060005b815181101561135d578481815181106112da576112da612a19565b60200260200101518282815181106112f4576112f4612a19565b602002602001015110156113555760405162461bcd60e51b815260206004820152602260248201527f4d616e7566616374757265723a20696e73756666696369656e742062616c616e604482015261636560f01b606482015260840161048b565b6001016112bf565b5061137a3384878760405180602001604052806000815250610534565b60035460408051630965288b60e41b8152905142926000926001600160a01b039091169163965288b0916004808201926020929091908290030181865afa1580156113c9573d6000803e3d6000fd5b505050506040513d601f19601f820116820180604052508101906113ed9190612a2f565b90506000600360009054906101000a90046001600160a01b03166001600160a01b031663f0bd87cc6040518163ffffffff1660e01b8152600401602060405180830381865afa158015611444573d6000803e3d6000fd5b505050506040513d601f19601f820116820180604052508101906114689190612a2f565b905060005b885181101561156257600088828151811061148a5761148a612a19565b6020026020010151111561155a57600560008a83815181106114ae576114ae612a19565b60209081029190910181015182528181019290925260409081016000908120825160a081018452878152808501878152339482019485526001600160a01b038d811660608401908152608084018c8152855460018082018855968852989096209351600590980290930196875590519286019290925592516002850180546001600160a01b03199081169284169290921790559251600385018054909416911617909155516004909101555b60010161146d565b50856001600160a01b0316336001600160a01b03167fd62dac799945d16976cbf4cb0f96270d60dcb458eb78a7a42280bbaacbfd3d208a86604051610b26929190612a48565b60035460405163346c56c560e11b81526001600160a01b038381166004830152909116906368d8ad8a90602401602060405180830381865afa1580156115f2573d6000803e3d6000fd5b505050506040513d601f19601f8201168201806040525081019061161691906129c2565b6116325760405162461bcd60e51b815260040161048b90612a93565b600354604051636f499a0560e01b81523360048201526001600160a01b0390911690636f499a0590602401602060405180830381865afa15801561167a573d6000803e3d6000fd5b505050506040513d601f19601f8201168201806040525081019061169e91906129c2565b6116ba5760405162461bcd60e51b815260040161048b90612aca565b6001600160a01b038116600090815260066020908152604080832033845290915290205460ff16156117455760405162461bcd60e51b815260206004820152602e60248201527f54686520436f6e747261637420497320416c7265616479205369676e6564202860448201526d506861726d6163792046756e632960901b606482015260840161048b565b6001600160a01b03811660008181526006602090815260408083203380855290835292819020805460ff19166001179055514281527f3300720aa372e0c4182392c95de997ea568acf7ad30b0dc6834e797ca1ab2df591015b60405180910390a350565b6117b4338383611cdf565b5050565b60035460405163346c56c560e11b81523360048201526001600160a01b03909116906368d8ad8a90602401602060405180830381865afa158015611800573d6000803e3d6000fd5b505050506040513d601f19601f8201168201806040525081019061182491906129c2565b6118405760405162461bcd60e51b815260040161048b90612a93565b600354604051636f499a0560e01b81526001600160a01b03838116600483015290911690636f499a0590602401602060405180830381865afa15801561188a573d6000803e3d6000fd5b505050506040513d601f19601f820116820180604052508101906118ae91906129c2565b6118ca5760405162461bcd60e51b815260040161048b90612aca565b3360009081526006602090815260408083206001600160a01b038516845290915290205460ff16156119585760405162461bcd60e51b815260206004820152603160248201527f54686520436f6e747261637420497320416c7265616479205369676e656420286044820152704469737472696275746f722046756e632960781b606482015260840161048b565b3360008181526006602090815260408083206001600160a01b03861680855290835292819020805460ff19169055514281529192917fba28a869d4fd0a8a0729a38e9ba270e01a52f27bbafe9c7627b8a557467d6968910161179e565b606060056000838152602001908152602001600020805480602002602001604051908101604052809291908181526020016000905b82821015611a565760008481526020908190206040805160a08101825260058602909201805483526001808201548486015260028201546001600160a01b03908116938501939093526003820154909216606084015260040154608083015290835290920191016119ea565b505050509050919050565b604080516060808201835260008083526020830152918101919091526001600160a01b038216600081815260066020908152604080832033808552908352928190205481516060810183529485529184019290925260ff169190810182610fc0576040518060400160405280600a815260200169139bdd0814da59db995960b21b815250610fe0565b60056020528160005260406000208181548110611b0657600080fd5b6000918252602090912060059091020180546001820154600283015460038401546004909401549295509093506001600160a01b0390811692169085565b6001600160a01b03918216600090815260016020908152604080832093909416825291909152205460ff1690565b336001600160a01b0386168114801590611b935750611b918682611b44565b155b15611bc45760405163711bec9160e11b81526001600160a01b0380831660048301528716602482015260440161048b565b6105938686868686611d75565b60026117b48282612b66565b6001600160a01b038416611c0757604051632bfa23e760e11b81526000600482015260240161048b565b6001600160a01b038516611c3057604051626a0d4560e21b81526000600482015260240161048b565b611c3d8585858585611e03565b5050505050565b6001600160a01b038416611c6e57604051632bfa23e760e11b81526000600482015260240161048b565b611c7c600085858585611e03565b50505050565b6001600160a01b038416611cac57604051632bfa23e760e11b81526000600482015260240161048b565b60408051600180825260208201869052818301908152606082018590526080820190925290610593600087848487611e03565b6001600160a01b038216611d085760405162ced3e160e81b81526000600482015260240161048b565b6001600160a01b03838116600081815260016020908152604080832094871680845294825291829020805460ff191686151590811790915591519182527f17307eab39ab6107e8899845ad3d59bd9653f200f220920489ca2b5937696c31910160405180910390a3505050565b6001600160a01b038416611d9f57604051632bfa23e760e11b81526000600482015260240161048b565b6001600160a01b038516611dc857604051626a0d4560e21b81526000600482015260240161048b565b60408051600180825260208201869052818301908152606082018590526080820190925290611dfa8787848487611e03565b50505050505050565b611e0f85858585611e56565b6001600160a01b03841615611c3d5782513390600103611e485760208481015190840151611e4183898985858961206a565b5050610593565b61059381878787878761218e565b8051825114611e855781518151604051635b05999160e01b81526004810192909252602482015260440161048b565b3360005b8351811015611f8b576020818102858101820151908501909101516001600160a01b03881615611f3c576000828152602081815260408083206001600160a01b038c16845290915290205481811015611f15576040516303dee4c560e01b81526001600160a01b038a16600482015260248101829052604481018390526064810184905260840161048b565b6000838152602081815260408083206001600160a01b038d16845290915290209082900390555b6001600160a01b03871615611f81576000828152602081815260408083206001600160a01b038b16845290915281208054839290611f7b908490612a80565b90915550505b5050600101611e89565b50825160010361200c5760208301516000906020840151909150856001600160a01b0316876001600160a01b0316846001600160a01b03167fc3d58168c5ae7397731d063d5bbf3d657854427343f4c083240f7aacaa2d0f628585604051611ffd929190918252602082015260400190565b60405180910390a45050611c3d565b836001600160a01b0316856001600160a01b0316826001600160a01b03167f4a39dc06d4c0dbc64b70af90fd698a233a518aa5d07e595d983b8c0526c8f7fb868660405161205b929190612c24565b60405180910390a45050505050565b6001600160a01b0384163b156105935760405163f23a6e6160e01b81526001600160a01b0385169063f23a6e61906120ae9089908990889088908890600401612c52565b6020604051808303816000875af19250505080156120e9575060408051601f3d908101601f191682019092526120e691810190612c97565b60015b612152573d808015612117576040519150601f19603f3d011682016040523d82523d6000602084013e61211c565b606091505b50805160000361214a57604051632bfa23e760e11b81526001600160a01b038616600482015260240161048b565b805160208201fd5b6001600160e01b0319811663f23a6e6160e01b14611dfa57604051632bfa23e760e11b81526001600160a01b038616600482015260240161048b565b6001600160a01b0384163b156105935760405163bc197c8160e01b81526001600160a01b0385169063bc197c81906121d29089908990889088908890600401612cb4565b6020604051808303816000875af192505050801561220d575060408051601f3d908101601f1916820190925261220a91810190612c97565b60015b61223b573d808015612117576040519150601f19603f3d011682016040523d82523d6000602084013e61211c565b6001600160e01b0319811663bc197c8160e01b14611dfa57604051632bfa23e760e11b81526001600160a01b038616600482015260240161048b565b80356001600160a01b038116811461228e57600080fd5b919050565b600080604083850312156122a657600080fd5b6122af83612277565b946020939093013593505050565b6001600160e01b03198116811461049d57600080fd5b6000602082840312156122e557600080fd5b81356122f0816122bd565b9392505050565b634e487b7160e01b600052604160045260246000fd5b604051601f8201601f191681016001600160401b0381118282101715612335576123356122f7565b604052919050565b6000806001600160401b03841115612357576123576122f7565b50601f8301601f191660200161236c8161230d565b91505082815283838301111561238157600080fd5b828260208301376000602084830101529392505050565b6000602082840312156123aa57600080fd5b81356001600160401b038111156123c057600080fd5b8201601f810184136123d157600080fd5b6123e08482356020840161233d565b949350505050565b6000602082840312156123fa57600080fd5b5035919050565b6000815180845260005b818110156124275760208185018101518683018201520161240b565b506000602082860101526020601f19601f83011685010191505092915050565b6020815260006122f06020830184612401565b60006001600160401b03821115612473576124736122f7565b5060051b60200190565b600082601f83011261248e57600080fd5b81356124a161249c8261245a565b61230d565b8082825260208201915060208360051b8601019250858311156124c357600080fd5b602085015b838110156124e05780358352602092830192016124c8565b5095945050505050565b600082601f8301126124fb57600080fd5b6122f08383356020850161233d565b600080600080600060a0868803121561252257600080fd5b61252b86612277565b945061253960208701612277565b935060408601356001600160401b0381111561255457600080fd5b6125608882890161247d565b93505060608601356001600160401b0381111561257c57600080fd5b6125888882890161247d565b92505060808601356001600160401b038111156125a457600080fd5b6125b0888289016124ea565b9150509295509295909350565b6000806000606084860312156125d257600080fd5b6125db84612277565b925060208401356001600160401b038111156125f657600080fd5b6126028682870161247d565b92505060408401356001600160401b0381111561261e57600080fd5b61262a8682870161247d565b9150509250925092565b60006020828403121561264657600080fd5b81356001600160401b0381111561265c57600080fd5b6123e08482850161247d565b60006020828403121561267a57600080fd5b6122f082612277565b602080825282516001600160a01b039081168383015290830151166040808301919091528201516060808301526000906123e06080840182612401565b600080604083850312156126d357600080fd5b82356001600160401b038111156126e957600080fd5b8301601f810185136126fa57600080fd5b803561270861249c8261245a565b8082825260208201915060208360051b85010192508783111561272a57600080fd5b6020840193505b828410156127535761274284612277565b825260209384019390910190612731565b945050505060208301356001600160401b0381111561277157600080fd5b61277d8582860161247d565b9150509250929050565b600081518084526020840193506020830160005b828110156127b957815186526020958601959091019060010161279b565b5093949350505050565b6020815260006122f06020830184612787565b6000806000606084860312156127eb57600080fd5b83356001600160401b0381111561280157600080fd5b61280d8682870161247d565b93505060208401356001600160401b0381111561282957600080fd5b6128358682870161247d565b92505061284460408501612277565b90509250925092565b801515811461049d57600080fd5b6000806040838503121561286e57600080fd5b61287783612277565b915060208301356128878161284d565b809150509250929050565b602080825282518282018190526000918401906040840190835b8181101561290a578351805184526020810151602085015260018060a01b03604082015116604085015260018060a01b036060820151166060850152608081015160808501525060a0830192506020840193506001810190506128ac565b509095945050505050565b6000806040838503121561292857600080fd5b50508035926020909101359150565b6000806040838503121561294a57600080fd5b61295383612277565b915061296160208401612277565b90509250929050565b600080600080600060a0868803121561298257600080fd5b61298b86612277565b945061299960208701612277565b9350604086013592506060860135915060808601356001600160401b038111156125a457600080fd5b6000602082840312156129d457600080fd5b81516122f08161284d565b600181811c908216806129f357607f821691505b602082108103612a1357634e487b7160e01b600052602260045260246000fd5b50919050565b634e487b7160e01b600052603260045260246000fd5b600060208284031215612a4157600080fd5b5051919050565b604081526000612a5b6040830185612787565b90508260208301529392505050565b634e487b7160e01b600052601160045260246000fd5b8082018082111561037357610373612a6a565b6020808252601c908201527f41646472657373206973206e6f742061206469737472696275746f7200000000604082015260600190565b60208082526019908201527f41646472657373206973206e6f74206120506861726d61637900000000000000604082015260600190565b600060018201612b1357612b13612a6a565b5060010190565b601f821115612b6157806000526020600020601f840160051c81016020851015612b415750805b601f840160051c820191505b81811015611c3d5760008155600101612b4d565b505050565b81516001600160401b03811115612b7f57612b7f6122f7565b612b9381612b8d84546129df565b84612b1a565b6020601f821160018114612bc75760008315612baf5750848201515b600019600385901b1c1916600184901b178455611c3d565b600084815260208120601f198516915b82811015612bf75787850151825560209485019460019092019101612bd7565b5084821015612c155786840151600019600387901b60f8161c191681555b50505050600190811b01905550565b604081526000612c376040830185612787565b8281036020840152612c498185612787565b95945050505050565b6001600160a01b03868116825285166020820152604081018490526060810183905260a060808201819052600090612c8c90830184612401565b979650505050505050565b600060208284031215612ca957600080fd5b81516122f0816122bd565b6001600160a01b0386811682528516602082015260a060408201819052600090612ce090830186612787565b8281036060840152612cf28186612787565b90508281036080840152612d068185612401565b9897505050505050505056fea26469706673582212202ca75b105693bda4e043a0f697252a288125888c1a8907db5afa85153ad8fdcd64736f6c634300081c0033",
  "linkReferences": {},
  "deployedLinkReferences": {}
}