{
  "_format": "hh-sol-artifact-1",
  "contractName": "MyNFT",
  "sourceName": "contracts/myNFT.sol",
  "abi": [
    {
      "inputs": [
        {
          "internalType": "address",
          "name": "_accessControlAddress",
          "type": "address"
        }
      ],
      "stateMutability": "nonpayable",
      "type": "constructor"
    },
    {
      "inputs": [
        {
          "internalType": "address",
          "name": "sender",
          "type": "address"
        },
        {
          "internalType": "uint256",
          "name": "tokenId",
          "type": "uint256"
        },
        {
          "internalType": "address",
          "name": "owner",
          "type": "address"
        }
      ],
      "name": "ERC721IncorrectOwner",
      "type": "error"
    },
    {
      "inputs": [
        {
          "internalType": "address",
          "name": "operator",
          "type": "address"
        },
        {
          "internalType": "uint256",
          "name": "tokenId",
          "type": "uint256"
        }
      ],
      "name": "ERC721InsufficientApproval",
      "type": "error"
    },
    {
      "inputs": [
        {
          "internalType": "address",
          "name": "approver",
          "type": "address"
        }
      ],
      "name": "ERC721InvalidApprover",
      "type": "error"
    },
    {
      "inputs": [
        {
          "internalType": "address",
          "name": "operator",
          "type": "address"
        }
      ],
      "name": "ERC721InvalidOperator",
      "type": "error"
    },
    {
      "inputs": [
        {
          "internalType": "address",
          "name": "owner",
          "type": "address"
        }
      ],
      "name": "ERC721InvalidOwner",
      "type": "error"
    },
    {
      "inputs": [
        {
          "internalType": "address",
          "name": "receiver",
          "type": "address"
        }
      ],
      "name": "ERC721InvalidReceiver",
      "type": "error"
    },
    {
      "inputs": [
        {
          "internalType": "address",
          "name": "sender",
          "type": "address"
        }
      ],
      "name": "ERC721InvalidSender",
      "type": "error"
    },
    {
      "inputs": [
        {
          "internalType": "uint256",
          "name": "tokenId",
          "type": "uint256"
        }
      ],
      "name": "ERC721NonexistentToken",
      "type": "error"
    },
    {
      "anonymous": false,
      "inputs": [
        {
          "indexed": true,
          "internalType": "address",
          "name": "owner",
          "type": "address"
        },
        {
          "indexed": true,
          "internalType": "address",
          "name": "approved",
          "type": "address"
        },
        {
          "indexed": true,
          "internalType": "uint256",
          "name": "tokenId",
          "type": "uint256"
        }
      ],
      "name": "Approval",
      "type": "event"
    },
    {
      "anonymous": false,
      "inputs": [
        {
          "indexed": true,
          "internalType": "address",
          "name": "owner",
          "type": "address"
        },
        {
          "indexed": true,
          "internalType": "address",
          "name": "operator",
          "type": "address"
        },
        {
          "indexed": false,
          "internalType": "bool",
          "name": "approved",
          "type": "bool"
        }
      ],
      "name": "ApprovalForAll",
      "type": "event"
    },
    {
      "anonymous": false,
      "inputs": [
        {
          "indexed": false,
          "internalType": "uint256",
          "name": "_fromTokenId",
          "type": "uint256"
        },
        {
          "indexed": false,
          "internalType": "uint256",
          "name": "_toTokenId",
          "type": "uint256"
        }
      ],
      "name": "BatchMetadataUpdate",
      "type": "event"
    },
    {
      "anonymous": false,
      "inputs": [
        {
          "indexed": true,
          "internalType": "address",
          "name": "distributorAddress",
          "type": "address"
        },
        {
          "indexed": true,
          "internalType": "address",
          "name": "pharmacyAddress",
          "type": "address"
        },
        {
          "indexed": true,
          "internalType": "uint256[]",
          "name": "tokenId",
          "type": "uint256[]"
        },
        {
          "indexed": false,
          "internalType": "uint256",
          "name": "receivedTimestamp",
          "type": "uint256"
        }
      ],
      "name": "DistributorToPharmacy",
      "type": "event"
    },
    {
      "anonymous": false,
      "inputs": [
        {
          "indexed": true,
          "internalType": "address",
          "name": "manufacturerAddress",
          "type": "address"
        },
        {
          "indexed": true,
          "internalType": "address",
          "name": "distributorAddress",
          "type": "address"
        },
        {
          "indexed": true,
          "internalType": "uint256[]",
          "name": "tokenId",
          "type": "uint256[]"
        },
        {
          "indexed": false,
          "internalType": "uint256",
          "name": "receivedTimestamp",
          "type": "uint256"
        }
      ],
      "name": "ManufacturerToDistributor",
      "type": "event"
    },
    {
      "anonymous": false,
      "inputs": [
        {
          "indexed": false,
          "internalType": "uint256",
          "name": "_tokenId",
          "type": "uint256"
        }
      ],
      "name": "MetadataUpdate",
      "type": "event"
    },
    {
      "anonymous": false,
      "inputs": [
        {
          "indexed": true,
          "internalType": "address",
          "name": "from",
          "type": "address"
        },
        {
          "indexed": true,
          "internalType": "address",
          "name": "to",
          "type": "address"
        },
        {
          "indexed": true,
          "internalType": "uint256",
          "name": "tokenId",
          "type": "uint256"
        }
      ],
      "name": "Transfer",
      "type": "event"
    },
    {
      "inputs": [],
      "name": "accessControlServiceObj",
      "outputs": [
        {
          "internalType": "contract accessControlService",
          "name": "",
          "type": "address"
        }
      ],
      "stateMutability": "view",
      "type": "function"
    },
    {
      "inputs": [
        {
          "internalType": "address",
          "name": "to",
          "type": "address"
        },
        {
          "internalType": "uint256",
          "name": "tokenId",
          "type": "uint256"
        }
      ],
      "name": "approve",
      "outputs": [],
      "stateMutability": "nonpayable",
      "type": "function"
    },
    {
      "inputs": [
        {
          "internalType": "address",
          "name": "owner",
          "type": "address"
        }
      ],
      "name": "balanceOf",
      "outputs": [
        {
          "internalType": "uint256",
          "name": "",
          "type": "uint256"
        }
      ],
      "stateMutability": "view",
      "type": "function"
    },
    {
      "inputs": [
        {
          "internalType": "uint256[]",
          "name": "tokenId",
          "type": "uint256[]"
        },
        {
          "internalType": "address",
          "name": "pharmacyAddress",
          "type": "address"
        }
      ],
      "name": "distributorToPharmacy",
      "outputs": [],
      "stateMutability": "nonpayable",
      "type": "function"
    },
    {
      "inputs": [
        {
          "internalType": "uint256",
          "name": "tokenId",
          "type": "uint256"
        }
      ],
      "name": "getApproved",
      "outputs": [
        {
          "internalType": "address",
          "name": "",
          "type": "address"
        }
      ],
      "stateMutability": "view",
      "type": "function"
    },
    {
      "inputs": [
        {
          "internalType": "uint256",
          "name": "tokenId",
          "type": "uint256"
        }
      ],
      "name": "getTrackingHistory",
      "outputs": [
        {
          "components": [
            {
              "internalType": "bytes32",
              "name": "fromUserType",
              "type": "bytes32"
            },
            {
              "internalType": "bytes32",
              "name": "toUserType",
              "type": "bytes32"
            },
            {
              "internalType": "address",
              "name": "fromUserAddress",
              "type": "address"
            },
            {
              "internalType": "address",
              "name": "toUserAddress",
              "type": "address"
            },
            {
              "internalType": "uint256",
              "name": "recivedtimeSpan",
              "type": "uint256"
            }
          ],
          "internalType": "struct AddressTracking[]",
          "name": "",
          "type": "tuple[]"
        }
      ],
      "stateMutability": "view",
      "type": "function"
    },
    {
      "inputs": [
        {
          "internalType": "address",
          "name": "owner",
          "type": "address"
        },
        {
          "internalType": "address",
          "name": "operator",
          "type": "address"
        }
      ],
      "name": "isApprovedForAll",
      "outputs": [
        {
          "internalType": "bool",
          "name": "",
          "type": "bool"
        }
      ],
      "stateMutability": "view",
      "type": "function"
    },
    {
      "inputs": [
        {
          "internalType": "uint256[]",
          "name": "tokenId",
          "type": "uint256[]"
        },
        {
          "internalType": "address",
          "name": "distributorAddress",
          "type": "address"
        }
      ],
      "name": "manufacturerToDistributor",
      "outputs": [],
      "stateMutability": "nonpayable",
      "type": "function"
    },
    {
      "inputs": [
        {
          "internalType": "string[]",
          "name": "tokenURIs",
          "type": "string[]"
        }
      ],
      "name": "mintNFT",
      "outputs": [
        {
          "internalType": "uint256[]",
          "name": "",
          "type": "uint256[]"
        }
      ],
      "stateMutability": "nonpayable",
      "type": "function"
    },
    {
      "inputs": [],
      "name": "name",
      "outputs": [
        {
          "internalType": "string",
          "name": "",
          "type": "string"
        }
      ],
      "stateMutability": "view",
      "type": "function"
    },
    {
      "inputs": [
        {
          "internalType": "uint256",
          "name": "tokenId",
          "type": "uint256"
        }
      ],
      "name": "ownerOf",
      "outputs": [
        {
          "internalType": "address",
          "name": "",
          "type": "address"
        }
      ],
      "stateMutability": "view",
      "type": "function"
    },
    {
      "inputs": [
        {
          "internalType": "address",
          "name": "from",
          "type": "address"
        },
        {
          "internalType": "address",
          "name": "to",
          "type": "address"
        },
        {
          "internalType": "uint256",
          "name": "tokenId",
          "type": "uint256"
        }
      ],
      "name": "safeTransferFrom",
      "outputs": [],
      "stateMutability": "nonpayable",
      "type": "function"
    },
    {
      "inputs": [
        {
          "internalType": "address",
          "name": "from",
          "type": "address"
        },
        {
          "internalType": "address",
          "name": "to",
          "type": "address"
        },
        {
          "internalType": "uint256",
          "name": "tokenId",
          "type": "uint256"
        },
        {
          "internalType": "bytes",
          "name": "data",
          "type": "bytes"
        }
      ],
      "name": "safeTransferFrom",
      "outputs": [],
      "stateMutability": "nonpayable",
      "type": "function"
    },
    {
      "inputs": [
        {
          "internalType": "address",
          "name": "operator",
          "type": "address"
        },
        {
          "internalType": "bool",
          "name": "approved",
          "type": "bool"
        }
      ],
      "name": "setApprovalForAll",
      "outputs": [],
      "stateMutability": "nonpayable",
      "type": "function"
    },
    {
      "inputs": [
        {
          "internalType": "bytes4",
          "name": "interfaceId",
          "type": "bytes4"
        }
      ],
      "name": "supportsInterface",
      "outputs": [
        {
          "internalType": "bool",
          "name": "",
          "type": "bool"
        }
      ],
      "stateMutability": "view",
      "type": "function"
    },
    {
      "inputs": [],
      "name": "symbol",
      "outputs": [
        {
          "internalType": "string",
          "name": "",
          "type": "string"
        }
      ],
      "stateMutability": "view",
      "type": "function"
    },
    {
      "inputs": [
        {
          "internalType": "uint256",
          "name": "",
          "type": "uint256"
        },
        {
          "internalType": "uint256",
          "name": "",
          "type": "uint256"
        }
      ],
      "name": "tokenIdTravelInfos",
      "outputs": [
        {
          "internalType": "bytes32",
          "name": "fromUserType",
          "type": "bytes32"
        },
        {
          "internalType": "bytes32",
          "name": "toUserType",
          "type": "bytes32"
        },
        {
          "internalType": "address",
          "name": "fromUserAddress",
          "type": "address"
        },
        {
          "internalType": "address",
          "name": "toUserAddress",
          "type": "address"
        },
        {
          "internalType": "uint256",
          "name": "recivedtimeSpan",
          "type": "uint256"
        }
      ],
      "stateMutability": "view",
      "type": "function"
    },
    {
      "inputs": [
        {
          "internalType": "uint256",
          "name": "tokenId",
          "type": "uint256"
        }
      ],
      "name": "tokenURI",
      "outputs": [
        {
          "internalType": "string",
          "name": "",
          "type": "string"
        }
      ],
      "stateMutability": "view",
      "type": "function"
    },
    {
      "inputs": [
        {
          "internalType": "address",
          "name": "from",
          "type": "address"
        },
        {
          "internalType": "address",
          "name": "to",
          "type": "address"
        },
        {
          "internalType": "uint256",
          "name": "tokenId",
          "type": "uint256"
        }
      ],
      "name": "transferFrom",
      "outputs": [],
      "stateMutability": "nonpayable",
      "type": "function"
    }
  ],
  "bytecode": "0x608060405234801561001057600080fd5b5060405161233e38038061233e83398101604081905261002f91610107565b60405180604001604052806005815260200164135e53919560da1b8152506040518060400160405280600381526020016213919560ea1b815250816000908161007891906101d6565b50600161008582826101d6565b5050506001600160a01b0381166100e25760405162461bcd60e51b815260206004820152601e60248201527f496e76616c69642061636365737320636f6e74726f6c20616464726573730000604482015260640160405180910390fd5b600780546001600160a01b0319166001600160a01b0392909216919091179055610294565b60006020828403121561011957600080fd5b81516001600160a01b038116811461013057600080fd5b9392505050565b634e487b7160e01b600052604160045260246000fd5b600181811c9082168061016157607f821691505b60208210810361018157634e487b7160e01b600052602260045260246000fd5b50919050565b601f8211156101d157806000526020600020601f840160051c810160208510156101ae5750805b601f840160051c820191505b818110156101ce57600081556001016101ba565b50505b505050565b81516001600160401b038111156101ef576101ef610137565b610203816101fd845461014d565b84610187565b6020601f821160018114610237576000831561021f5750848201515b600019600385901b1c1916600184901b1784556101ce565b600084815260208120601f198516915b828110156102675787850151825560209485019460019092019101610247565b50848210156102855786840151600019600387901b60f8161c191681555b50505050600190811b01905550565b61209b806102a36000396000f3fe608060405234801561001057600080fd5b50600436106101215760003560e01c806370a08231116100ad578063b88d4fde11610071578063b88d4fde14610271578063c36034e214610284578063c87b56dd146102a4578063e0c83867146102b7578063e985e9c5146102fe57600080fd5b806370a082311461020f5780637a3494b114610230578063823702dd1461024357806395d89b4114610256578063a22cb4651461025e57600080fd5b806323b872dd116100f457806323b872dd146101a357806342842e0e146101b65780636352211e146101c9578063684facce146101dc578063704affad146101ef57600080fd5b806301ffc9a71461012657806306fdde031461014e578063081812fc14610163578063095ea7b31461018e575b600080fd5b6101396101343660046118b5565b610311565b60405190151581526020015b60405180910390f35b61015661033c565b6040516101459190611922565b610176610171366004611935565b6103ce565b6040516001600160a01b039091168152602001610145565b6101a161019c36600461196a565b6103f7565b005b6101a16101b1366004611994565b610406565b6101a16101c4366004611994565b610496565b6101766101d7366004611935565b6104b6565b600754610176906001600160a01b031681565b6102026101fd366004611a98565b6104c1565b6040516101459190611b68565b61022261021d366004611bab565b610652565b604051908152602001610145565b6101a161023e366004611bc6565b61069a565b6101a1610251366004611bc6565b610ada565b610156610e6a565b6101a161026c366004611c7c565b610e79565b6101a161027f366004611cb3565b610e84565b610297610292366004611935565b610e9c565b6040516101459190611d2f565b6101566102b2366004611935565b610f48565b6102ca6102c5366004611da7565b611059565b6040805195865260208601949094526001600160a01b0392831693850193909352166060830152608082015260a001610145565b61013961030c366004611dc9565b6110b3565b60006001600160e01b03198216632483248360e11b14806103365750610336826110e1565b92915050565b60606000805461034b90611df3565b80601f016020809104026020016040519081016040528092919081815260200182805461037790611df3565b80156103c45780601f10610399576101008083540402835291602001916103c4565b820191906000526020600020905b8154815290600101906020018083116103a757829003601f168201915b5050505050905090565b60006103d982611131565b506000828152600460205260409020546001600160a01b0316610336565b61040282823361116a565b5050565b6001600160a01b03821661043557604051633250574960e11b8152600060048201526024015b60405180910390fd5b6000610442838333611177565b9050836001600160a01b0316816001600160a01b031614610490576040516364283d7b60e01b81526001600160a01b038086166004830152602482018490528216604482015260640161042c565b50505050565b6104b183838360405180602001604052806000815250610e84565b505050565b600061033682611131565b60606000825167ffffffffffffffff8111156104df576104df6119d1565b604051908082528060200260200182016040528015610508578160200160208202803683370190505b5060075460405163e160404160e01b81523360048201529192506001600160a01b03169063e160404190602401602060405180830381865afa158015610552573d6000803e3d6000fd5b505050506040513d601f19601f820116820180604052508101906105769190611e2d565b6105d35760405162461bcd60e51b815260206004820152602860248201527f496e76616c696420526f6c653a204f6e6c79204d616e7566616374757265722060448201526718d85b881b5a5b9d60c21b606482015260840161042c565b60005b835181101561064b57600880549060006105ef83611e4a565b90915550506008546106013382611270565b6106248186848151811061061757610617611e71565b60200260200101516112d5565b8083838151811061063757610637611e71565b6020908102919091010152506001016105d6565b5092915050565b60006001600160a01b03821661067e576040516322718ad960e21b81526000600482015260240161042c565b506001600160a01b031660009081526003602052604090205490565b60075460405163e160404160e01b81523360048201526001600160a01b039091169063e160404190602401602060405180830381865afa1580156106e2573d6000803e3d6000fd5b505050506040513d601f19601f820116820180604052508101906107069190611e2d565b6107525760405162461bcd60e51b815260206004820152601f60248201527f496e76616c696420526f6c653a204f6e6c79204d616e75666163747572657200604482015260640161042c565b60075460405163346c56c560e11b81526001600160a01b038381166004830152909116906368d8ad8a90602401602060405180830381865afa15801561079c573d6000803e3d6000fd5b505050506040513d601f19601f820116820180604052508101906107c09190611e2d565b6108205760405162461bcd60e51b815260206004820152602b60248201527f496e76616c6964205461726765743a20546172676574206973206e6f7420612060448201526a2234b9ba3934b13aba37b960a91b606482015260840161042c565b60005b82518110156108c457336001600160a01b031661085884838151811061084b5761084b611e71565b60200260200101516104b6565b6001600160a01b0316146108bc5760405162461bcd60e51b815260206004820152602560248201527f4552433732313a207472616e736665722066726f6d20696e636f72726563742060448201526437bbb732b960d91b606482015260840161042c565b600101610823565b5060005b8251811015610a7f57600960008483815181106108e7576108e7611e71565b602002602001015181526020019081526020016000206040518060a00160405280600760009054906101000a90046001600160a01b03166001600160a01b031663965288b06040518163ffffffff1660e01b8152600401602060405180830381865afa15801561095b573d6000803e3d6000fd5b505050506040513d601f19601f8201168201806040525081019061097f9190611e87565b815260075460408051633c2f61f360e21b815290516020938401936001600160a01b039093169263f0bd87cc92600480820193918290030181865afa1580156109cc573d6000803e3d6000fd5b505050506040513d601f19601f820116820180604052508101906109f09190611e87565b8152336020808301919091526001600160a01b0386811660408085019190915242606094850152855460018082018855600097885296849020865160059092020190815592850151838701558401516002830180546001600160a01b031990811692841692909217905592840151600383018054909416911617909155608090910151600490910155016108c8565b5081604051610a8e9190611ea0565b604051908190038120428252906001600160a01b0383169033907fd62dac799945d16976cbf4cb0f96270d60dcb458eb78a7a42280bbaacbfd3d20906020015b60405180910390a45050565b60075460405163346c56c560e11b81523360048201526001600160a01b03909116906368d8ad8a90602401602060405180830381865afa158015610b22573d6000803e3d6000fd5b505050506040513d601f19601f82011682018060405250810190610b469190611e2d565b610b925760405162461bcd60e51b815260206004820152601e60248201527f496e76616c696420526f6c653a204f6e6c79204469737472696275746f720000604482015260640161042c565b600754604051636f499a0560e01b81526001600160a01b03838116600483015290911690636f499a0590602401602060405180830381865afa158015610bdc573d6000803e3d6000fd5b505050506040513d601f19601f82011682018060405250810190610c009190611e2d565b610c5d5760405162461bcd60e51b815260206004820152602860248201527f496e76616c6964205461726765743a20546172676574206973206e6f74206120604482015267506861726d61637960c01b606482015260840161042c565b60005b8251811015610e175760096000848381518110610c7f57610c7f611e71565b602002602001015181526020019081526020016000206040518060a00160405280600760009054906101000a90046001600160a01b03166001600160a01b031663f0bd87cc6040518163ffffffff1660e01b8152600401602060405180830381865afa158015610cf3573d6000803e3d6000fd5b505050506040513d601f19601f82011682018060405250810190610d179190611e87565b81526007546040805163f0c58ea760e01b815290516020938401936001600160a01b039093169263f0c58ea792600480820193918290030181865afa158015610d64573d6000803e3d6000fd5b505050506040513d601f19601f82011682018060405250810190610d889190611e87565b8152336020808301919091526001600160a01b0386811660408085019190915242606094850152855460018082018855600097885296849020865160059092020190815592850151838701558401516002830180546001600160a01b03199081169284169290921790559284015160038301805490941691161790915560809091015160049091015501610c60565b5081604051610e269190611ea0565b604051908190038120428252906001600160a01b0383169033907f97d746d8ab141647d64f23b9b7cc4704b14d8c71c9b60aae8c278586fee86afb90602001610ace565b60606001805461034b90611df3565b610402338383611325565b610e8f848484610406565b61049033858585856113c4565b606060096000838152602001908152602001600020805480602002602001604051908101604052809291908181526020016000905b82821015610f3d5760008481526020908190206040805160a08101825260058602909201805483526001808201548486015260028201546001600160a01b0390811693850193909352600382015490921660608401526004015460808301529083529092019101610ed1565b505050509050919050565b6060610f5382611131565b5060008281526006602052604081208054610f6d90611df3565b80601f0160208091040260200160405190810160405280929190818152602001828054610f9990611df3565b8015610fe65780601f10610fbb57610100808354040283529160200191610fe6565b820191906000526020600020905b815481529060010190602001808311610fc957829003601f168201915b50505050509050600061100460408051602081019091526000815290565b90508051600003611016575092915050565b815115611048578082604051602001611030929190611ed6565b60405160208183030381529060405292505050919050565b611051846114ef565b949350505050565b6009602052816000526040600020818154811061107557600080fd5b6000918252602090912060059091020180546001820154600283015460038401546004909401549295509093506001600160a01b0390811692169085565b6001600160a01b03918216600090815260056020908152604080832093909416825291909152205460ff1690565b60006001600160e01b031982166380ac58cd60e01b148061111257506001600160e01b03198216635b5e139f60e01b145b8061033657506301ffc9a760e01b6001600160e01b0319831614610336565b6000818152600260205260408120546001600160a01b03168061033657604051637e27328960e01b81526004810184905260240161042c565b6104b18383836001611564565b6000828152600260205260408120546001600160a01b03908116908316156111a4576111a481848661166a565b6001600160a01b038116156111e2576111c1600085600080611564565b6001600160a01b038116600090815260036020526040902080546000190190555b6001600160a01b03851615611211576001600160a01b0385166000908152600360205260409020805460010190555b60008481526002602052604080822080546001600160a01b0319166001600160a01b0389811691821790925591518793918516917fddf252ad1be2c89b69c2b068fc378daa952ba7f163c4a11628f55a4df523b3ef91a4949350505050565b6001600160a01b03821661129a57604051633250574960e11b81526000600482015260240161042c565b60006112a883836000611177565b90506001600160a01b038116156104b1576040516339e3563760e11b81526000600482015260240161042c565b60008281526006602052604090206112ed8282611f4c565b506040518281527ff8e1a15aba9398e019f0b49df1a4fde98ee17ae345cb5f6b5e2c27f5033e8ce79060200160405180910390a15050565b6001600160a01b03821661135757604051630b61174360e31b81526001600160a01b038316600482015260240161042c565b6001600160a01b03838116600081815260056020908152604080832094871680845294825291829020805460ff191686151590811790915591519182527f17307eab39ab6107e8899845ad3d59bd9653f200f220920489ca2b5937696c31910160405180910390a3505050565b6001600160a01b0383163b156114e857604051630a85bd0160e11b81526001600160a01b0384169063150b7a029061140690889088908790879060040161200b565b6020604051808303816000875af1925050508015611441575060408051601f3d908101601f1916820190925261143e91810190612048565b60015b6114aa573d80801561146f576040519150601f19603f3d011682016040523d82523d6000602084013e611474565b606091505b5080516000036114a257604051633250574960e11b81526001600160a01b038516600482015260240161042c565b805160208201fd5b6001600160e01b03198116630a85bd0160e11b146114e657604051633250574960e11b81526001600160a01b038516600482015260240161042c565b505b5050505050565b60606114fa82611131565b50600061151260408051602081019091526000815290565b90506000815111611532576040518060200160405280600081525061155d565b8061153c846116ce565b60405160200161154d929190611ed6565b6040516020818303038152906040525b9392505050565b808061157857506001600160a01b03821615155b1561163a57600061158884611131565b90506001600160a01b038316158015906115b45750826001600160a01b0316816001600160a01b031614155b80156115c757506115c581846110b3565b155b156115f05760405163a9fbf51f60e01b81526001600160a01b038416600482015260240161042c565b81156116385783856001600160a01b0316826001600160a01b03167f8c5be1e5ebec7d5bd14f71427d1e84f3dd0314c0f7b2291e5b200ac8c7c3b92560405160405180910390a45b505b5050600090815260046020526040902080546001600160a01b0319166001600160a01b0392909216919091179055565b611675838383611761565b6104b1576001600160a01b0383166116a357604051637e27328960e01b81526004810182905260240161042c565b60405163177e802f60e01b81526001600160a01b03831660048201526024810182905260440161042c565b606060006116db836117c4565b600101905060008167ffffffffffffffff8111156116fb576116fb6119d1565b6040519080825280601f01601f191660200182016040528015611725576020820181803683370190505b5090508181016020015b600019016f181899199a1a9b1b9c1cb0b131b232b360811b600a86061a8153600a850494508461172f57509392505050565b60006001600160a01b038316158015906110515750826001600160a01b0316846001600160a01b0316148061179b575061179b84846110b3565b806110515750506000908152600460205260409020546001600160a01b03908116911614919050565b60008072184f03e93ff9f4daa797ed6e38ed64bf6a1f0160401b83106118035772184f03e93ff9f4daa797ed6e38ed64bf6a1f0160401b830492506040015b6d04ee2d6d415b85acef8100000000831061182f576d04ee2d6d415b85acef8100000000830492506020015b662386f26fc10000831061184d57662386f26fc10000830492506010015b6305f5e1008310611865576305f5e100830492506008015b612710831061187957612710830492506004015b6064831061188b576064830492506002015b600a83106103365760010192915050565b6001600160e01b0319811681146118b257600080fd5b50565b6000602082840312156118c757600080fd5b813561155d8161189c565b60005b838110156118ed5781810151838201526020016118d5565b50506000910152565b6000815180845261190e8160208601602086016118d2565b601f01601f19169290920160200192915050565b60208152600061155d60208301846118f6565b60006020828403121561194757600080fd5b5035919050565b80356001600160a01b038116811461196557600080fd5b919050565b6000806040838503121561197d57600080fd5b6119868361194e565b946020939093013593505050565b6000806000606084860312156119a957600080fd5b6119b28461194e565b92506119c06020850161194e565b929592945050506040919091013590565b634e487b7160e01b600052604160045260246000fd5b604051601f8201601f1916810167ffffffffffffffff81118282101715611a1057611a106119d1565b604052919050565b600067ffffffffffffffff821115611a3257611a326119d1565b5060051b60200190565b60008067ffffffffffffffff841115611a5757611a576119d1565b50601f8301601f1916602001611a6c816119e7565b915050828152838383011115611a8157600080fd5b828260208301376000602084830101529392505050565b600060208284031215611aaa57600080fd5b813567ffffffffffffffff811115611ac157600080fd5b8201601f81018413611ad257600080fd5b8035611ae5611ae082611a18565b6119e7565b8082825260208201915060208360051b850101925086831115611b0757600080fd5b602084015b83811015611b5d57803567ffffffffffffffff811115611b2b57600080fd5b8501603f81018913611b3c57600080fd5b611b4e89602083013560408401611a3c565b84525060209283019201611b0c565b509695505050505050565b602080825282518282018190526000918401906040840190835b81811015611ba0578351835260209384019390920191600101611b82565b509095945050505050565b600060208284031215611bbd57600080fd5b61155d8261194e565b60008060408385031215611bd957600080fd5b823567ffffffffffffffff811115611bf057600080fd5b8301601f81018513611c0157600080fd5b8035611c0f611ae082611a18565b8082825260208201915060208360051b850101925087831115611c3157600080fd5b6020840193505b82841015611c53578335825260209384019390910190611c38565b9450611c65925050506020840161194e565b90509250929050565b80151581146118b257600080fd5b60008060408385031215611c8f57600080fd5b611c988361194e565b91506020830135611ca881611c6e565b809150509250929050565b60008060008060808587031215611cc957600080fd5b611cd28561194e565b9350611ce06020860161194e565b925060408501359150606085013567ffffffffffffffff811115611d0357600080fd5b8501601f81018713611d1457600080fd5b611d2387823560208401611a3c565b91505092959194509250565b602080825282518282018190526000918401906040840190835b81811015611ba0578351805184526020810151602085015260018060a01b03604082015116604085015260018060a01b036060820151166060850152608081015160808501525060a083019250602084019350600181019050611d49565b60008060408385031215611dba57600080fd5b50508035926020909101359150565b60008060408385031215611ddc57600080fd5b611de58361194e565b9150611c656020840161194e565b600181811c90821680611e0757607f821691505b602082108103611e2757634e487b7160e01b600052602260045260246000fd5b50919050565b600060208284031215611e3f57600080fd5b815161155d81611c6e565b600060018201611e6a57634e487b7160e01b600052601160045260246000fd5b5060010190565b634e487b7160e01b600052603260045260246000fd5b600060208284031215611e9957600080fd5b5051919050565b8151600090829060208501835b82811015611ecb578151845260209384019390910190600101611ead565b509195945050505050565b60008351611ee88184602088016118d2565b835190830190611efc8183602088016118d2565b01949350505050565b601f8211156104b157806000526020600020601f840160051c81016020851015611f2c5750805b601f840160051c820191505b818110156114e85760008155600101611f38565b815167ffffffffffffffff811115611f6657611f666119d1565b611f7a81611f748454611df3565b84611f05565b6020601f821160018114611fae5760008315611f965750848201515b600019600385901b1c1916600184901b1784556114e8565b600084815260208120601f198516915b82811015611fde5787850151825560209485019460019092019101611fbe565b5084821015611ffc5786840151600019600387901b60f8161c191681555b50505050600190811b01905550565b6001600160a01b038581168252841660208201526040810183905260806060820181905260009061203e908301846118f6565b9695505050505050565b60006020828403121561205a57600080fd5b815161155d8161189c56fea26469706673582212202d73348ec3cdc1dc85b9273b334292f31d1ed6f4d7c8ced4b18a063d4c49e4f764736f6c634300081c0033",
  "linkReferences": {},
  "deployedLinkReferences": {}
}