{
  "_format": "hh-sol-artifact-1",
  "contractName": "MyNFT",
  "sourceName": "contracts/myNFT.sol",
  "abi": [
    {
      "inputs": [
        {
          "internalType": "address",
          "name": "_accessControlAddress",
          "type": "address"
        },
        {
          "internalType": "string",
          "name": "_uri",
          "type": "string"
        }
      ],
      "stateMutability": "nonpayable",
      "type": "constructor"
    },
    {
      "inputs": [
        {
          "internalType": "address",
          "name": "sender",
          "type": "address"
        },
        {
          "internalType": "uint256",
          "name": "balance",
          "type": "uint256"
        },
        {
          "internalType": "uint256",
          "name": "needed",
          "type": "uint256"
        },
        {
          "internalType": "uint256",
          "name": "tokenId",
          "type": "uint256"
        }
      ],
      "name": "ERC1155InsufficientBalance",
      "type": "error"
    },
    {
      "inputs": [
        {
          "internalType": "address",
          "name": "approver",
          "type": "address"
        }
      ],
      "name": "ERC1155InvalidApprover",
      "type": "error"
    },
    {
      "inputs": [
        {
          "internalType": "uint256",
          "name": "idsLength",
          "type": "uint256"
        },
        {
          "internalType": "uint256",
          "name": "valuesLength",
          "type": "uint256"
        }
      ],
      "name": "ERC1155InvalidArrayLength",
      "type": "error"
    },
    {
      "inputs": [
        {
          "internalType": "address",
          "name": "operator",
          "type": "address"
        }
      ],
      "name": "ERC1155InvalidOperator",
      "type": "error"
    },
    {
      "inputs": [
        {
          "internalType": "address",
          "name": "receiver",
          "type": "address"
        }
      ],
      "name": "ERC1155InvalidReceiver",
      "type": "error"
    },
    {
      "inputs": [
        {
          "internalType": "address",
          "name": "sender",
          "type": "address"
        }
      ],
      "name": "ERC1155InvalidSender",
      "type": "error"
    },
    {
      "inputs": [
        {
          "internalType": "address",
          "name": "operator",
          "type": "address"
        },
        {
          "internalType": "address",
          "name": "owner",
          "type": "address"
        }
      ],
      "name": "ERC1155MissingApprovalForAll",
      "type": "error"
    },
    {
      "anonymous": false,
      "inputs": [
        {
          "indexed": true,
          "internalType": "address",
          "name": "account",
          "type": "address"
        },
        {
          "indexed": true,
          "internalType": "address",
          "name": "operator",
          "type": "address"
        },
        {
          "indexed": false,
          "internalType": "bool",
          "name": "approved",
          "type": "bool"
        }
      ],
      "name": "ApprovalForAll",
      "type": "event"
    },
    {
      "anonymous": false,
      "inputs": [
        {
          "indexed": true,
          "internalType": "address",
          "name": "distributorAddress",
          "type": "address"
        },
        {
          "indexed": true,
          "internalType": "address",
          "name": "pharmacyAddress",
          "type": "address"
        },
        {
          "indexed": false,
          "internalType": "uint256[]",
          "name": "tokenIds",
          "type": "uint256[]"
        },
        {
          "indexed": false,
          "internalType": "uint256",
          "name": "receivedTimestamp",
          "type": "uint256"
        }
      ],
      "name": "DistributorToPharmacy",
      "type": "event"
    },
    {
      "anonymous": false,
      "inputs": [
        {
          "indexed": true,
          "internalType": "address",
          "name": "manufacturerAddress",
          "type": "address"
        },
        {
          "indexed": true,
          "internalType": "address",
          "name": "distributorAddress",
          "type": "address"
        },
        {
          "indexed": false,
          "internalType": "uint256[]",
          "name": "tokenIds",
          "type": "uint256[]"
        },
        {
          "indexed": false,
          "internalType": "uint256",
          "name": "receivedTimestamp",
          "type": "uint256"
        }
      ],
      "name": "ManufacturerToDistributor",
      "type": "event"
    },
    {
      "anonymous": false,
      "inputs": [
        {
          "indexed": true,
          "internalType": "address",
          "name": "operator",
          "type": "address"
        },
        {
          "indexed": true,
          "internalType": "address",
          "name": "from",
          "type": "address"
        },
        {
          "indexed": true,
          "internalType": "address",
          "name": "to",
          "type": "address"
        },
        {
          "indexed": false,
          "internalType": "uint256[]",
          "name": "ids",
          "type": "uint256[]"
        },
        {
          "indexed": false,
          "internalType": "uint256[]",
          "name": "values",
          "type": "uint256[]"
        }
      ],
      "name": "TransferBatch",
      "type": "event"
    },
    {
      "anonymous": false,
      "inputs": [
        {
          "indexed": true,
          "internalType": "address",
          "name": "operator",
          "type": "address"
        },
        {
          "indexed": true,
          "internalType": "address",
          "name": "from",
          "type": "address"
        },
        {
          "indexed": true,
          "internalType": "address",
          "name": "to",
          "type": "address"
        },
        {
          "indexed": false,
          "internalType": "uint256",
          "name": "id",
          "type": "uint256"
        },
        {
          "indexed": false,
          "internalType": "uint256",
          "name": "value",
          "type": "uint256"
        }
      ],
      "name": "TransferSingle",
      "type": "event"
    },
    {
      "anonymous": false,
      "inputs": [
        {
          "indexed": false,
          "internalType": "string",
          "name": "value",
          "type": "string"
        },
        {
          "indexed": true,
          "internalType": "uint256",
          "name": "id",
          "type": "uint256"
        }
      ],
      "name": "URI",
      "type": "event"
    },
    {
      "anonymous": false,
      "inputs": [
        {
          "indexed": true,
          "internalType": "address",
          "name": "distributorAddress",
          "type": "address"
        },
        {
          "indexed": false,
          "internalType": "uint256",
          "name": "tokenId",
          "type": "uint256"
        },
        {
          "indexed": false,
          "internalType": "uint256",
          "name": "timespan",
          "type": "uint256"
        }
      ],
      "name": "distributorFinalizeAndMintEvent",
      "type": "event"
    },
    {
      "anonymous": false,
      "inputs": [
        {
          "indexed": true,
          "internalType": "address",
          "name": "distributorAddress",
          "type": "address"
        },
        {
          "indexed": true,
          "internalType": "address",
          "name": "pharmacyAddress",
          "type": "address"
        },
        {
          "indexed": false,
          "internalType": "uint256",
          "name": "timespan",
          "type": "uint256"
        }
      ],
      "name": "distributorSignTheContractEvent",
      "type": "event"
    },
    {
      "anonymous": false,
      "inputs": [
        {
          "indexed": true,
          "internalType": "address",
          "name": "manufactureAddress",
          "type": "address"
        },
        {
          "indexed": false,
          "internalType": "uint256[]",
          "name": "tokenIds",
          "type": "uint256[]"
        }
      ],
      "name": "mintNFTEvent",
      "type": "event"
    },
    {
      "anonymous": false,
      "inputs": [
        {
          "indexed": true,
          "internalType": "address",
          "name": "pharmacyAddress",
          "type": "address"
        },
        {
          "indexed": true,
          "internalType": "address",
          "name": "distributorAddress",
          "type": "address"
        },
        {
          "indexed": false,
          "internalType": "uint256",
          "name": "timespan",
          "type": "uint256"
        }
      ],
      "name": "pharmacySignTheContractEvent",
      "type": "event"
    },
    {
      "inputs": [],
      "name": "accessControlServiceObj",
      "outputs": [
        {
          "internalType": "contract accessControlService",
          "name": "",
          "type": "address"
        }
      ],
      "stateMutability": "view",
      "type": "function"
    },
    {
      "inputs": [
        {
          "internalType": "address",
          "name": "account",
          "type": "address"
        },
        {
          "internalType": "uint256",
          "name": "id",
          "type": "uint256"
        }
      ],
      "name": "balanceOf",
      "outputs": [
        {
          "internalType": "uint256",
          "name": "",
          "type": "uint256"
        }
      ],
      "stateMutability": "view",
      "type": "function"
    },
    {
      "inputs": [
        {
          "internalType": "address[]",
          "name": "accounts",
          "type": "address[]"
        },
        {
          "internalType": "uint256[]",
          "name": "ids",
          "type": "uint256[]"
        }
      ],
      "name": "balanceOfBatch",
      "outputs": [
        {
          "internalType": "uint256[]",
          "name": "",
          "type": "uint256[]"
        }
      ],
      "stateMutability": "view",
      "type": "function"
    },
    {
      "inputs": [
        {
          "internalType": "address",
          "name": "pharmacyAddress",
          "type": "address"
        }
      ],
      "name": "distributorCreateAContract",
      "outputs": [],
      "stateMutability": "nonpayable",
      "type": "function"
    },
    {
      "inputs": [
        {
          "internalType": "address",
          "name": "pharmacyAddress",
          "type": "address"
        }
      ],
      "name": "distributorFinalizeAndMint",
      "outputs": [],
      "stateMutability": "nonpayable",
      "type": "function"
    },
    {
      "inputs": [
        {
          "internalType": "address",
          "name": "pharmacyAddress",
          "type": "address"
        }
      ],
      "name": "distributorGetContractByPharmacyAddress",
      "outputs": [
        {
          "components": [
            {
              "internalType": "address",
              "name": "distributorAddress",
              "type": "address"
            },
            {
              "internalType": "address",
              "name": "pharmacyAddress",
              "type": "address"
            },
            {
              "internalType": "string",
              "name": "contractStatus",
              "type": "string"
            }
          ],
          "internalType": "struct getContractInfoStruct",
          "name": "",
          "type": "tuple"
        }
      ],
      "stateMutability": "view",
      "type": "function"
    },
    {
      "inputs": [
        {
          "internalType": "address",
          "name": "",
          "type": "address"
        },
        {
          "internalType": "address",
          "name": "",
          "type": "address"
        }
      ],
      "name": "distributorPharmacyContract",
      "outputs": [
        {
          "internalType": "enum MyNFT.contractStatus",
          "name": "",
          "type": "uint8"
        }
      ],
      "stateMutability": "view",
      "type": "function"
    },
    {
      "inputs": [
        {
          "internalType": "address",
          "name": "pharmaAddress",
          "type": "address"
        },
        {
          "internalType": "uint256[]",
          "name": "tokenIds",
          "type": "uint256[]"
        },
        {
          "internalType": "uint256[]",
          "name": "amount",
          "type": "uint256[]"
        }
      ],
      "name": "distributorTransferToPharmacy",
      "outputs": [],
      "stateMutability": "nonpayable",
      "type": "function"
    },
    {
      "inputs": [
        {
          "internalType": "uint256",
          "name": "tokenId",
          "type": "uint256"
        }
      ],
      "name": "getTrackingHistory",
      "outputs": [
        {
          "components": [
            {
              "internalType": "bytes32",
              "name": "fromUserType",
              "type": "bytes32"
            },
            {
              "internalType": "bytes32",
              "name": "toUserType",
              "type": "bytes32"
            },
            {
              "internalType": "address",
              "name": "fromUserAddress",
              "type": "address"
            },
            {
              "internalType": "address",
              "name": "toUserAddress",
              "type": "address"
            },
            {
              "internalType": "uint256",
              "name": "recivedtimeSpan",
              "type": "uint256"
            }
          ],
          "internalType": "struct AddressTracking[]",
          "name": "",
          "type": "tuple[]"
        }
      ],
      "stateMutability": "view",
      "type": "function"
    },
    {
      "inputs": [
        {
          "internalType": "address",
          "name": "account",
          "type": "address"
        },
        {
          "internalType": "address",
          "name": "operator",
          "type": "address"
        }
      ],
      "name": "isApprovedForAll",
      "outputs": [
        {
          "internalType": "bool",
          "name": "",
          "type": "bool"
        }
      ],
      "stateMutability": "view",
      "type": "function"
    },
    {
      "inputs": [
        {
          "internalType": "uint256[]",
          "name": "tokenIds",
          "type": "uint256[]"
        },
        {
          "internalType": "uint256[]",
          "name": "amount",
          "type": "uint256[]"
        },
        {
          "internalType": "address",
          "name": "distributorAddress",
          "type": "address"
        }
      ],
      "name": "manufacturerTransferToDistributor",
      "outputs": [],
      "stateMutability": "nonpayable",
      "type": "function"
    },
    {
      "inputs": [
        {
          "internalType": "address",
          "name": "distributorAddress",
          "type": "address"
        }
      ],
      "name": "pharmacyConfirmTheContract",
      "outputs": [],
      "stateMutability": "nonpayable",
      "type": "function"
    },
    {
      "inputs": [
        {
          "internalType": "address",
          "name": "distributorAddress",
          "type": "address"
        }
      ],
      "name": "pharmacyGetContractInfoByDistributorAddress",
      "outputs": [
        {
          "components": [
            {
              "internalType": "address",
              "name": "distributorAddress",
              "type": "address"
            },
            {
              "internalType": "address",
              "name": "pharmacyAddress",
              "type": "address"
            },
            {
              "internalType": "string",
              "name": "contractStatus",
              "type": "string"
            }
          ],
          "internalType": "struct getContractInfoStruct",
          "name": "",
          "type": "tuple"
        }
      ],
      "stateMutability": "view",
      "type": "function"
    },
    {
      "inputs": [
        {
          "internalType": "address",
          "name": "from",
          "type": "address"
        },
        {
          "internalType": "address",
          "name": "to",
          "type": "address"
        },
        {
          "internalType": "uint256[]",
          "name": "ids",
          "type": "uint256[]"
        },
        {
          "internalType": "uint256[]",
          "name": "values",
          "type": "uint256[]"
        },
        {
          "internalType": "bytes",
          "name": "data",
          "type": "bytes"
        }
      ],
      "name": "safeBatchTransferFrom",
      "outputs": [],
      "stateMutability": "nonpayable",
      "type": "function"
    },
    {
      "inputs": [
        {
          "internalType": "address",
          "name": "from",
          "type": "address"
        },
        {
          "internalType": "address",
          "name": "to",
          "type": "address"
        },
        {
          "internalType": "uint256",
          "name": "id",
          "type": "uint256"
        },
        {
          "internalType": "uint256",
          "name": "value",
          "type": "uint256"
        },
        {
          "internalType": "bytes",
          "name": "data",
          "type": "bytes"
        }
      ],
      "name": "safeTransferFrom",
      "outputs": [],
      "stateMutability": "nonpayable",
      "type": "function"
    },
    {
      "inputs": [
        {
          "internalType": "address",
          "name": "operator",
          "type": "address"
        },
        {
          "internalType": "bool",
          "name": "approved",
          "type": "bool"
        }
      ],
      "name": "setApprovalForAll",
      "outputs": [],
      "stateMutability": "nonpayable",
      "type": "function"
    },
    {
      "inputs": [
        {
          "internalType": "string",
          "name": "_uri",
          "type": "string"
        }
      ],
      "name": "setURI",
      "outputs": [],
      "stateMutability": "nonpayable",
      "type": "function"
    },
    {
      "inputs": [
        {
          "internalType": "bytes4",
          "name": "interfaceId",
          "type": "bytes4"
        }
      ],
      "name": "supportsInterface",
      "outputs": [
        {
          "internalType": "bool",
          "name": "",
          "type": "bool"
        }
      ],
      "stateMutability": "view",
      "type": "function"
    },
    {
      "inputs": [
        {
          "internalType": "uint256",
          "name": "",
          "type": "uint256"
        },
        {
          "internalType": "uint256",
          "name": "",
          "type": "uint256"
        }
      ],
      "name": "tokenIdTravelInfos",
      "outputs": [
        {
          "internalType": "bytes32",
          "name": "fromUserType",
          "type": "bytes32"
        },
        {
          "internalType": "bytes32",
          "name": "toUserType",
          "type": "bytes32"
        },
        {
          "internalType": "address",
          "name": "fromUserAddress",
          "type": "address"
        },
        {
          "internalType": "address",
          "name": "toUserAddress",
          "type": "address"
        },
        {
          "internalType": "uint256",
          "name": "recivedtimeSpan",
          "type": "uint256"
        }
      ],
      "stateMutability": "view",
      "type": "function"
    },
    {
      "inputs": [
        {
          "internalType": "uint256",
          "name": "",
          "type": "uint256"
        }
      ],
      "name": "uri",
      "outputs": [
        {
          "internalType": "string",
          "name": "",
          "type": "string"
        }
      ],
      "stateMutability": "view",
      "type": "function"
    }
  ],
  "bytecode": "0x6080604052600160045534801561001557600080fd5b50604051613127380380613127833981016040819052610034916100e5565b8061003e816100bf565b506001600160a01b0382166100995760405162461bcd60e51b815260206004820152601e60248201527f496e76616c69642061636365737320636f6e74726f6c20616464726573730000604482015260640160405180910390fd5b50600380546001600160a01b0319166001600160a01b0392909216919091179055610318565b60026100cb828261025a565b5050565b634e487b7160e01b600052604160045260246000fd5b600080604083850312156100f857600080fd5b82516001600160a01b038116811461010f57600080fd5b60208401519092506001600160401b0381111561012b57600080fd5b8301601f8101851361013c57600080fd5b80516001600160401b03811115610155576101556100cf565b604051601f8201601f19908116603f011681016001600160401b0381118282101715610183576101836100cf565b60405281815282820160200187101561019b57600080fd5b60005b828110156101ba5760208185018101518383018201520161019e565b506000602083830101528093505050509250929050565b600181811c908216806101e557607f821691505b60208210810361020557634e487b7160e01b600052602260045260246000fd5b50919050565b601f82111561025557806000526020600020601f840160051c810160208510156102325750805b601f840160051c820191505b81811015610252576000815560010161023e565b50505b505050565b81516001600160401b03811115610273576102736100cf565b6102878161028184546101d1565b8461020b565b6020601f8211600181146102bb57600083156102a35750848201515b600019600385901b1c1916600184901b178455610252565b600084815260208120601f198516915b828110156102eb57878501518255602094850194600190920191016102cb565b50848210156103095786840151600019600387901b60f8161c191681555b50505050600190811b01905550565b612e00806103276000396000f3fe608060405234801561001057600080fd5b506004361061012b5760003560e01c8063743b448b116100ad578063c36034e211610071578063c36034e2146102d9578063d7fbd9ca146102f9578063e0c838671461030c578063e985e9c514610353578063f242432a1461036657600080fd5b8063743b448b1461027a57806399cd9a3e1461028d5780639b907eea146102a0578063a22cb465146102b3578063bc4c64de146102c657600080fd5b806330541502116100f457806330541502146101c157806340b3124f146101fc57806349acd6c41461020f5780634e1273f41461022f578063684facce1461024f57600080fd5b8062fdd58e1461013057806301ffc9a71461015657806302fe5305146101795780630e89341c1461018e5780632eb2c2d6146101ae575b600080fd5b61014361013e366004612341565b610379565b6040519081526020015b60405180910390f35b610169610164366004612381565b6103a1565b604051901515815260200161014d565b61018c610187366004612446565b6103f1565b005b6101a161019c366004612496565b6104c8565b60405161014d91906124f5565b61018c6101bc3660046125b8565b61055c565b6101ef6101cf36600461266b565b600660209081526000928352604080842090915290825290205460ff1681565b60405161014d91906126b4565b61018c61020a3660046126dc565b6105c3565b61022261021d366004612753565b610b60565b60405161014d919061276e565b61024261023d3660046127ab565b610c86565b60405161014d91906128ae565b600354610262906001600160a01b031681565b6040516001600160a01b03909116815260200161014d565b61018c610288366004612753565b610d52565b61018c61029b3660046128c1565b6110a9565b61018c6102ae366004612753565b61159c565b61018c6102c1366004612946565b6117bf565b61018c6102d4366004612753565b6117ce565b6102ec6102e7366004612496565b6119d3565b60405161014d919061297d565b610222610307366004612753565b611a7f565b61031f61031a366004612a00565b611ae4565b6040805195865260208601949094526001600160a01b0392831693850193909352166060830152608082015260a00161014d565b61016961036136600461266b565b611b3e565b61018c610374366004612a22565b611b6c565b6000818152602081815260408083206001600160a01b03861684529091529020545b92915050565b60006001600160e01b03198216636cdb3d1360e11b14806103d257506001600160e01b031982166303a24d0760e21b145b8061039b57506301ffc9a760e01b6001600160e01b031983161461039b565b600354604051630935e01b60e21b81523360048201526001600160a01b03909116906324d7806c90602401602060405180830381865afa158015610439573d6000803e3d6000fd5b505050506040513d601f19601f8201168201806040525081019061045d9190612a7a565b6104bc5760405162461bcd60e51b815260206004820152602560248201527f596f75204d7573742062652041646d696e20746f20646f20746869732066756e60448201526431ba34b7b760d91b60648201526084015b60405180910390fd5b6104c581611bcb565b50565b6060600280546104d790612a97565b80601f016020809104026020016040519081016040528092919081815260200182805461050390612a97565b80156105505780601f1061052557610100808354040283529160200191610550565b820191906000526020600020905b81548152906001019060200180831161053357829003601f168201915b50505050509050919050565b336001600160a01b038616811480159061057d575061057b8682611b3e565b155b156105ae5760405163711bec9160e11b81526001600160a01b038083166004830152871660248201526044016104b3565b6105bb8686868686611bd7565b505050505050565b60035460405163346c56c560e11b81523360048201526001600160a01b03909116906368d8ad8a90602401602060405180830381865afa15801561060b573d6000803e3d6000fd5b505050506040513d601f19601f8201168201806040525081019061062f9190612a7a565b61067b5760405162461bcd60e51b815260206004820152601b60248201527f43616c6c6572206973206e6f742061204469737472696275746f72000000000060448201526064016104b3565b600354604051636f499a0560e01b81526001600160a01b03858116600483015290911690636f499a0590602401602060405180830381865afa1580156106c5573d6000803e3d6000fd5b505050506040513d601f19601f820116820180604052508101906106e99190612a7a565b6107355760405162461bcd60e51b815260206004820152601a60248201527f5265636569766572206973206e6f74206120506861726d61637900000000000060448201526064016104b3565b60033360009081526006602090815260408083206001600160a01b038816845290915290205460ff16600381111561076f5761076f61269e565b146107ce5760405162461bcd60e51b815260206004820152602960248201527f54686520436f6e7472616374206973206e6f742066696e616c697a65642f7369604482015268676e6564207965742160b81b60648201526084016104b3565b600082516001600160401b038111156107e9576107e96123a5565b604051908082528060200260200182016040528015610812578160200160208202803683370190505b50905060005b8351811015610854573382828151811061083457610834612ad1565b6001600160a01b0390921660209283029190910190910152600101610818565b5060006108618285610c86565b905060005b81518110156109035783818151811061088157610881612ad1565b602002602001015182828151811061089b5761089b612ad1565b602002602001015110156108fb5760405162461bcd60e51b815260206004820152602160248201527f4469737472696275746f723a20696e73756666696369656e742062616c616e636044820152606560f81b60648201526084016104b3565b600101610866565b50610920338686866040518060200160405280600081525061055c565b60035460408051633c2f61f360e21b8152905142926000926001600160a01b039091169163f0bd87cc916004808201926020929091908290030181865afa15801561096f573d6000803e3d6000fd5b505050506040513d601f19601f820116820180604052508101906109939190612ae7565b90506000600360009054906101000a90046001600160a01b03166001600160a01b031663f0c58ea76040518163ffffffff1660e01b8152600401602060405180830381865afa1580156109ea573d6000803e3d6000fd5b505050506040513d601f19601f82011682018060405250810190610a0e9190612ae7565b905060005b8751811015610b08576000878281518110610a3057610a30612ad1565b60200260200101511115610b005760056000898381518110610a5457610a54612ad1565b60209081029190910181015182528181019290925260409081016000908120825160a081018452878152808501878152339482019485526001600160a01b038f811660608401908152608084018c8152855460018082018855968852989096209351600590980290930196875590519286019290925592516002850180546001600160a01b03199081169284169290921790559251600385018054909416911617909155516004909101555b600101610a13565b50876001600160a01b0316336001600160a01b03167f97d746d8ab141647d64f23b9b7cc4704b14d8c71c9b60aae8c278586fee86afb8986604051610b4e929190612b00565b60405180910390a35050505050505050565b6040805160608082018352600080835260208301529181019190915260035460405163346c56c560e11b81523360048201526001600160a01b03909116906368d8ad8a90602401602060405180830381865afa158015610bc4573d6000803e3d6000fd5b505050506040513d601f19601f82011682018060405250810190610be89190612a7a565b610c345760405162461bcd60e51b815260206004820152601960248201527f596f7520617265206e6f742061204469737472696275746f720000000000000060448201526064016104b3565b3360008181526006602090815260408083206001600160a01b038716808552908352928190205481516060810183529485529184019290925260ff1691908101610c7d83611c3e565b90529392505050565b60608151835114610cb75781518351604051635b05999160e01b8152600481019290925260248201526044016104b3565b600083516001600160401b03811115610cd257610cd26123a5565b604051908082528060200260200182016040528015610cfb578160200160208202803683370190505b50905060005b8451811015610d4a57602080820286010151610d2590602080840287010151610379565b828281518110610d3757610d37612ad1565b6020908102919091010152600101610d01565b509392505050565b60035460405163346c56c560e11b81523360048201526001600160a01b03909116906368d8ad8a90602401602060405180830381865afa158015610d9a573d6000803e3d6000fd5b505050506040513d601f19601f82011682018060405250810190610dbe9190612a7a565b610dda5760405162461bcd60e51b81526004016104b390612b22565b600354604051636f499a0560e01b81526001600160a01b03838116600483015290911690636f499a0590602401602060405180830381865afa158015610e24573d6000803e3d6000fd5b505050506040513d601f19601f82011682018060405250810190610e489190612a7a565b610e645760405162461bcd60e51b81526004016104b390612b59565b60023360009081526006602090815260408083206001600160a01b038616845290915290205460ff166003811115610e9e57610e9e61269e565b14610eff5760405162461bcd60e51b815260206004820152602b60248201527f506861726d61637920686173206e6f7420617070726f7665642074686520636f60448201526a6e7472616374207965742160a81b60648201526084016104b3565b3360008181526006602090815260408083206001600160a01b03861684528252808320805460ff1916600317905560045481519283019091529181529091610f4b918390600190611d30565b60048054906000610f5b83612ba6565b909155505060035460408051633c2f61f360e21b815290516000926001600160a01b03169163f0bd87cc9160048083019260209291908290030181865afa158015610faa573d6000803e3d6000fd5b505050506040513d601f19601f82011682018060405250810190610fce9190612ae7565b6000838152600560208181526040808420815160a08101835285815280840187815281840187815233606084018181524260808601818152875460018082018a55988d529b8a902096519b909a02909501998a55925194890194909455516002880180546001600160a01b03199081166001600160a01b039384161790915591516003890180549093169116179055935160049095019490945580518781529182019290925292935090917fdf60e372b279d6f3be07b7b4497856da570a9559d241227be9545dd605261360910160405180910390a2505050565b60035460405163e160404160e01b81523360048201526001600160a01b039091169063e160404190602401602060405180830381865afa1580156110f1573d6000803e3d6000fd5b505050506040513d601f19601f820116820180604052508101906111159190612a7a565b6111615760405162461bcd60e51b815260206004820152601c60248201527f43616c6c6572206973206e6f742061204d616e7566616374757265720000000060448201526064016104b3565b60035460405163346c56c560e11b81526001600160a01b038381166004830152909116906368d8ad8a90602401602060405180830381865afa1580156111ab573d6000803e3d6000fd5b505050506040513d601f19601f820116820180604052508101906111cf9190612a7a565b61121b5760405162461bcd60e51b815260206004820152601d60248201527f5265636569766572206973206e6f742061204469737472696275746f7200000060448201526064016104b3565b600083516001600160401b03811115611236576112366123a5565b60405190808252806020026020018201604052801561125f578160200160208202803683370190505b50905060005b84518110156112a1573382828151811061128157611281612ad1565b6001600160a01b0390921660209283029190910190910152600101611265565b5060006112ae8286610c86565b905060005b8151811015611351578481815181106112ce576112ce612ad1565b60200260200101518282815181106112e8576112e8612ad1565b602002602001015110156113495760405162461bcd60e51b815260206004820152602260248201527f4d616e7566616374757265723a20696e73756666696369656e742062616c616e604482015261636560f01b60648201526084016104b3565b6001016112b3565b5061136e338487876040518060200160405280600081525061055c565b60035460408051630965288b60e41b8152905142926000926001600160a01b039091169163965288b0916004808201926020929091908290030181865afa1580156113bd573d6000803e3d6000fd5b505050506040513d601f19601f820116820180604052508101906113e19190612ae7565b90506000600360009054906101000a90046001600160a01b03166001600160a01b031663f0bd87cc6040518163ffffffff1660e01b8152600401602060405180830381865afa158015611438573d6000803e3d6000fd5b505050506040513d601f19601f8201168201806040525081019061145c9190612ae7565b905060005b885181101561155657600088828151811061147e5761147e612ad1565b6020026020010151111561154e57600560008a83815181106114a2576114a2612ad1565b60209081029190910181015182528181019290925260409081016000908120825160a081018452878152808501878152339482019485526001600160a01b038d811660608401908152608084018c8152855460018082018855968852989096209351600590980290930196875590519286019290925592516002850180546001600160a01b03199081169284169290921790559251600385018054909416911617909155516004909101555b600101611461565b50856001600160a01b0316336001600160a01b03167fd62dac799945d16976cbf4cb0f96270d60dcb458eb78a7a42280bbaacbfd3d208a86604051610b4e929190612b00565b60035460405163346c56c560e11b81526001600160a01b038381166004830152909116906368d8ad8a90602401602060405180830381865afa1580156115e6573d6000803e3d6000fd5b505050506040513d601f19601f8201168201806040525081019061160a9190612a7a565b6116265760405162461bcd60e51b81526004016104b390612b22565b600354604051636f499a0560e01b81523360048201526001600160a01b0390911690636f499a0590602401602060405180830381865afa15801561166e573d6000803e3d6000fd5b505050506040513d601f19601f820116820180604052508101906116929190612a7a565b6116ae5760405162461bcd60e51b81526004016104b390612b59565b60016001600160a01b038216600090815260066020908152604080832033845290915290205460ff1660038111156116e8576116e861269e565b1461175b5760405162461bcd60e51b815260206004820152603760248201527f4e6f2070656e64696e6720636f6e7472616374207265717565737420666f756e60448201527f642066726f6d2074686973204469737472696275746f7200000000000000000060648201526084016104b3565b6001600160a01b03811660008181526006602090815260408083203380855290835292819020805460ff19166002179055514281527f3300720aa372e0c4182392c95de997ea568acf7ad30b0dc6834e797ca1ab2df591015b60405180910390a350565b6117ca338383611d8d565b5050565b60035460405163346c56c560e11b81523360048201526001600160a01b03909116906368d8ad8a90602401602060405180830381865afa158015611816573d6000803e3d6000fd5b505050506040513d601f19601f8201168201806040525081019061183a9190612a7a565b6118565760405162461bcd60e51b81526004016104b390612b22565b600354604051636f499a0560e01b81526001600160a01b03838116600483015290911690636f499a0590602401602060405180830381865afa1580156118a0573d6000803e3d6000fd5b505050506040513d601f19601f820116820180604052508101906118c49190612a7a565b6118e05760405162461bcd60e51b81526004016104b390612b59565b3360009081526006602090815260408083206001600160a01b038516845290915281205460ff1660038111156119185761191861269e565b146119735760405162461bcd60e51b815260206004820152602560248201527f436f6e747261637420616c726561647920657869737473206f722069732070656044820152646e64696e6760d81b60648201526084016104b3565b3360008181526006602090815260408083206001600160a01b03861680855290835292819020805460ff19166001179055514281529192917fba28a869d4fd0a8a0729a38e9ba270e01a52f27bbafe9c7627b8a557467d696891016117b4565b606060056000838152602001908152602001600020805480602002602001604051908101604052809291908181526020016000905b82821015611a745760008481526020908190206040805160a08101825260058602909201805483526001808201548486015260028201546001600160a01b0390811693850193909352600382015490921660608401526004015460808301529083529092019101611a08565b505050509050919050565b604080516060808201835260008083526020830152918101919091526001600160a01b038216600081815260066020908152604080832033808552908352928190205481516060810183529485529184019290925260ff1691908101610c7d83611c3e565b60056020528160005260406000208181548110611b0057600080fd5b6000918252602090912060059091020180546001820154600283015460038401546004909401549295509093506001600160a01b0390811692169085565b6001600160a01b03918216600090815260016020908152604080832093909416825291909152205460ff1690565b336001600160a01b0386168114801590611b8d5750611b8b8682611b3e565b155b15611bbe5760405163711bec9160e11b81526001600160a01b038083166004830152871660248201526044016104b3565b6105bb8686868686611e23565b60026117ca8282612c0b565b6001600160a01b038416611c0157604051632bfa23e760e11b8152600060048201526024016104b3565b6001600160a01b038516611c2a57604051626a0d4560e21b8152600060048201526024016104b3565b611c378585858585611eb1565b5050505050565b60606003826003811115611c5457611c5461269e565b03611c7b57505060408051808201909152600681526514da59db995960d21b602082015290565b6002826003811115611c8f57611c8f61269e565b03611ccd57505060408051808201909152601b81527f417070726f766564202857616974696e672046696e616c697a65290000000000602082015290565b6001826003811115611ce157611ce161269e565b03611d0957505060408051808201909152600781526650656e64696e6760c81b602082015290565b505060408051808201909152600b81526a139bdd0810dc99585d195960aa1b602082015290565b6001600160a01b038416611d5a57604051632bfa23e760e11b8152600060048201526024016104b3565b604080516001808252602082018690528183019081526060820185905260808201909252906105bb600087848487611eb1565b6001600160a01b038216611db65760405162ced3e160e81b8152600060048201526024016104b3565b6001600160a01b03838116600081815260016020908152604080832094871680845294825291829020805460ff191686151590811790915591519182527f17307eab39ab6107e8899845ad3d59bd9653f200f220920489ca2b5937696c31910160405180910390a3505050565b6001600160a01b038416611e4d57604051632bfa23e760e11b8152600060048201526024016104b3565b6001600160a01b038516611e7657604051626a0d4560e21b8152600060048201526024016104b3565b60408051600180825260208201869052818301908152606082018590526080820190925290611ea88787848487611eb1565b50505050505050565b611ebd85858585611f04565b6001600160a01b03841615611c375782513390600103611ef65760208481015190840151611eef838989858589612118565b50506105bb565b6105bb81878787878761223c565b8051825114611f335781518151604051635b05999160e01b8152600481019290925260248201526044016104b3565b3360005b8351811015612039576020818102858101820151908501909101516001600160a01b03881615611fea576000828152602081815260408083206001600160a01b038c16845290915290205481811015611fc3576040516303dee4c560e01b81526001600160a01b038a1660048201526024810182905260448101839052606481018490526084016104b3565b6000838152602081815260408083206001600160a01b038d16845290915290209082900390555b6001600160a01b0387161561202f576000828152602081815260408083206001600160a01b038b16845290915281208054839290612029908490612cc9565b90915550505b5050600101611f37565b5082516001036120ba5760208301516000906020840151909150856001600160a01b0316876001600160a01b0316846001600160a01b03167fc3d58168c5ae7397731d063d5bbf3d657854427343f4c083240f7aacaa2d0f6285856040516120ab929190918252602082015260400190565b60405180910390a45050611c37565b836001600160a01b0316856001600160a01b0316826001600160a01b03167f4a39dc06d4c0dbc64b70af90fd698a233a518aa5d07e595d983b8c0526c8f7fb8686604051612109929190612cdc565b60405180910390a45050505050565b6001600160a01b0384163b156105bb5760405163f23a6e6160e01b81526001600160a01b0385169063f23a6e619061215c9089908990889088908890600401612d0a565b6020604051808303816000875af1925050508015612197575060408051601f3d908101601f1916820190925261219491810190612d4f565b60015b612200573d8080156121c5576040519150601f19603f3d011682016040523d82523d6000602084013e6121ca565b606091505b5080516000036121f857604051632bfa23e760e11b81526001600160a01b03861660048201526024016104b3565b805160208201fd5b6001600160e01b0319811663f23a6e6160e01b14611ea857604051632bfa23e760e11b81526001600160a01b03861660048201526024016104b3565b6001600160a01b0384163b156105bb5760405163bc197c8160e01b81526001600160a01b0385169063bc197c81906122809089908990889088908890600401612d6c565b6020604051808303816000875af19250505080156122bb575060408051601f3d908101601f191682019092526122b891810190612d4f565b60015b6122e9573d8080156121c5576040519150601f19603f3d011682016040523d82523d6000602084013e6121ca565b6001600160e01b0319811663bc197c8160e01b14611ea857604051632bfa23e760e11b81526001600160a01b03861660048201526024016104b3565b80356001600160a01b038116811461233c57600080fd5b919050565b6000806040838503121561235457600080fd5b61235d83612325565b946020939093013593505050565b6001600160e01b0319811681146104c557600080fd5b60006020828403121561239357600080fd5b813561239e8161236b565b9392505050565b634e487b7160e01b600052604160045260246000fd5b604051601f8201601f191681016001600160401b03811182821017156123e3576123e36123a5565b604052919050565b6000806001600160401b03841115612405576124056123a5565b50601f8301601f191660200161241a816123bb565b91505082815283838301111561242f57600080fd5b828260208301376000602084830101529392505050565b60006020828403121561245857600080fd5b81356001600160401b0381111561246e57600080fd5b8201601f8101841361247f57600080fd5b61248e848235602084016123eb565b949350505050565b6000602082840312156124a857600080fd5b5035919050565b6000815180845260005b818110156124d5576020818501810151868301820152016124b9565b506000602082860101526020601f19601f83011685010191505092915050565b60208152600061239e60208301846124af565b60006001600160401b03821115612521576125216123a5565b5060051b60200190565b600082601f83011261253c57600080fd5b813561254f61254a82612508565b6123bb565b8082825260208201915060208360051b86010192508583111561257157600080fd5b602085015b8381101561258e578035835260209283019201612576565b5095945050505050565b600082601f8301126125a957600080fd5b61239e838335602085016123eb565b600080600080600060a086880312156125d057600080fd5b6125d986612325565b94506125e760208701612325565b935060408601356001600160401b0381111561260257600080fd5b61260e8882890161252b565b93505060608601356001600160401b0381111561262a57600080fd5b6126368882890161252b565b92505060808601356001600160401b0381111561265257600080fd5b61265e88828901612598565b9150509295509295909350565b6000806040838503121561267e57600080fd5b61268783612325565b915061269560208401612325565b90509250929050565b634e487b7160e01b600052602160045260246000fd5b60208101600483106126d657634e487b7160e01b600052602160045260246000fd5b91905290565b6000806000606084860312156126f157600080fd5b6126fa84612325565b925060208401356001600160401b0381111561271557600080fd5b6127218682870161252b565b92505060408401356001600160401b0381111561273d57600080fd5b6127498682870161252b565b9150509250925092565b60006020828403121561276557600080fd5b61239e82612325565b602080825282516001600160a01b0390811683830152908301511660408083019190915282015160608083015260009061248e60808401826124af565b600080604083850312156127be57600080fd5b82356001600160401b038111156127d457600080fd5b8301601f810185136127e557600080fd5b80356127f361254a82612508565b8082825260208201915060208360051b85010192508783111561281557600080fd5b6020840193505b8284101561283e5761282d84612325565b82526020938401939091019061281c565b945050505060208301356001600160401b0381111561285c57600080fd5b6128688582860161252b565b9150509250929050565b600081518084526020840193506020830160005b828110156128a4578151865260209586019590910190600101612886565b5093949350505050565b60208152600061239e6020830184612872565b6000806000606084860312156128d657600080fd5b83356001600160401b038111156128ec57600080fd5b6128f88682870161252b565b93505060208401356001600160401b0381111561291457600080fd5b6129208682870161252b565b92505061292f60408501612325565b90509250925092565b80151581146104c557600080fd5b6000806040838503121561295957600080fd5b61296283612325565b9150602083013561297281612938565b809150509250929050565b602080825282518282018190526000918401906040840190835b818110156129f5578351805184526020810151602085015260018060a01b03604082015116604085015260018060a01b036060820151166060850152608081015160808501525060a083019250602084019350600181019050612997565b509095945050505050565b60008060408385031215612a1357600080fd5b50508035926020909101359150565b600080600080600060a08688031215612a3a57600080fd5b612a4386612325565b9450612a5160208701612325565b9350604086013592506060860135915060808601356001600160401b0381111561265257600080fd5b600060208284031215612a8c57600080fd5b815161239e81612938565b600181811c90821680612aab57607f821691505b602082108103612acb57634e487b7160e01b600052602260045260246000fd5b50919050565b634e487b7160e01b600052603260045260246000fd5b600060208284031215612af957600080fd5b5051919050565b604081526000612b136040830185612872565b90508260208301529392505050565b6020808252601c908201527f41646472657373206973206e6f742061206469737472696275746f7200000000604082015260600190565b60208082526019908201527f41646472657373206973206e6f74206120506861726d61637900000000000000604082015260600190565b634e487b7160e01b600052601160045260246000fd5b600060018201612bb857612bb8612b90565b5060010190565b601f821115612c0657806000526020600020601f840160051c81016020851015612be65750805b601f840160051c820191505b81811015611c375760008155600101612bf2565b505050565b81516001600160401b03811115612c2457612c246123a5565b612c3881612c328454612a97565b84612bbf565b6020601f821160018114612c6c5760008315612c545750848201515b600019600385901b1c1916600184901b178455611c37565b600084815260208120601f198516915b82811015612c9c5787850151825560209485019460019092019101612c7c565b5084821015612cba5786840151600019600387901b60f8161c191681555b50505050600190811b01905550565b8082018082111561039b5761039b612b90565b604081526000612cef6040830185612872565b8281036020840152612d018185612872565b95945050505050565b6001600160a01b03868116825285166020820152604081018490526060810183905260a060808201819052600090612d44908301846124af565b979650505050505050565b600060208284031215612d6157600080fd5b815161239e8161236b565b6001600160a01b0386811682528516602082015260a060408201819052600090612d9890830186612872565b8281036060840152612daa8186612872565b90508281036080840152612dbe81856124af565b9897505050505050505056fea2646970667358221220c09a8df50c6a974c245900919e5ff19564ea2c321b9ce74ce74cf65d1f0752cc64736f6c634300081c0033",
  "linkReferences": {},
  "deployedLinkReferences": {}
}